:020000040001F9
:10F00000105100208DF4010095F4010097F40100E7
:10F0100099F401009BF401009DF401000000000040
:10F020000000000000000000000000009FF401004C
:10F030000000000000000000A1F40100A3F40100A2
:10F04000A5F40100A5F40100DDF80100A5F401001C
:10F05000A5F40100A5F4010039F50100A5F40100B3
:10F06000A5F40100A5F40100A5F40100A5F4010038
:10F07000A5F40100A5F40100A5F40100A5F4010028
:10F08000A5F40100B1F60100A5F40100A5F401000A
:10F09000D5F60100A5F4010029F70100A5F401004F
:10F0A000A5F40100A5F40100A5F40100A5F40100F8
:10F0B000A5F40100A5F4010000000000000000001C
:10F0C000A5F40100A5F40100A5F40100A5F40100D8
:10F0D000A5F40100A5F401000000000000000000FC
:10F0E0000000000000000000000000000000000020
:10F0F0000000000000000000000000000000000010
:10F1000000000000000000000000000000000000FF
:10F1100000000000000000000000000000000000EF
:10F40000DFF80CD000F086F8004800470D14020029
:10F4100010510020401E00BF00BF00BF00BF00BF52
:10F4200000BF00BF00BF00BF00BF00BF00BF00BFE4
:10F4300000BF00BF00BF00BF00BF00BF00BF00BFD4
:10F4400000BF00BF00BF00BF00BF00BF00BF00BFC4
:10F4500000BF00BF00BF00BF00BF00BF00BF00BFB4
:10F4600000BF00BF00BF00BF00BF00BF00BF00BFA4
:10F4700000BF00BF00BF00BF00BF00BF00BF00BF94
:10F4800000BF00BF00BFC5D17047000006488047DD
:10F4900006480047FEE7FEE7FEE7FEE7FEE7FEE779
:10F4A000FEE7FEE7FEE7000059F7010001F4010066
:10F4B00040EA01039B0703D009E008C9121F08C0F6
:10F4C000042AFAD203E011F8013B00F8013B521E76
:10F4D000F9D27047D2B201E000F8012B491EFBD2ED
:10F4E00070470022F6E710B513460A46044619464F
:10F4F000FFF7F0FF204610BD30B50446002003465C
:10F5000000E05B1C934203D2E05CCD5C401BF8D072
:10F5100030BD0000064C074D06E0E06840F00103F6
:10F5200094E8070098471034AC42F6D3FFF76CFF1D
:10F5300094200200B42002002DE9F05F002501278D
:10F54000DFF8FCA0A8464FF480762C46B94630463A
:10F5500002F094F948B1DAF8041309FA04F0014210
:10F5600003D0304602F080F93D43361D7F00641C15
:10F57000B6B2082CEBD34FF4BE74204602F07EF9ED
:10F5800038B1204602F070F92E4845F00045D0F819
:10F5900000802D4E280715D0012700242F420DD0C2
:10F5A0000AEB8401D1F81005D1F81015C0F304203E
:10F5B00006EB8402C1F30141526890477F00641C4E
:10F5C000082CEBD3002D36DA0024CB46B2460AEBEA
:10F5D0000400574690F8540020F0C0054FEA9019F7
:10F5E0000BFA05F6284602F029FA08B3284601F07E
:10F5F000ADFB07EB80004768D7B1A80000F1A04041
:10F60000D0F8000716EA080FC0F3014002D0022824
:10F6100002D00DE003280BD1B9F1030F05D1022868
:10F620000BD00221284602F010F949462846B84777
:10F63000641C042CCBD3BDE8F09F0321F2E700004B
:10F6400000600040100500502C2E002000F01F022A
:10F65000012191404009800000F1E020C0F88012B3
:10F66000704700F01F02012191404009800000F125
:10F67000E020C0F80011704700F01F020121914006
:10F680004009800000F1E020C0F8001270474907EF
:10F69000090E002806DA00F00F0000F1E02080F8E3
:10F6A000141D704700F1E02080F80014704700003E
:10F6B00007480021C0F84011C0F84411C0F84811B3
:10F6C000C0F84C11C0F80011C0F8041102F00EBBD4
:10F6D000001001402DE9F04186B04FF0FF30114D90
:10F6E00002906846D5E9046801F036FC074601F04F
:10F6F000B9FD044647B102AA4146009801F04CFC0E
:10F70000029801F001FE04E0029801F0FDFD00B94D
:10F7100014B1304601F022FB0020687106B0BDE84C
:10F72000F0810000DC280020094810B5406848B18D
:10F73000804700280AD0BDE81040064A40F2311147
:10F7400000F038BBBDE8104001F0B2BC10BD0000B5
:10F75000002900203C200200F0B558480022041D7A
:10F760000378211D081D0126062B17D125782D07AA
:10F7700014D10D78C5F30315032D03D1077817F0C5
:10F78000F00F0ED0042D03D1077817F0F00F08D03A
:10F79000052D03D1057815F0F00F02D0062B09D006
:10F7A00014E04FF08055D5F84452454FC5F342352B
:10F7B0003D6002E025782D0708D10D78C5F30315CB
:10F7C000032D03D1057815F0F00F02D0062B06D0DB
:10F7D0001DE03C4D2F6827F080772F601AE02578D8
:10F7E0002D0714D10D78C5F30315032D03D1077828
:10F7F00017F0F00F0ED0042D03D1077817F0F00F9B
:10F8000008D0052D03D1057815F0F00F02D0062B96
:10F810000AD019E04FF08045C5F80C21C5F8102139
:10F82000274D2D1F2A6002E025782D070CD109787D
:10F83000C1F30311032907D1007810F0F00F03D1B1
:10F840001F490320643108601E487438016841F480
:10F8500070010160BFF34F8FBFF36F8F4FF0102126
:10F86000D1F80002002803DBD1F80402002821DAD5
:10F87000154B1E6015480468002CFCD01524C1F8F7
:10F8800000420568002DFCD0C1F80442016800293F
:10F89000FCD01A6001680029FCD0BFF34F8F0948E3
:10F8A000F03801680A4A01F4E06111430160BFF3D6
:10F8B0004F8FFEE7084907480860F0BDE00F00F0F1
:10F8C0003C050040FCED00E004E5014000E401409F
:10F8D0000400FA050090D003142900202DE9FF4709
:10F8E000584C0026584DE07D4FF0020900284FF497
:10F8F00092714FF4A27A284649D001F0CCFFA0B112
:10F90000C5F824618DF80090D5F88004C5F880040E
:10F910000390D5F83C058DF80800E0680190E67486
:10F92000D4E90012684690470FE04FF488712846EA
:10F9300001F0B1FF48B1C5F81061D5F83C05E17C94
:10F94000C0B2814201D102F0D3F85146284601F0FD
:10F95000A2FF40B1C5F84461E07C20B1D5F83C0578
:10F96000C0B202F0C5F84FF49071284601F093FF41
:10F97000002865D0C5F82061A07C002860D0D5F8AB
:10F980004C0504B0C0B2BDE8F04702F025BA01F062
:10F990007DFF4FF401780127C0B1C5F82461C5F897
:10F9A0000883607D00B96F608DF80090D5F8800401
:10F9B000C5F880040390E07C8DF80800E0680190B1
:10F9C000E674D4E900126846904713E04FF484715E
:10F9D000284601F05BFF68B102F078F8E07C217DF9
:10F9E000884207D1607D00B96F60C5F80883207D2B
:10F9F00002F07EF84FF48E71284601F047FF58B1AF
:10FA0000A07C218A884202D902F0D4F904E0C5F82A
:10FA10001C6108B102F0E0F95146284601F036FFBA
:10FA200000280DD0C5F84461607D00B12F60E07CF6
:10FA3000002805D0207D04B0BDE8F04702F058B89A
:10FA4000BDE8FF87842E00200020004002E008C8A7
:10FA5000121F08C1002AFAD170477047002001E048
:10FA600001C1121F002AFBD170472DE9FC5F002560
:10FA7000168807461580406B14468946A8464FF005
:10FA80000C0A11234FF0020B98B101784846032E5F
:10FA900048D380F800B02288521C92B2228083544E
:10FAA0002288521C92B2228009F802102088401C41
:10FAB00020803A6BDAB12088494600F11205B54240
:10FAC00030D80B5420881023401C80B220800B5467
:10FAD0002088401C20800F202388155C401ECD54B8
:10FAE000238840B25B1C23800028F5DA454697F84E
:10FAF0002E0030B133462246494601F025FB050071
:10FB000011D197F82D0030B132462146484600F019
:10FB1000DDFD050007D1B87820B32088C846001D58
:10FB2000B04202D95046BDE8FC9F684679DF002804
:10FB3000F9D12188032008F8010020881921401CF0
:10FB400080B2208008F800102088401C80B22080FD
:10FB500000EB0801BDF8000002F050F901462088D2
:10FB600008442080F878B8B1228897F90310D31C94
:10FB70004846B342D6D800F802B022880123521C6E
:10FB800092B2228083542288521C92B2228009F8B9
:10FB900002102088401C20807868B8B1218890F934
:10FBA0000020CB1C4846B342BCD800F801B02188E5
:10FBB0000A23491C89B2218043542188491C89B2F7
:10FBC000218009F801202088401C2080388950B10C
:10FBD000CDE900464B460622022107F1080002F05B
:10FBE00078F905009FD1388A50B1CDE900464B46DF
:10FBF0000722032107F1100002F06BF9050092D1F2
:10FC0000388B50B1CDE900464B461522142107F13F
:10FC1000180002F05EF9050085D1386A30B133462C
:10FC20002246494601F0EEF80500DBD1786A30B192
:10FC300033462246494601F07BFC0500D2D197F8B5
:10FC40002C0038B1334622464946384601F062FF5F
:10FC50000500C7D1387838B1334622464946384680
:10FC600001F098FC0500BDD128465CE710B51E48A0
:10FC7000A8B03821006826901C48807C8DF89A0036
:10FC800001A8FFF72EFC02208DF8040001248DF856
:10FC9000064006208DF8070015480690ADF8144080
:10FCA00038210FA8FFF71DFC26A81490ADF84C4092
:10FCB00024211DA8FFF715FC40202190B42022909C
:10FCC000002000908DF880400A4B1DAA0FA901A8C2
:10FCD00000F0B0FA002804D0074A40F2062100F0F4
:10FCE00069F828B010BD0000B01F0200E42C00200D
:10FCF00002280020A118020004190200064800682A
:10FD00004FF40021044A8143121D1160111D00F4BB
:10FD100000200860704700000405005070B5002402
:10FD2000064D06E06868012110F8340001F09CFCE3
:10FD3000641C28788442F5D3002070BDA8280020D8
:10FD4000F8B515460C460646052A01D20720F8BD2F
:10FD500001F062FD18B901F037FD0028F7D1114913
:10FD600000204E600C7008618D6048610E4D0DE002
:10FD700006EBC4002968009181788DF801100078A5
:10FD80000A4A694601F0BAFC0028E0D1641EE4B2D8
:10FD9000EED2BDE8F84003480021054A0C3000F0DF
:10FDA000E5B80000A8280020E41F0200651002004A
:10FDB000F90E0200F8B5044616460D460C2000F078
:10FDC000B7FD01208DF800009DF80000044B83E88A
:10FDD000700072B69DF800000028FBD1F8BD00004D
:10FDE000C028002070B50F4B054605201C785E78B2
:10FDF000A64216D01C7818789E88B04201DA401CC2
:10FE000000E0002018705E88D86804FB06002860B7
:10FE1000986800EBC4039B880B8050F83400106096
:10FE2000002070BDCC2800202DE9F84F394C8246C7
:10FE3000934660880F46814269D837484FF00009E1
:10FE40008DF800904FF6FF780068454610EAE810FC
:10FE500012D0103840B2002806DA00F00F0000F18E
:10FE6000E02090F8140D03E000F1E02090F8000489
:10FE70004609012E01D109E00426684636DF022832
:10FE80000BD018B1254A6621FFF794FF21786078DE
:10FE9000A288904203DA401C02E072B6F6E7002026
:10FEA000C0B2884207D065786078904201DA401C81
:10FEB00000E000206070012E0AD062B69DF80000BC
:10FEC00037DF022804D018B1144A6E21FFF772FF01
:10FED00045451AD0A068BAF1000F40F835B00DD0F2
:10FEE00067B16188E0683A4605FB01005146FFF7BB
:10FEF000DFFAA06800EBC500878003E000EBC500D7
:10FF0000A0F804900020BDE8F88F0420FBE709204A
:10FF1000F9E70000CC28002004ED00E0F81F020003
:10FF20000EB504E0029ABDF804100098904702AAAA
:10FF300001A96846FFF756FF0028F3D00EBD000068
:10FF400030B5CB0008339DB293074FF0000401D0C9
:10FF5000072030BD044B9A602A44DA605C701C7044
:10FF600058809980002030BDCC28002070B5114DFC
:10FF7000AC6824B12AB120B100232D780AE0082012
:10FF800070BD072070BD00BF03EBC30614F82660E8
:10FF900026B15B1CAB42F7DB042070BD03EBC3054D
:10FFA000012604F8256004EB85046170A2610360FA
:10FFB000002070BDDC28002010B50446082904D0BC
:10FFC00004A214210020FFF7F5FED4E90010BDE8DB
:10FFD000104008472E2E5C2E2E5C2E2E5C2E2E5CA2
:10FFE0002E2E5C2E2E5C636F6D706F6E656E74735B
:10FFF0005C6C69627261726965735C74696D65726B
:020000040002F8
:100000005C6170705F74696D65725F617070736858
:100010002E6300001CB5044ACDE9000108216846A2
:10002000FFF702FF1CBD0000B9FF01002DE9F047FA
:100030008146089C1D461746884698074FF00006E3
:100040000AD14DB101F024FD2046244CA06184F872
:1000500000800020A5600BE00720BDE8F08700BF0E
:1000600000EBC001401C05F8216005EB81010E7515
:100070004045F5DB08EBC80005EB8001032060700C
:1000800001F11800002207EB4705E16001EBC20314
:10009000521C1E705E709F70586000EBC500032AF2
:1000A000F4DB4FF0FF302061A670E6701420FFF7FC
:1000B000CDFA03211420FFF7EAFA1420FFF7D1FA52
:1000C0000749C1F8009003211120FFF7E0FA044826
:1000D000001F006860610020BFE70000DC280020EE
:1000E000081501402DE9F84304461F480D46174600
:1000F000816869B10278944201D2052D02D20720AD
:10010000BDE8F88304EBC40211F82230012B01D0C2
:100110000820F5E7814601EB8200407801281FD0D6
:100120005FF0000601F0A0FED9F80C10804601EB4C
:10013000C800694601F0BAFEA0B1012100F8041B15
:100140000A4910C0096880E8E200D9F80C1000984C
:1001500001EBC80148701420FFF78EFA0020CFE7AA
:100160002E46DFE70420CBE7DC2800200415014001
:10017000F8B5154C0546A06850B121788D4201D3E1
:100180000720F8BD05EBC50110F82100012801D0BA
:100190000820F8BD01F068FE0646E068694600EBFD
:1001A000C60001F083FE60B1022101704560E06885
:1001B00000EBC601009848701420FFF75DFA00209C
:1001C000F8BD0420F8BD0000DC280020F0B50C4686
:1001D00093B01F210726ADF80010ADF804100027DA
:1001E00050B1C17849070DD56A4602A9FFF73DFC19
:1001F000002808D102AD02E00025ADF800706CB116
:10020000E07810B1304613B0F0BD01AA0AA920462B
:10021000FFF72BFC0028F6D10AAA02E00022ADF875
:100220000470BDF80400C3B2BDF80000C1B2284696
:1002300072DFE8E770B50D4604991646040040D019
:10024000F6B3414800224271C0E90331242231460D
:100250003E48FFF72DF900F0D5F83C493431A1F1C3
:10026000100001602031816038215C38FFF739F9D6
:100270003648217838380170A1788170E178C170F2
:1002800061784170D4E90412C0E90412D4E9021281
:10029000C0E90212D4E90612C0E90612616AD1B1BE
:1002A00000F1AC0100F1B80241628A60636A1B8808
:1002B0000B80616A436A898899800021436A07E05C
:1002C000FFE70E2070BD666AB668765C5654491C1E
:1002D0009E888E42F7D8A16AD9B11C4AAC32A2F1ED
:1002E0000C018A608162A36A9B888B80A16A836A01
:1002F000098819800021836A04E0A66AB668765CE2
:100300005654491C9E888E42F7D894F82C1080F8D9
:100310002C10216A49B10C4914310162226A5288B9
:100320004A80216A026A09881180616821B1064900
:10033000891D4160616841602946BDE870400348FD
:100340003838FFF743BF00004C280020442D002020
:1003500010B502881D4C102A18D00021112A1BD07C
:10036000192A18D18079002815D16079012820D068
:10037000022824D0032824D004280CD12171E2685B
:100380000846002A07D0BDE810401047017D01292A
:1003900001D18088208110BD6170808821898842C8
:1003A000F9D1012006E021690029F4D0BDE8104010
:1003B0000847022000F02EF80028F4D110BD0320D9
:1003C000F8E7032020710420F4E700004C28002007
:1003D00010B5022801D0032810D1094C207800283C
:1003E0000CD000202070607900F014F8002805D0AF
:1003F0002169002902D0BDE81040084710BD000067
:100400004C28002002480021816181838177704758
:100410004C2800202DE9F04F724C87B00026607107
:1004200006A8069601F022FB0127082805D000281F
:1004300071D1069810B12770C0E00696FFF7E2FF71
:10044000694D687810B16079012804D0A87848B166
:100450006079022806D1E16819B1E7700820884761
:1004600000E0E6706079DFF87C814FF0020A08F165
:1004700018084FF0030B012806D1687840B108F145
:10048000010001F0D1FA18B16079022802D00AE027
:1004900084F805A0A87820B108F1010001F0C4FAA1
:1004A00008B984F805B0287B4FF0040920B96079B9
:1004B000032801D184F80590287E20B960790428AA
:1004C00001D166712671E16841B16079032801D0DC
:1004D000042803D1287808B16078C0B1A67018212B
:1004E0006846FEF7FEFF8DF8006001968DF8086003
:1004F0000396607901280FD0022817D03A4E24368F
:10050000A6F15C0703281ED004284DD13BE0A7705C
:1005100007208847E3E752E0ADF81260CDF8048089
:100520008DF80070ADF8106027713FE0CDF80480C1
:100530008DF800702889ADF81200A888ADF8100079
:1005400084F804A032E0A88AADF81200288AADF839
:1005500010002548243001F023FD18B1287808B197
:10056000607810B184F804B01EE01F488DF808A030
:10057000039687F8039000213838FFF727FE0028FC
:100580001DD105202BE0A88BADF81000288CADF80C
:1005900012001548243001F003FD18B1287808B185
:1005A000607878B184F80490607918B1684673DF98
:1005B000002804D1E16809B120798847002007B0FC
:1005C000BDE8F08F08488DF808A0039687F80390DF
:1005D00000213838FFF7FAFD0028F0D106202071FD
:1005E000E2E700004C280020442D002070B50546AD
:1005F00001461C221048FEF75BFF104C00262670B7
:10060000286838B10168A1604068E06004F1080022
:100610007ADF02E0094808307BDF00280BD14FF673
:10062000FF7060806670BDE8704004480021044A95
:10063000001DFFF79BBC70BD102E00206C28002011
:10064000091E020070B5204C068800251D49E2896C
:10065000102E16D00B46112E5B681ED0122E2BD0FA
:10066000502E19D130F8061F914215D1018B022965
:1006700012D1807E10F0010F13D0BDE8704000F061
:1006800011BC83884B80D0F816300B61D0F81A006B
:1006900048614D70002AF0D070BD4FF6FF70488061
:1006A0004D701846FFF764FD0028F5D0A1690029B8
:1006B000F2D0BDE87040084750F8062F0A61406844
:1006C0004861DAE76C280020102E00207CB5054632
:1006D00008880C460930904201D90C207CBD684640
:1006E00071DF0028FAD121880820685420881B2156
:1006F000401C80B2208029542088401C80B2208079
:100700002844DDF801100160BDF8051081802088C3
:10071000801D80B220809DF8001001B10121295474
:100720002088401C208000207CBD000010B50446BD
:1007300001F0F0F82046FFF785FF2046FFF708FE9E
:100740002146BDE81040014800F02EB8E42C0020FE
:1007500030B5144B044685B02DCB8DE82D004FF6F7
:10076000FF70A0820868A06104F11201684663DF8F
:10077000002814D1A07C8DF8120041F22350ADF86E
:100780001000224604A90120A0DF002807D120463E
:1007900000F038FA002802D1204600F0FFFC05B036
:1007A00030BD0000E81F02000A88102A10D0112A6C
:1007B00010D0502A11D131F8062F43889A420CD11B
:1007C0000A8B012A09D18269002A06D0897E104746
:1007D000898801E04FF6FF71818270471CB50023C4
:1007E00048221549082001F0E9F920B1134A40F2E6
:1007F000CF11FFF7DFFA0020009001908DF8000084
:10080000684660DF20B10D4A4FF4ED71FFF7D2FA70
:100810000B4801F0C9F920B1084A40F2DF11FFF797
:10082000C9FA084801F0E2F9002804D0034A40F26E
:10083000E311FFF7BFFA1CBDEC2B002004190200E6
:100840002D070200011C02002DE9F0470746002495
:10085000234802E0641C042C3FD250F82420BA4202
:10086000F8D1042C39D2DFF87C90DFF87C80A9F134
:100870001006F06939B301290ED002292DD104EBFD
:10088000440040444578002D27D0F168002924D049
:100890002846BDE8F047084704EB440118F801502A
:1008A000884498F8011049B171680E4A01EB810142
:1008B00049000F3AFFF716FC00B9777098F802105C
:1008C00009F80410DFE7FFF753FC04EB440141444F
:1008D00019F804008D78A842D5D0BDE8F087000053
:1008E000B41F02003C280020002D002070B500231A
:1008F000042810D20D4D00EB4004012A02D1012939
:100900000CD00022094E00EB4000304461B10129B7
:1009100006D0022906D00723184670BD0D30C2B29A
:100920002A55F9E74270F7E78270F5E7002D0020BD
:10093000044A01460020127AD20702D0084600F08D
:1009400055B870472C28002070B50E462149054641
:1009500000204E60C1E90252A9071BD500240122E4
:1009600011462046FFF7C2FF641C042C02D2002867
:10097000F5D00FE070B9720804211748FFF7E0F9CD
:1009800040B9FFF7CBF928B91248144A00211C30AE
:10099000FFF7ECFAE9070AD0114A4FF4F0111160A1
:1009A0000F4B00221B1D1A600D4A103211600028E7
:1009B0000FD108480B4A00211430FFF7D7FA00285E
:1009C00007D1BDE8704003480121074A1830FFF7FE
:1009D000CDBA70BD2C280020C41F0200DD0C02001F
:1009E0000805005051120200FDFC01002DE9F05FE6
:1009F00007467448DFF8C8910022416809F10404F1
:100A0000251DD0F814C04FF4A01A4FF400334FF452
:100A1000802B01EB810E1646182F12D2DFE807F06B
:100A20000C12123344536075778077808B8F8F8FD1
:100A30008F8FB1B9BFC5CBCB4FF4B01121602E6001
:100A40000670A3E0C4F800A02E60D9F8002082F45C
:100A5000F012920309D523602E60022F02D14FF4C9
:100A6000E16209E04FF47A6206E02B602660022F13
:100A700034D000BF4FF4C87207706420B2FBF0F0AE
:100A8000414300223CE0C4F800A02E60D9F80020C9
:100A900082F4F012920304D523602E604FF4487262
:100AA000EAE72B60266019E0C4F800A02E60D9F8B0
:100AB000002082F4F012920302D523602E60D1E769
:100AC0002B602660D6E7C4F800A02E60D9F800207D
:100AD00082F4F0129203E4D523602E60C822CBE7A3
:100AE000C4F800A02E60D9F8002082F4F01292031E
:100AF00002D523602E6001E02B602660077018E0AD
:100B00006046FFF7EFFA024640E0514643E0D9F86D
:100B100000002BEA0002226000F48020286008E038
:100B2000D9F800002BEA0001216000F48020286041
:100B300071460022E4E74FF4F01028601FE0804681
:100B40008069FFF715FB0246D7F111004FF400272B
:100B500000D012B127602E6018E001280ED9C821FC
:100B600010FB01F16420B1FBF0F1D8F80420D8F8B3
:100B7000180051430022FFF7B5FA02462F602660A5
:100B800004E04FF4F01121602E6007701046BDE8BC
:100B9000F09F4FF4E01121602E602B600EE04FF4C7
:100BA000D01121602E60594607E04FF4C01121603A
:100BB0002E60891001E04FF4F01129602660E4E70F
:100BC000040500502C28002070B500210C4D012494
:100BD00055F82120920002F1A042D2F8006704FAF1
:100BE00001F3034000D0032326F4403646EA0343D2
:100BF000C2F80037491C0429EAD3002070BD000068
:100C0000B41F020030B591B0002405460D949DF844
:100C100034001C2120F00F00401C20F0F0001030A8
:100C20008DF834009DF8350020F00F00401C20F0B6
:100C3000F00010308DF835009DF8360020F00600E9
:100C4000801C8DF836006846FEF74BFC9DF80000CE
:100C5000019440F012008DF800000DA8CDE9044089
:100C600003940694A87C8DF83E0041F22450ADF820
:100C70003C000E949DF83800142120F00F00401C19
:100C800020F0F00010308DF838009DF8390020F089
:100C9000FF008DF839009DF83A0020F00600801C16
:100CA00020F019008DF83A0007A8FEF71AFC0FA8EB
:100CB00007900EA808900120ADF82400ADF826405A
:100CC000ADF828000B9416B1304611B030BD28881D
:100CD00005F10A0307AA6946A2DFF6E700780221B8
:100CE000FFF7B2BD05494FF0FF3201EB8003082842
:100CF0005A6002D3084480F84C2070472C2E002004
:100D0000F0B54FF0FF3512B10023082601E00823AB
:100D10000C260D4C06E000BF04EB83077F687F1CA8
:100D200004D05B1CB342F7D32846F0BD26185DB251
:100D300086F8345004EB8306002A7160F4D1E11880
:100D400081F84C00F0E700002C2E002002490844F6
:100D500090F93400704700002C2E00202DE9F05F40
:100D6000254801694A1C41D0826801EBC101DFF8C6
:100D70008CB002EB810181464E68DBF80040476988
:100D80000079E11B21F07F45ED1CB0B9DFF87080E0
:100D90004FF48030C8F84403C8F804031120FEF76C
:100DA00055FC1120FEF75DFC4FF0010AC8F800A0C9
:100DB0002F20FEF72FFB89F804A0B54200D235465C
:100DC0000E49E8193C3120F07F400860DBF8001044
:100DD000001B091B21F07F4120F07F40C91C81428C
:100DE00008D9BDE8F05F1120FEF746BCBDE8F05F12
:100DF00000F04EBEBDE8F09FDC2800200415014045
:100E0000001001402DE9F04117880646B81D144630
:100E10000D46984202D90C20BDE8F08131880722A6
:100E200006290AD34FF4486C4FF6FF73614501D988
:100E3000994202D17088062801D21046ECE760453D
:100E400001D99842F9D1994203D0984201D0814208
:100E5000F3D80520E85520881221401C80B220805C
:100E600029542088401C80B220804119308800F02D
:100E7000C5FF2188084480B220804119708800F0A5
:100E8000BDFF2188084420800020C5E701A2F6218B
:100E9000FEF790BF2E2E5C2E2E5C2E2E5C6D6169AF
:100EA0006E2E6300F8B5124800F040F9104D002690
:100EB000104C103D30B16169B1B101208DF80000D6
:100EC000684610E0287820B1616969B18DF800604A
:100ED000F6E7687850B1A16800226868FFF702F968
:100EE00010B1A16901B188472E70F8BD6168F3E7C0
:100EF0007C280020102E00202DE9F041002601253D
:100F0000144C22E06068626900EBC607387805FA85
:100F100000F1114217D08A43626100F04BFC024697
:100F20003878236905FA00F1194002FA00F3994272
:100F300009D17978012901D0012100E00021514037
:100F40007A6802B19047761CF6B220788642D9D3EF
:100F5000BDE8F081A82800200E4910B58A78CC7829
:100F60000023A24212D0521CD2B28A70022A00D1AF
:100F70008B70084A8B781C3252F823200260486933
:100F8000104420F07F404861012010BD0360002024
:100F900010BD0000DC2800202DE9F043154E8946E5
:100FA0000024B768336920E003EBC30107EB81013C
:100FB0004D68854202D9281A486018E0401B2C442D
:100FC00000254D600D751D46D1F810C00B6ABCF1AF
:100FD000000F0AD009EB040828F07F48C1E9028C11
:100FE000D2F800C0C1F820C01560591CDCD13361B3
:100FF000BDE8F083DC2800200EB515A19DF808009F
:1010000020F00F00401C20F0F00010308DF8080098
:101010000D2202A87CDF18B1114AA121FEF7CAFEF9
:1010200000204FF4C87100900190ADF80400ADF8B5
:1010300000104A00ADF80220ADF8061068467ADFCD
:10104000002803D0064AAF21FEF7B4FE0EBD000013
:101050004E6F726469635F426C696E6B7900000069
:101060000419020070B5114C06460125B540E06830
:10107000FFF77EF800280CD16169294207D130467C
:1010800000F098FB0028206904D0284303E0A9431E
:10109000616170BDA8432061606928436061D4E943
:1010A0000210BDE870400022FFF71CB8A8280020FD
:1010B000F8B51C4C2078002832D0206928B10026D1
:1010C000E06820B1002526B112E00126F8E70125ED
:1010D000F9E7684651DF052805D030B1124A6D2185
:1010E000FEF768FE04E0012602E0216900988847C7
:1010F00095B96088ADF800006946A06861DF0528F1
:1011000005D030B1084A8421FEF754FE04E00125E1
:1011100002E0D4E902018847002EDAD0002DD2D0B7
:10112000F8BD0000002900203C200200054940884D
:101130000A88904204D34988884201D80120704728
:10114000002070477428002030B51488E51C9D42AB
:1011500001D90C2030BD02250D5513881C245B1CC1
:101160009BB21380CC5413885B1C9BB21380012864
:1011700007D0022807D0032807D0042807D007206B
:1011800030BD002004E0012002E0CD5401E0032046
:10119000C8541088401C1080002030BD30B58FB07E
:1011A00005461C216846FEF79CF900249DF80000C6
:1011B000019440F00A008DF8000003940494059413
:1011C0000694A87C8DF83A0041F22550ADF838001D
:1011D0000D949DF83400142120F00F00401C20F0E5
:1011E000F00010308DF834009DF8350020F0FF003D
:1011F0008DF835009DF8360020F00600801C20F0A8
:1012000019008DF8360007A8FEF76BF90EA80790B5
:101210000DA808900120ADF82400ADF82640ADF8E7
:1012200028000B9416B130460FB030BD2888AB1C97
:1012300007AA6946A2DFF7E74FF4003009B1034976
:1012400001E00249091D08607047000008050050D0
:101250000348017AC90702D00078FFF7C7BB70477F
:101260002C2800202DE9F04726484FF00009804641
:101270004578D0F810A038E0D8F80C0000EBC5068F
:1012800034782FE004EB44017068641C00EBC1006B
:10129000B178E4B2A14200D100240178022902D041
:1012A00003291FD115E04068D8F8081000EBC002F0
:1012B00001EB8207397DA9B100F0DAFC87F81490C0
:1012C00010E000BF00EBC00002EB80000375006A75
:1012D00004E0D8F80820D8F810004B46471CF1D19C
:1012E000C8F810007078A042CCD16D1EEDB2C3D208
:1012F000D8F81010514502D00120BDE8F087002039
:10130000FBE70000DC2800202DE9F04704463D48BB
:10131000002781464678D0F810A067E0D9F80C1075
:1013200001EBC6055CE0601C08D02246D9F8080035
:1013300004EBC20100EB8100046A2FE028786968A1
:1013400000EB4002401CC0B201EBC2012870AA7839
:10135000904200D12F704A68D9F808C002EBC20051
:101360000CEB800091F800C0BCF1010F3AD190F86D
:1013700014C0BCF1000F35D1D1F808C0C0F808C0C6
:10138000D1F80CC0C0F80CC0D1F810C0C0F810C023
:101390004969C16199F8051001B187608368D9F87E
:1013A00014C0DFF86480A3EB0C0121F07F414145BC
:1013B00002D2C368194407E0ACEB0301C36821F013
:1013C0007F418B4202D9591A416000E04760876033
:1013D0000121C7600175891E0162104600F012FCF0
:1013E000601CA0D12878697888429CD1761EF6B21C
:1013F00094D2D9F81010514502D00120BDE8F087F1
:101400000020FBE7DC280020FFFF7F0088B03C487D
:10141000052200903B4B11460020FEF707FE18B155
:10142000394A8621FEF7C6FCFFF7D8F9002240F6BC
:10143000CD410320FFF788FA20B1334A40F2392129
:10144000FEF7B8FC314A0A210820FEF779FD20B1E9
:101450002D4A40F20E21FEF7ADFCFFF7CDFDFEF761
:1014600005FC2B48009029486946B030FFF770F919
:1014700018B1254AC921FEF79DFC1C216846FEF7DC
:1014800030F800204FF42031CDE900014FF47021F5
:10149000029103218DF80C10ADF80E008DF81000AC
:1014A0001C4805901C4806906846FFF79FF820B13D
:1014B000154A40F20D11FEF77DFC1848017821F025
:1014C0001E0141F001010C3121F0200101700721C2
:1014D0004170102181700320FEF79CFF20B110A203
:1014E00040F25921FEF766FC40F22E24FEF718FD6B
:1014F00048DF0028FAD0044A2146FEF75BFCF5E7F6
:10150000150002001829002004190200342C0020C4
:1015100039120200F91902008D0E0200062800207F
:101520002E2E5C2E2E5C2E2E5C6D61696E2E63005D
:1015300070B5144682880E4605462088111D014468
:10154000921C994201D8FE2A01D90C2070BD521C70
:1015500032542088FF21401C80B2208031542088E2
:10156000401C80B220808119288800F047FC218827
:10157000084480B22080AA8842B1A96841B13044B1
:10158000FDF796FF2088A98808442080002070BDC0
:10159000072070BDF8B50E460178144605460129AE
:1015A00001D1687830B12088821C9A422DD8012957
:1015B00002D006E00720F8BD69780144891C9942F1
:1015C00023D8181A801E87B2ADF800702188B01C8D
:1015D000084469467DDF0028EDD12878022805D12E
:1015E000BDF80010B94201D809210AE008210128FC
:1015F00005D16878B84202D8ADF8000001E0ADF836
:101600000070BDF80000FE2801D90C20F8BD22882A
:10161000401CB0542088401C80B220803154208867
:10162000401C2080BDF80010084420800020F8BD38
:101630004907090E002806DA00F00F0202F1E02245
:1016400082F8141D03E000F1E02282F8001400F09B
:101650001F02012191404009800000F1E020C0F804
:101660008012C0F8001170472DE9F0410E46054682
:1016700000F0E4F901240028284619D0FFF766FBA2
:101680001B490838084490F854008009032802D008
:10169000012805D006E017480068AC40204201D17F
:1016A000022100E003212846BDE8F04100F0CDB85A
:1016B00000F0D0F9002818D02846FFF747FB054670
:1016C0000D4F4FF4807007EB850100EB8500D1F8DA
:1016D000102580B242F00102C1F8102500F0C4F8D4
:1016E000002E02D0AC40C7F80443BDE8F0810000F2
:1016F0002C2E002010050050006000402DE9FC4118
:10170000DFF8A480044608EB0400002790F93400B9
:101710001346C0170E46401C01D0082740E0F2785F
:1017200019462046FFF7ECFA0546401C37D0B07842
:1017300048B1A00000F1A040D0F8001721F002014C
:10174000C0F8001707E000217378204600910A4690
:10175000019100F069F8F078C0B11448317800EBDD
:101760008500D0F81025124B1A40C0F810254FF410
:10177000F8524FF4403302EA042203EA01410A43DB
:10178000D0F810150A43C0F8102509E008EB050051
:10179000327810F84C1F41EA8211017000E00427F2
:1017A0003846BDE8FC8100002C2E0020006000407F
:1017B000FFE0FCFF03490968C14011F0010000D0BF
:1017C000012070471005005070B5114D287808B100
:1017D000082070BD0020411E2A18401CC0B282F8AB
:1017E00034102028F8D300242046FFF77BFA641C2D
:1017F000E4B20C2CF8D301210620FFF719FF0549AC
:101800004FF00040C1F8040301202870002070BD93
:101810002C2E00200060004002480078002800D0F4
:10182000012070472C2E002030B541EA4201DDE94D
:10183000034541EA8301800041EA042100F1A04010
:1018400041EA0541C0F8001730BD800000F5E060B6
:1018500000F1A040026822F440320260026842EACD
:101860000141016070470000034908B508440021A8
:1018700001600068009008BD0060004002494058C7
:10188000012800D000207047006000404058002828
:1018900000D0012070474058002800D00120704738
:1018A00010B550B1032824D10220FFF741F80028D9
:1018B0001FD010A24FF49F7117E00020FFF738F8F7
:1018C00020B110A24FF49271FEF774FA0120FFF7D5
:1018D0007BF920B10BA24FF49471FEF76BFA3CDF59
:1018E000002806D007A24FF49671BDE81040FEF71D
:1018F00061BA10BD2E2E5C2E2E5C2E2E5C6D6169A1
:101900006E2E63002E2E5C2E2E5C2E2E5C6D616979
:101910006E2E630070B5324D044601882888142964
:1019200035D010DC10291CD0112926D0132923D141
:10193000AA1D05F1140300217FDF00281CD029A275
:101940004FF4C07146E017291AD0522914D103234D
:1019500000221146A9DF00280ED022A24FF4C47144
:1019600038E00720FEF7E4FF20B11EA24FF4B1716A
:10197000FEF720FAA088288070BD4FF6FF70FAE7C6
:10198000D4F8060045F80B0F6089A88070BD0A22C4
:10199000184904F10E00FDF7AFFDF8B10020104921
:1019A0000B310B7913EA000101D012491239C3F34C
:1019B0004002024001D00F4A0A32C3F380030340C1
:1019C00001D00C4B2133288882DF0028DED005A20D
:1019D0004FF4CD71BDE87040FEF7ECB90120DEE7B1
:1019E000002800202E2E5C2E2E5C2E2E5C6D616950
:1019F0006E2E6300BA2B00200078002809D105481C
:101A00003B21008876DF002803D003A2EB21FEF7FC
:101A1000D1B97047002800202E2E5C2E2E5C2E2E71
:101A20005C6D61696E2E63000021425C0AB1012089
:101A30007047491C0629F8D3002070470449084420
:101A400090F93400082801DB01207047002070471E
:101A50002C2E00200449084490F93400082801D2B3
:101A600001207047002070472C2E0020064909797C
:101A7000490701D40820704720B104494978016022
:101A8000002070470E207047842800209C2E0020E4
:101A900070B5012670044FF0E0210025C1F88001E7
:101AA000084C4010C4F84803C4F8080366602F20AF
:101AB000FDF7B0FCA660044C2F206561FDF7AAFC81
:101AC000257170BD00100140DC280020064800216F
:101AD000C0F80811D0F818150448037DC268D15425
:101AE000017D491C0175704700200040842E0020B4
:101AF0001FB501218DF8080005488DF80010C16858
:101B000001910021C174D0E90012684690471FBDC1
:101B1000842E00202DE9F0410746806A144688464D
:101B2000C8B3002531E000BFB96A05EB450001EB01
:101B30008006B088801CFE2802D90C20BDE8F08108
:101B40002288401C08F8020020881622401C80B21F
:101B5000208008F800202088401C80B2208000EB04
:101B60000801308800F04AF92188084480B22080BA
:101B7000B28842B1B16871B14044FDF799FC208848
:101B8000B188084420806D1CEDB297F82C00A84263
:101B9000CAD80020D2E7FFE70720CFE710B50846F4
:101BA0001146AFF3008010BD18B10349C860002092
:101BB00070470E20704700000029002070B509B161
:101BC0008C0701D0072070BD064C0125A160628002
:101BD0000549636010DF0028F5D1257016202EDF3F
:101BE00070BD0000002900209D1B020018B10349B0
:101BF0000861002070470E20704700000029002077
:101C0000FEF7E6BBF0B5194C00EBC001A36803EB8F
:101C1000810521694A1C0AD001EBC10603EB860746
:101C20006A687E68B24204D8B21A7A60296220617A
:101C3000F0BD0C4602E00C46316AD21B4E1C0DD0A2
:101C400001EBC10703EB870677689742F3D301EBFB
:101C5000C10603EB86067768BF1A77606A6029625F
:101C600004EBC40103EB81010862F0BDDC28002015
:101C700070B51C4B1A699C681546114607E08142F5
:101C800008D00A4601EBC20604EB8601096A4E1C25
:101C9000F5D170BD002EFCD08A420DD105EBC500F8
:101CA00004EB8000006A1861401C05D10E4D012034
:101CB000A86000255D61587101EBC10004EB800054
:101CC00002EBC202416804EB8202006A1062421C0D
:101CD000DFD000EBC00004EB80004268114441609B
:101CE00070BD0000DC280020001001402DE9F0410B
:101CF0001F4C2569681C38D01E48002601686069A1
:101D0000081A20F07F4719E0A16805EBC50001EB38
:101D100080025068B84213D8156AA3693F1A064476
:101D20004BB1D2E90601984740B113A24FF4B67106
:101D3000FEF740F802E0D2E906108847681CE3D1BC
:101D4000A178E078814206D1401CC0B2E070022840
:101D500001D10020E0700648E1781C3040F8216095
:101D6000BDE8F0411420FDF787BCBDE8F08100001C
:101D7000DC280020041501402E2E5C2E2E5C2E2E19
:101D80005C2E2E5C2E2E5C2E2E5C636F6D706F6E43
:101D9000656E74735C6C69627261726965735C74A0
:101DA000696D65725C6170705F74696D65722E63D8
:101DB00000000000064A0020C2F81C010548038A02
:101DC0008168C95C038A5B1C0382C2F81C157047DA
:101DD00000200040842E00201FB500218DF808004F
:101DE00005488DF80010826801928174D0E90012D4
:101DF000684690471FBD0000842E00200870000A2E
:101E0000487002207047000038B515494888A0F591
:101E10007F42FF3A23D04A78124C521CD2B24A7009
:101E2000237B93420AD3083175DF002817D0A169BC
:101E3000002914D001B0BDE83040084700254D709E
:101E4000217C29B13B2176DF10B1A16901B188471E
:101E50006169002903D08DF800506846884738BD75
:101E60006C280020102E00200F480068C005C00D0F
:101E700013D0103840B2002806DA00F00F0000F14D
:101E8000E02090F8140D03E000F1E02090F8000449
:101E90004009012803D0032803D002207047002006
:101EA000704701207047000004ED00E0427883781D
:101EB000521C934200D100220378934201D10020AA
:101EC00070470A604168407800EB400001EBC000B9
:101ED00070472DE9FC411646DDE90854CDE9005470
:101EE0001F468046022200F00CF8002807D1CDE9F9
:101EF00000543B4610223146404600F002F8BDE84F
:101F0000FC812DE9FC5F0026DDE90C4B99469246E9
:101F10008E4680462788354630E0D8F804000022F7
:101F200000EB850069460068019001A865DF002884
:101F300030D19DF8000050451FD10EB1002100E0C6
:101F40000221228808441118594522D846B9521C4A
:101F500090B2208009F800E02088401C20800126F3
:101F6000218801A801EB0902694665DF002811D12B
:101F700020889DF80010084420806D1CB8F80000EF
:101F8000A842CADC56B12088C01B401E80B2FF2880
:101F900002D90C20BDE8FC9F09F807000020F9E7F2
:101FA000017911B9007B002800D0012070470000A2
:101FB000231500000D0000000E0000000F000000BF
:101FC000100000000D000300490802000E0003008D
:101FD000490802000F000300490802001000030036
:101FE000490802000300000023D1BCEA5F782315F2
:101FF000DEEF1212000000002E2E5C2E2E5C2E2E24
:102000005C2E2E5C2E2E5C2E2E5C636F6D706F6EC0
:10201000656E74735C6C69627261726965735C731E
:1020200063686564756C65725C6170705F7363682A
:102030006564756C65722E63000000002E2E5C2EA8
:102040002E5C2E2E5C2E2E5C2E2E5C2E2E5C636F54
:102050006D706F6E656E74735C736F6674646576B5
:102060006963655C636F6D6D6F6E5C736F667464DE
:1020700065766963655F68616E646C65725C736FD9
:1020800066746465766963655F68616E646C6572C9
:102090002E630000B4200200002800201801000078
:1020A0004CFA0100CC21020018290020F82700007A
:1020B0005CFA0100FFFF0F180100000000000000A3
:1020C0000000000000000000A82B0020C42B00200E
:1020D000DB2B0020000000000000000000000000DA
:1020E00000000000000000000000000000000000F0
:1020F00000000000000000000000000000000000E0
:102100000000000000000000FFFF000000000000D1
:1021100000000000000000000000000000000000BF
:1021200000000000000000000000000000000000AF
:10213000000000000000000000000000000000009F
:10214000000000000000000000000000000000008F
:10215000000000000000000000000000000000007F
:10216000000000000000000000000000000000006F
:10217000000000000000000000000000000000005F
:10218000000000000000000000000000000000004F
:10219000000000000000000000000000000000003F
:1021A000000000000000000000000000000000002F
:1021B000000000000000000000000000000000001F
:0C21C00000000000000000000090D003B0
:040000050001F40101
:00000001FF
