:020000040001F9
:10F00000285100208DF4010095F4010097F40100CF
:10F0100099F401009BF401009DF401000000000040
:10F020000000000000000000000000009FF401004C
:10F030000000000000000000A1F40100A3F40100A2
:10F04000A5F40100A5F40100C5F80100A5F4010034
:10F05000A5F40100A5F4010075F50100A5F4010077
:10F06000A5F40100A5F40100A5F40100A5F4010038
:10F07000A5F40100A5F40100A5F40100A5F4010028
:10F08000A5F4010031F70100A5F40100A5F4010089
:10F0900065F70100A5F401006DF70100A5F401007A
:10F0A000A5F40100A5F40100A5F40100A5F40100F8
:10F0B000A5F40100A5F4010000000000000000001C
:10F0C000A5F40100A5F40100A5F40100A5F40100D8
:10F0D000A5F40100A5F401000000000000000000FC
:10F0E0000000000000000000000000000000000020
:10F0F0000000000000000000000000000000000010
:10F1000000000000000000000000000000000000FF
:10F1100000000000000000000000000000000000EF
:10F40000DFF80CD000F086F80048004741210200E8
:10F4100028510020401E00BF00BF00BF00BF00BF3A
:10F4200000BF00BF00BF00BF00BF00BF00BF00BFE4
:10F4300000BF00BF00BF00BF00BF00BF00BF00BFD4
:10F4400000BF00BF00BF00BF00BF00BF00BF00BFC4
:10F4500000BF00BF00BF00BF00BF00BF00BF00BFB4
:10F4600000BF00BF00BF00BF00BF00BF00BF00BFA4
:10F4700000BF00BF00BF00BF00BF00BF00BF00BF94
:10F4800000BF00BF00BFC5D17047000006488047DD
:10F4900006480047FEE7FEE7FEE7FEE7FEE7FEE779
:10F4A000FEE7FEE7FEE70000B5F7010001F401000A
:10F4B00040EA01039B0703D009E008C9121F08C0F6
:10F4C000042AFAD203E011F8013B00F8013B521E76
:10F4D000F9D27047D2B201E000F8012B491EFBD2ED
:10F4E00070470022F6E710B513460A46044619464F
:10F4F000FFF7F0FF204610BD30B50446002003465C
:10F5000000E05B1C934203D2E05CCD5C401BF8D072
:10F5100030BD0000064C074D06E0E06840F00103F6
:10F5200094E8070098471034AC42F6D3FFF76CFF1D
:10F53000603602008036020030B58C1810F8012BBE
:10F5400012F00F0301D110F8013B120906D110F897
:10F55000012B03E010F8015B01F8015B5B1EF9D1A0
:10F5600001E001F8013B521EFBD1A142E6D300208D
:10F5700030BD00002DE9FE4F0026B1464FF48070EB
:10F5800002900125002414E0029803F017F850B10E
:10F59000012101FA04F046490968014019B10298B5
:10F5A00002F0FEFF2E436D000298001D80B2029013
:10F5B000641C082CE8D34FF4BE7002F0FFFF48B182
:10F5C0004FF4BE7002F0ECFF46F0004600BF394831
:10F5D0000068814606F00F00F8B1012500241AE00A
:10F5E00005EA0600A8B100BF334850F82400C0F374
:10F5F0000420074600BF304850F82400C0F3014003
:10F600008046204601F0ACFF824641463846D0474E
:10F6100000BF6D00641C082CE2D306F000400028F7
:10F6200044D0002440E0204603F0A4F982462AF0AA
:10F63000C0074FEA9A100190012000FA07F53846FA
:10F6400003F0ACF978B3384601F0D2FF804601F000
:10F6500087FF8346BBF1000F24D000BF174850F846
:10F660002700C0F30140804605EA090010B1B8F157
:10F67000020F05D005EA090098B9B8F1030F10D1BF
:10F68000019803280AD1B8F1020F00D100E002204E
:10F6900000903846009902F06BFF00BF3846019990
:10F6A000D84700BF00BF641C042CBCD3BDE8FE8F4C
:10F6B0000463004010050050106500400007005032
:10F6C00000F01F0201219140024A430942F8231031
:10F6D0007047000080E200E000F01F02012191402D
:10F6E0004209920002F1E022C2F8001170470000C6
:10F6F00000F01F0201219140024A430942F8231001
:10F700007047000000E200E010B5002807DA4A0761
:10F71000140E054A00F00F031B1FD45403E04A07E0
:10F72000130E024A135410BD18ED00E000E400E08F
:10F7300010B500200949086000210948C0F84411AB
:10F74000C0F84811C0F84C1100200549C1F800016B
:10F7500002493C39086003F0F9FC10BD401101403A
:10F760000010014010B503F093FB10BD70B50B48BD
:10F77000006880B1094800688047044600BF2546FC
:10F780003DB100BF064A40F23111284600F03AFB75
:10F7900000BF00BF01E002F095FA70BD14290020FF
:10F7A0000836020001480249086070470090D00303
:10F7B0002C29002010B502F0D1F828B13948006892
:10F7C000C0F342303849086002F004F928B13748E4
:10F7D000006820F080703549086002F019F948B1DE
:10F7E0000020334908604FF08041C1F810012E49D4
:10F7F000091F086002F048F918B103202A49643152
:10F80000086002F05FF929487438006840F470001D
:10F81000264974390860BFF34F8FBFF36F8F2548B7
:10F82000006800F0004028B92248001D006800F080
:10F83000004098B301202049086000BF1F480068BD
:10F840000028FBD015201B49086000BF1B4800683A
:10F850000028FBD015211748001D016000BF174884
:10F8600000680028FBD000201349086000BF13483F
:10F8700000680028FBD000BFBFF34F8F0B48F03863
:10F88000006800F4E0600E490843001D0749F039A4
:10F890000860BFF34F8F00BF00BFFEE7FFE7FFF731
:10F8A00081FF10BD440200103C050040FCED00E06B
:10F8B0000C0100400012001004E5014000E401408A
:10F8C0000000FA051FB57648C07D002868D04FF4C7
:10F8D0009271744802F0A0FEE8B14FF49271714841
:10F8E00002F0A1FE02208DF800006E4802F08EFEAC
:10F8F00003906C4802F09AFEC1B28DF80810684877
:10F90000C068019000206649C874084601684268D2
:10F910006846904716E04FF48871624802F07CFE1A
:10F9200080B14FF488715F4802F07DFE5D4802F0BF
:10F930007DFEC4B25A48C07CA04202D1204603F0EA
:10F94000F5F800BF4FF4A271564802F065FE70B1A1
:10F950004FF4A271534802F066FE5148C07C30B1AA
:10F96000504802F063FEC4B2204603F0DFF84FF4C3
:10F9700090714C4802F050FE002810D04FF4907166
:10F98000484802F050FE4648807C0028F5D04548A3
:10F9900040F24C510958CCB2204603F093FC7EE073
:10F9A0004FF492713F4802F021FE30B34FF4927150
:10F9B0003C4802F022FE4FF401713A4802F020FE6A
:10F9C0003748407D18B90421364802F01CFE022059
:10F9D0008DF80000334802F003FE03903048C17CEC
:10F9E0008DF80810C068019000202D49C8740846A1
:10F9F00001684268684690471DE04FF484712948C9
:10FA000002F0F4FDB8B103F075F82548C07C244934
:10FA1000097D88420FD12248407D18B90421214830
:10FA200002F0F1FD4FF401711E4802F0E9FD1C499E
:10FA3000087D03F07BF84FF48E711A4802F0D6FD72
:10FA4000A0B11748807C1649098A884202DD03F07C
:10FA50001DFC0BE04FF48E71124802F0CEFD1048F1
:10FA6000807C18B10E49887C03F02CFC4FF4A27105
:10FA70000C4802F0BBFD90B14FF4A271094802F0AE
:10FA8000BCFD0748407D18B10021064802F0BBFDCF
:10FA90000348C07C18B10249087D03F047F81FBD38
:10FAA0009C2E00200020004002E008C8121F08C160
:10FAB000002AFAD170477047002001E001C1121FEF
:10FAC000002AFBD170472DE9FC41044688461646C2
:10FAD0000025378800203080606B58B1616B087852
:10FAE0003B463246414603F057F8054615B12846D5
:10FAF000BDE8FC81206B48B13B4632464146206B55
:10FB000003F0A1FB05460DB12846F1E794F82E005D
:10FB100050B194F82E003B463246414602F03CF983
:10FB200005460DB12846E3E794F82D0040B13A466A
:10FB30003146404600F069FF05460DB12846D7E73B
:10FB4000A07840B13A463146404600F0F7FB054602
:10FB50000DB12846CCE7E07850B1E17848B23B4699
:10FB60003246414602F002F805460DB12846BFE78D
:10FB7000606858B1616891F900003B4632464146E1
:10FB800003F0B6FB05460DB12846B1E720890028F1
:10FB90000CDD43460622022104F10800CDE900678E
:10FBA00003F055FC05460DB12846A1E7208A002840
:10FBB0000CDD43460722032104F11000CDE9006764
:10FBC00003F045FC05460DB1284691E7208B00283F
:10FBD0000CDD43461522142104F11800CDE900671D
:10FBE00003F035FC05460DB1284681E7206A48B18F
:10FBF0003B4632464146206A01F079FD05460DB18B
:10FC0000284675E7606A48B13B4632464146606A1D
:10FC100002F0C8FA05460DB1284669E794F82C00B1
:10FC2000002809DD3B4632464146204602F0EEFF01
:10FC300005460DB128465BE7207848B13B46324681
:10FC40004146204602F0E9FA05460DB128464FE745
:10FC500028464DE70146C87800F0040008B907209F
:10FC600070470020FCE7000030B5A7B021480068CD
:10FC70000A902148807C8DF82A00382119A8FFF7C6
:10FC800030FC02208DF8640001208DF8660006200B
:10FC90008DF867000120ADF8740018491E913821D5
:10FCA0000BA8FFF71EFC0120ADF83C000AA910913B
:10FCB000242101A8FFF715FC01208DF81000402039
:10FCC0000590B420069000200D4B01AA0BA90090CE
:10FCD00019A800F09DFB044600BF25463DB100BFBA
:10FCE00008A240F20521284600F08CF800BF00BFB2
:10FCF00027B030BD7C3502003029002008280020C4
:10FD0000392602002E2E5C2E2E5C2E2E5C6D616933
:10FD10006E2E6300014600BF064A10684FF40022B1
:10FD20008243044B1B1D1A6000F400221B1D1A6045
:10FD300000BF70470405005010B5002407E00749D4
:10FD4000096811F83400012102F002FB641C044828
:10FD500000788442F3D3002010BD0000B4280020B6
:10FD6000B82800202DE9F84306460C461746052F13
:10FD700002D20720BDE8F88302F0DEFB28B902F0CA
:10FD8000B3FB05460DB12846F4E715480660154853
:10FD90000470154807600020144908601449086081
:10FDA00013E006EBC40813480068009098F80200BE
:10FDB0008DF8010098F800000F4A694602F01AFB1E
:10FDC00005460DB12846D5E700BF201EA4F101016C
:10FDD000CCB2E6D1094A0021094800F057F9C9E739
:10FDE000B4280020B8280020BC280020C428002007
:10FDF000C8280020B0350200451C02006D18020022
:10FE0000C0280020F8B506460C4615460C2000F028
:10FE100093FF012000909DF8000006480660064808
:10FE200004600648056072B600BF9DF80000002817
:10FE3000FBD1F8BDCC280020D0280020D4280020F9
:10FE40002DE9F04105460E4617464FF0050800BF64
:10FE50001449087814490978814201D1012100E050
:10FE60000021D9B90F480478007802F035FA0D491D
:10FE700008700E4800680E49098804FB01002860DC
:10FE80000C48006800EBC400808830800948006896
:10FE900050F8340038604FF0000800BF4046BDE81D
:10FEA000F0810000E0280020E1280020DC2800206C
:10FEB000E2280020D82800202DE9F84F07460C46FC
:10FEC00091464B48008884427EDC4FF6FF75002047
:10FED000009000BF47480068C0F3080199B1A1F144
:10FEE000100250B2002809DA424B143300F00F0C14
:10FEF000ACF1040C13F80C305B1102E03E4B1B5CC0
:10FF00005B11D8B200E004208246BAF1010F15D08F
:10FF1000684636DF8046B8F1020F01D172B60CE0B8
:10FF200000BFC346BBF1000F06D000BF334A6621B5
:10FF30005846FFF767FF00BF00BF00BF00BF304853
:10FF400090F800802F48007802F0C6F9404501D1B2
:10FF5000012000E0002030B92A480578007802F03E
:10FF6000BBF928490870BAF1010F15D062B69DF8A7
:10FF7000000037DF8046B8F1020F0CD000BFC34647
:10FF8000BBF1000F06D000BF1C4A6E215846FFF798
:10FF900039FF00BF00BF00BF4FF6FF70854220D081
:10FFA0001948006840F835909FB1002C11DD1749C1
:10FFB00009680F4A128805FB021022463946FFF7EE
:10FFC00077FA1148006800E00DE000EBC50084807E
:10FFD00005E000200C49096801EBC5018880002676
:10FFE00000E0042600E009263046BDE8F88F000056
:10FFF000E228002004ED00E000E400E0C435020047
:020000040002F8
:10000000E0280020E1280020D8280020DC2800205B
:100010000EB504E0BDF80410009A029890476A46B5
:1000200001A902A8FFF70CFF0028F3D00EBD0000C5
:1000300030B50346481C4FF6FF7505EAC00410466C
:1000400000F003050DB9012500E000250DB90720DA
:1000500030BD084802601019074D28600020074D88
:100060002870074D2870074803800748018000204A
:10007000EEE70000D8280020DC280020E12800203E
:10008000E0280020E2280020E428002070B5034684
:100090000C461948006808B9082070BD0AB9072045
:1000A000FBE70BB90720F8E700211FE001EBC100D7
:1000B000114D2D6815F82000B8B9012001EBC105DC
:1000C0000D4E366806F8250001EBC1000A4D2D687B
:1000D00005EB8000447001EBC100074D2D6805EB76
:1000E0008000826119600020D7E7491C034800782E
:1000F0008142DBDB0420D0E7EC280020E828002048
:100100002DE9F04104460D46264600BF082D01D1D9
:10011000012000E00020074637B900BF05A21421E6
:100120000020FFF76FFE00BF00BFD6E90010884730
:10013000BDE8F0812E2E5C2E2E5C2E2E5C2E2E5CC9
:100140002E2E5C2E2E5C636F6D706F6E656E7473F9
:100150005C6C69627261726965735C74696D657209
:100160005C6170705F74696D65725F6170707368F7
:100170002E6300007CB504460D4600940195034AA9
:1001800008216846FFF798FE7CBD000001010200CF
:100190002DE9F04780460E4617461C46DDF82090B4
:1001A000204600F0030109B9012100E0002111B946
:1001B0000720BDE8F0870CB90720FAE702F06EFCD3
:1001C0002848C0F800902848067028480460002598
:1001D0000EE0002005EBC501244A126802F8210058
:1001E00005EBC501214A126802EB810108756D1CFF
:1001F000B542EEDB06EBC60004EB800403201C498D
:1002000008701C480460183400250DE0194909687D
:1002100001EBC5000021017041708770446007EB5D
:10022000470104EBC1046D1C032DEFDB4FF0FF30E1
:100230001149086000201149087011490870142004
:10024000FFF73EFA03211420FFF75EFA1420FFF7B0
:1002500043FA404602F0F8FB02F0F0FB094908605F
:100260000020A6E70C290020E8280020EC28002028
:10027000F0280020F4280020F82800200829002079
:1002800009290020FC2800202DE9F84304460D46EA
:1002900016461748006810B90820BDE8F8831548CD
:1002A0000078844201D2052D01D20720F5E704EB46
:1002B000C4000F49096811F82000012801D0082066
:1002C000EBE704EBC4000A49096801EB80004078C1
:1002D000012801D1284600E00020074603F072F80B
:1002E00080463B462A462146009602F0E5FED4E7CA
:1002F000EC280020E828002070B504460D4800686E
:1003000008B9082070BD0C480078844201D307204A
:10031000F8E704EBC4000749096811F82000012838
:1003200001D00820EEE703F04DF80546214602F023
:10033000EFFEE7E7EC280020E8280020F8B50546A6
:100340000C4617462088001DB84201D90C20F8BD84
:10035000684679DF06460EB13046F8E7032021886B
:1003600068542088401C20801920218868542088E7
:10037000401C208020884119BDF8000002F0D3FF06
:100380002188084420800020E1E72DE9F04192B067
:1003900080460D461F2011901090B8F1000F13D029
:1003A0004046FFF757FC04461CB1204612B0BDE89A
:1003B000F08111AA08A94046FFF785FB04460CB15D
:1003C0002046F3E708AE02E00026002011908DB130
:1003D000284602F00FFD04460CB12046E6E710AABD
:1003E00069462846FFF76FFB04460CB12046DDE75F
:1003F0006F4602E0002700201090BDF84000C3B215
:10040000BDF84400C1B23A46304672DFCEE7000084
:100410002DE9F04704460F4615461E46DDF82080BC
:1004200004B115B90E20BDE8F087002046490870D8
:10043000464806604648C0F80080242229464548C0
:10044000FFF736F800F03EF9434844490860444855
:10045000886038214348FFF744F820784149087004
:10046000A0788870E078C870607848700846D4E951
:100470000412C0E90412D4E90212C0E90212D4E95C
:100480000612C0E90612606AD8B137483549486299
:1004900036498160606A00883249496A0880606A2A
:1004A00080883049496A8880002005E0616A89684F
:1004B000095C2E4A1154401C2A49496A89888142A4
:1004C000F4D8A06A20B32A492A4881602549886265
:1004D00027492448806A8160A06A80882149896A06
:1004E0008880A06A00881F49896A0880002005E08A
:1004F000A16A8968095C1E4A1154401C1949896A1D
:1005000089888142F4D894F82C00164981F82C008F
:10051000206A58B1184813490862206A4088096A5D
:100520004880206A00880F49096A0880606820B105
:1005300012480C4948606068486039460948FFF72E
:1005400024FF814648466EE7642800205C2800208E
:10055000602800205C2D0020902D0020802D0020A0
:10056000B02D0020242D0020D02D0020DC2D0020D7
:10057000082E0020FC2D0020682800206C28002078
:1005800070B504462088102804D0112809D01928F5
:1005900063D11BE0207D012802D1A088304908806A
:1005A0005CE000202F490870A0882D490988884206
:1005B0000BD1012000F08EF8054635B12A480068BD
:1005C00018B1284628490968884747E0A0790028DB
:1005D00042D126480078012806D0022811D00328ED
:1005E0001CD0042836D129E0022000F073F805461B
:1005F00035B11D48006818B128461B49096888476D
:1006000029E0032000F066F8054635B11648006879
:1006100018B128461449096888471CE0032014498A
:100620000870042000F056F8054635B10E48006801
:1006300018B128460C49096888470CE000200C498D
:1006400008700C48006820B108460078094909681C
:10065000884700E000BF00BF00E000BF00BF70BDE2
:100660006E280020652800206028002064280020D3
:10067000582800205C28002070B504460025022C74
:1006800002D0032C15D100E000BF0B48007878B1F0
:100690000020094908700948007800F01BF8054659
:1006A00035B10748006818B12846054909688847E8
:1006B00000E000BF00BF70BD50280020642800206B
:1006C000602800200248002101608180817170470C
:1006D0005128002030B587B00546954805700020A8
:1006E0000090684602F094F90446082C02D10020DC
:1006F000009003E014B1204607B030BD009820B14F
:1007000001208C4908700020F6E7FFF7DBFF8A48DC
:10071000407818B186480078012806D0864880784D
:1007200088B18348007802280DD18448006838B128
:10073000012083490870082080490968884702E041
:1007400000207F4908707A480078012809D17A484A
:10075000407818B17B4802F001F910B902207449C1
:10076000087073480078022809D17348807818B15E
:10077000744802F0F3F810B903206D4908706E4810
:10078000007B30B96A480078032802D10420684908
:1007900008706948007E40B965480078042804D193
:1007A0000020634908706849087064480068A8B16F
:1007B0005F480078032803D05D48007804280DD1F5
:1007C0005D48007850B16148007838B9012060492F
:1007D0000870072059490968884702E000205C49F1
:1007E0000870182101A8FEF77CFE00208DF8040097
:1007F00002908DF80C0004904D480078012806D036
:10080000022813D0032825D004287CD14EE04D487F
:10081000401E029001208DF804000020ADF8160063
:10082000ADF814000120484908706DE04548401EAD
:10083000029001208DF804003F48008980B2ADF895
:1008400016003D48808880B2ADF8140002203E4971
:10085000087059E03848808A80B2ADF816003648F2
:10086000008A80B2ADF814003A4802F07DFEC8B1AB
:1008700031480078B0B13548007898B902208DF839
:100880000C003448049004203349C87000213248D9
:10089000FFF77BFD04460CB120462DE705202A49D1
:1008A000087002E00320284908702DE02248808B60
:1008B00080B2ADF814002048008C80B2ADF816006C
:1008C000244802F051FED0B11B480078B8B11F484F
:1008D0000078A0B902208DF80C001E480490042076
:1008E0001D49C87000211C48FFF74FFD044614B194
:1008F000204601E707E006201349087002E00420C3
:100900001149087000E000BF00BF0948007828B115
:1009100001A873DF04460CB12046EDE607480068E5
:1009200020B1094800780549096888470020E3E6B6
:1009300064280020502800205C2D00205C28002026
:100940006728002052280020582800206528002011
:1009500066280020802D0020242D002070B505463B
:100960001C2229461248FEF7A3FD002011490870F9
:10097000286850B1104829680A68026049684160D7
:100980007ADF04463CB1204670BD0B487BDF04464D
:100990000CB12046F8E74FF6FF70084908800020A8
:1009A00007490870074A00210748FFF76FFBEBE78C
:1009B000282E002088280020702800207A28002077
:1009C00078280020353302008428002010B5044622
:1009D0002088102806D0112808D012280ED05028C0
:1009E00010D107E0204601F035FF0CE0204601F071
:1009F00053FF08E0204601F073FF04E0204601F0B9
:100A00001BFF00E000BF00BF10BD2DE9FC41054603
:100A10000C46174620880930B84202D90C20BDE8A0
:100A2000FC81684671DF06460EB13046F7E70820C4
:100A3000218868542088401C20801B20218868540D
:100A40002088401C208020882844DDF801100160A7
:100A5000BDF8051081802088801D20809DF8000051
:100A600018B900202188685402E0012021886854C8
:100A70002088401C20800020D1E7000010B50446EB
:100A8000204601F0FDFD2046FFF7A0FF2046FFF7BE
:100A900077FD2146014800F03BF810BD30290020C9
:100AA00070B586B004460E46184B0FCB02AD0FC58D
:100AB0004FF6FF70A0823068A06104F1120102A815
:100AC00063DF054615B1284606B070BDA07C8DF8E1
:100AD000060041F22350ADF80400224601A901208E
:100AE000A0DF05460DB12846EEE7204600F07CFC6D
:100AF00005460DB12846E7E7204601F082F9054694
:100B00000DB12846E0E70020DEE70000B435020022
:100B100070B505460C462088102804D0112807D04F
:100B200050280FD109E02146284601F0B1FE0AE025
:100B30002146284601F0D0FE05E02146284601F076
:100B4000FBFE00E000BF00BF70BD00007CB500BF31
:100B5000002348222349082002F010F9054600BF6F
:100B60002E463EB100BF20A240F2CF113046FFF723
:100B700049F900BF00BF00BF002000900190019024
:100B80008DF80000684660DF044600BF25463DB191
:100B900000BF15A24FF4ED712846FFF733F900BFEF
:100BA00000BF154802F0E0F8044600BF25463DB1FD
:100BB00000BF0DA240F2DF112846FFF723F900BF66
:100BC00000BF0E4802F00CF9044600BF25463DB1B7
:100BD00000BF05A240F2E3112846FFF713F900BF5A
:100BE00000BF7CBD202C00202E2E5C2E2E5C2E2ED5
:100BF0005C6D61696E2E63007D0A0200032E0200A7
:100C00002DE9F04105460F464FF00008002400E0B2
:100C1000641C042C04D22A4850F82400A842F7D1BE
:100C2000042C41D227B3012F02D0022F3BD133E055
:100C300004EB4400234911F8008004EB440008440D
:100C4000407868B12048006800EB800041001F4AEE
:100C50001F480068FFF718FB06460EB91B480570D1
:100C600004EB44001749084480781A4908551AE0F3
:100C700017480068FFF740FB1648005D04EB44018D
:100C8000104A11448978884205D104EB440011468A
:100C9000084490F8028006E004EB44000949084447
:100CA00090F8018000BF00BFB8F1000F06D00A48DD
:100CB000006818B14046084909688847BDE8F081D6
:100CC00080350200182D0020302800204828002000
:100CD00044280020492800204028002030B5034641
:100CE0000020042B23D2012A07D1012903D103F1CB
:100CF0000D04E4B200E00024224679B1012902D0BB
:100D0000022911D104E003EB43040A4D2A550DE0FA
:100D100003EB4304074D2C44627007E003EB4304EC
:100D2000044D2C44A27001E0072000BF00E0072022
:100D300030BD0000182D002070B504460025054880
:100D4000007800F0010018B1204600F06DF805466B
:100D5000284670BD342800202DE9F04105460E4696
:100D60009046002425480660254805602548C0F8BF
:100D7000008005F00200F8B1002706E001221146CC
:100D80003846FFF7ABFF04467F1C042F01D2002C2E
:100D9000F4D02CB9720804211B48FEF7E3FF044687
:100DA00014B9FEF7C9FF04462CB9184A00211848A7
:100DB000FFF76CF9044600BF05F0010068B100BF01
:100DC0004FF4F010134908600020091D086000BFAF
:100DD0004FF4F0100F49103108602CB90E4A002171
:100DE0000E48FFF753F904462CB90D4A01210D486E
:100DF000FFF74CF904462046BDE8F081302800207A
:100E000034280020402800209035020031150200CF
:100E10004428002008050050251F02003828002023
:100E200015FD01003C2800202DE9F0410446002674
:100E30000025182C7ED2DFE804F00C18195EA4FD02
:100E4000FBFAF9F8F7F6F5F4F3F2F1F0EFEEEDEC6A
:100E5000EBEA00BF4FF4B010FE4908600020091D06
:100E6000086000BFFC4804706FE200BF00BF4FF491
:100E7000A010F84908600020091D086000BFF5486F
:100E8000001F006880F4F01000F4003088B100BF4B
:100E90004FF40030091F08600020091D086000BFE2
:100EA000022C02D14FF4E16001E04FF47A60054674
:100EB00010E000BF4FF40030E649091D0860002033
:100EC000091F086000BF022C01D1C82001E04FF4C7
:100ED000C8700546E04804706420B5FBF0F0DF49B7
:100EE000096800FB01F700223946DD480068FFF77A
:100EF000CBF9064629E200BF4FF4A010D54908609F
:100F00000020091D086000BFD248001F006880F45F
:100F1000F01000F4003090B100BF4FF40030091F12
:100F200008600020091D086000BF032C03D14FF4A6
:100F3000487002E008E24FF47A60054610E000BF16
:100F40004FF40030C349091D08600020091F0860E4
:100F500000BF032C01D1C82001E04FF4C870054642
:100F6000BD4804706420B5FBF0F0BC49096800FB83
:100F700001F700223946BA480068FFF785F90646AE
:100F8000E3E100BF4FF4A010B24908600020091D42
:100F9000086000BFAF48001F006880F4F01000F444
:100FA000003088B100BF4FF40030091F08600020F6
:100FB000091D086000BF042C02D14FF47A6001E0E3
:100FC0004FF47A60054611E000BF4FF40030A149AC
:100FD000091D08600020091F086000BF042C02D111
:100FE0004FF4C87001E04FF4C87005469A48047089
:100FF0006420B5FBF0F09949096800FB01F7002275
:10100000394697480068FFF73FF906469DE18FE1B2
:101010008DE177E161E14BE13DE101E1FFE0FDE0E0
:10102000FBE0F9E0EDE0D3E0BBE0A1E089E074E0B3
:1010300044E0FFE700BF4FF4A0108649086000209D
:10104000091D086000BF8348001F006880F4F0108D
:1010500000F4003080B100BF4FF40030091F086079
:101060000020091D086000BF052C01D1C82001E047
:101070004FF47A60054610E000BF4FF40030754928
:10108000091D08600020091F086000BF052C01D160
:10109000C82001E04FF4C87005466F480470642012
:1010A000B5FBF0F06D49096800FB01F700223946F5
:1010B0006B480068FFF7E8F8064646E100BF4FF4CA
:1010C000A010644908600020091D086000BF614845
:1010D000001F006880F4F01000F4003040B100BF41
:1010E0004FF40030091F08600020091D086009E066
:1010F00000BF4FF400305749091D08600020091F48
:10110000086000BF544804705448002201685448E5
:101110000068FFF7B9F8064617E100BF4FF4A010CA
:101120004C4908600020091D086000BF00BF4FF453
:10113000003008600020091F086000BF46480470A6
:1011400003E100BF4349091F08684FF48021814330
:10115000404A116000F48021121D116000BF3F4819
:10116000002201683E480068FFF78EF80646ECE072
:1011700000BF3849091F08684FF480218143354A70
:10118000116000F48021121D116000BF3348006817
:1011900000EB8001002232480068FFF775F8064630
:1011A000D3E000BF2B49091F08684FF48021814319
:1011B000284A116000F48021121D116000BF2748E9
:1011C0000022016826480068FFF75EF80646BCE08A
:1011D00000BF2049091F08684FF4802181431D4A40
:1011E000116000F48021121D116000BF1B480068CF
:1011F00000EB800100221A480068FFF745F8064618
:10120000A3E000BF4FF4F0101249091D0860002050
:10121000091F086000BF98E000BF00BF00BF00BF0B
:1012200010480068FFF768F80646C4F111053DB3A1
:1012300036BB012D1BD9C82068436421B0FBF1F0F7
:101240000649096800FB01F7002239460548006895
:101250000AE00000080500502C280020302800205B
:10126000382800203C280020FFF70EF8064600BF73
:101270004FF40020374908600020091F086009E08A
:1012800000BF4FF400203349091F08600020091DEA
:10129000086000BF59E000BF4FF4F0102D49091F4E
:1012A00008600020091D086000BF2B4804704CE056
:1012B00000BF4FF4E0102749091F08600020091DF6
:1012C000086000BF00BF4FF4003008600020091F15
:1012D000086000BF2048047037E000BF4FF4D01012
:1012E0001C49091F08600020091D086000BF00BFDD
:1012F0004FF4802008600020091F086000BF1648D6
:10130000047022E000BF4FF4C0101249091F0860AA
:101310000020091D086000BF00BF4FF4C020086016
:101320000020091F086000BF0B4804700DE000BFDB
:1013300000BF4FF4F010074908600020091F086043
:1013400000BF0548047000E000BF00BF3046BDE8A4
:10135000F08100000C0500502C28002070B5002200
:1013600040F6CD410320FFF7F7FC044600BF2546B9
:101370003DB100BF04A24FF40E712846FEF742FDB6
:1013800000BF00BF70BD00002E2E5C2E2E5C2E2EE6
:101390005C6D61696E2E630030B5024600201AE074
:1013A0000F4C54F82040A40004F1A044D4F80017D6
:1013B0000124844014400CB1032400E0002423469F
:1013C00021F4403141EA0341064C054D55F82050C7
:1013D00044F82510401C0428E2D3002030BD000052
:1013E000803502000007005010B590B00446002080
:1013F000089000BF9DF8200020F00F00401C8DF8E1
:1014000020009DF8200020F0F00010308DF8200022
:1014100000BF00BF9DF8210020F00F00401C8DF898
:1014200021009DF8210020F0F00010308DF82100FF
:1014300000BF9DF8220020F00600801C8DF82200DD
:101440001C2109A8FEF74DF89DF8240020F00200A9
:10145000801C8DF824009DF8240020F0100010302E
:101460008DF8240000200A900C900D9008A80E9092
:1014700000200F90A07C8DF80A0041F22450ADF8B6
:1014800008000020019000BF9DF8040020F00F002C
:10149000401C8DF804009DF8040020F0F00010308E
:1014A0008DF8040000BF00BF9DF8050020F00F007C
:1014B0008DF805009DF8050020F0F0008DF805007E
:1014C00000BF9DF8060020F00600801C8DF8060085
:1014D0009DF8060020F008008DF806009DF8060033
:1014E00020F010008DF806009DF8060020F00100A5
:1014F0008DF80600142103A8FDF7F3FF02A803905E
:1015000001A804900120ADF814000020ADF81600E9
:101510000120ADF818000020079015B1284610B042
:1015200010BD208804F10A0303AA09A9A2DFF6E787
:1015300010B5044620780221FFF762FB10BD0000C1
:101540004FF0FF32054941F82020082805DBFF2332
:10155000A0F10801014A503253547047482E002030
:101560000146024850F8210070470000482E002034
:101570002DE9F04F03460C464FF0FF390AB1002029
:1015800000E0082084460AB1082000E00C208046D4
:10159000614624E0154850F82100401CF0B91D4672
:1015A0000846274616464FFA80FBDFF840A00AF1AE
:1015B000300A0AF805B0DFF834A04AF820704EB9B6
:1015C0004FFA85FBA0F1080ADFF820E00EF1500E7B
:1015D0000EF80AB000BF4FFA81F902E0491C4145FC
:1015E000D8D300BF4846BDE8F08F0000482E002049
:1015F0000146014840567047782E00202DE9F047FB
:1016000081461F480068401C002835D01C480068EF
:1016100000EBC0001B49096801EB8000456801F040
:101620000DFA0746184804682146384601F0EFFBDA
:10163000C61C1648007808B901F012FAAE4201D271
:10164000284600E03046044424F07F4420461049F8
:10165000086000BF01F0F2F980463946404601F0CB
:10166000D6FB00F1030A3946204601F0D0FB824543
:1016700001D901F0BDFD01E001F010FABDE8F087ED
:10168000F8280020EC280020FC2800201029002049
:101690004015014001460888062808DB0888B0F597
:1016A000486F06DD08884FF6FF72904201D0072090
:1016B00070474888062808DB4888B0F5486F06DD83
:1016C00048884FF6FF72904201D00720F0E7088863
:1016D0004FF6FF72904208D04888904205D00888A3
:1016E0004A88904201DD0720E2E70020E0E72DE98B
:1016F000F04106460D46144698462088801D404518
:1017000002D90C20BDE8F0813046FFF7C3FF074641
:101710000FB13846F6E70520218868542088401C20
:1017200020801220218868542088401C2080228834
:101730005119308801F0F7FD218808442080228863
:101740005119708801F0EFFD2188084420800020A5
:10175000D8E7000010B5044600BF03A2F6212046DA
:10176000FEF750FB00BF10BD2E2E5C2E2E5C2E2EE1
:101770005C6D61696E2E630030B587B01C216846D0
:10178000FDF7AFFE002000904FF4203001904FF4A1
:101790007020029003208DF80C000020ADF80E00A0
:1017A0008DF810000A4805900A4806906846FFF731
:1017B000D5F8044600BF25463DB100BF06A240F261
:1017C0000D112846FEF71EFB00BF00BF07B030BD5D
:1017D000F9270200551702002E2E5C2E2E5C2E2EAD
:1017E0005C6D61696E2E630038B51B4800F0C2FA6B
:1017F00020BB1A48007848B119484069E8B1002078
:101800000090174841696846884716E015480078F7
:1018100010B91348456801E011488568002229463F
:1018200011480068FEF730FD044634B10C48806969
:1018300018B10B4881692046884709E0084840698B
:1018400030B101200090064841696846884700BFD2
:1018500000200249087038BD7C280020882800201C
:10186000282E002078280020842800202DE9F04729
:101870008146002532E01C48006800EBC504217851
:10188000012000FA01F619480068304020B31748DB
:101890000068B04315490860207800F017FE07463D
:1018A000217801208840124909680840217807FA08
:1018B00001F188420FD16078012800D100E00020BA
:1018C000784080F00108606820B108F0FF012078BE
:1018D0006268904700BF00BF681CC5B20548007829
:1018E0008542C8DBBDE8F087B4280020C828002066
:1018F000C4280020B8280020014614480078144A63
:10190000127890421DD011480078401C0F4A107088
:1019100010460078022801D1002010700D480B4AB3
:10192000127850F8220008600B4A086812681044C8
:10193000094A10601046006820F07F4010600120C6
:1019400070470020086000BFFAE700000829002067
:101950000929002000290020FC2800201C480078CC
:10196000062832D11A48001D007800F00F0060BB35
:1019700017480830007800F0F000302807D11448EC
:101980000C30007800F0F00008B9012070471048D2
:101990000830007800F0F000402807D10C480C30E7
:1019A000007800F0F00008B90120EFE7084808309F
:1019B000007800F0F000502807D105480C3000787E
:1019C00000F0F00008B90120E0E70020DEE70000A9
:1019D000E00F00F00D480078062814D10B48001DD8
:1019E000007800F00F0070B908480830007800F067
:1019F000F000302807D105480C30007800F0F000E6
:101A000008B9012070470020FCE70000E00F00F05B
:101A10001C480078062832D11A48001D007800F0D2
:101A20000F0060BB17480830007800F0F000302845
:101A300007D114480C30007800F0F00008B90120FC
:101A4000704710480830007800F0F000402807D1B7
:101A50000C480C30007800F0F00008B90120EFE7E6
:101A600008480830007800F0F000502807D10548F9
:101A70000C30007800F0F00008B90120E0E7002009
:101A8000DEE70000E00F00F00D480078062814D1D2
:101A90000B48001D007800F00F0070B908480830AE
:101AA000007800F0F000302807D105480C300078AD
:101AB00000F0F00008B9012070470020FCE70000AA
:101AC000E00F00F00D480078062814D10B48001DE7
:101AD000007800F00F0070B908480830007800F076
:101AE000F000502807D105480C30007800F0F000D5
:101AF00008B9012070470020FCE70000E00F00F06B
:101B0000F0B50346002426E0164E366806EBC606FE
:101B1000154F3F6807EB860046689E4203D946682A
:101B2000F61A46601CE046689B1B46683444002653
:101B3000466006750B4E35680A4F066A3E600669B8
:101B400046B10E1926F07F4686600669C6601668A3
:101B50000662156000BF03480068401C0028D3D10E
:101B600000BFF0BDF8280020EC28002030B5044666
:101B70001088C01C984201D90C2030BD0220158865
:101B800048551088401C1080012015884855108841
:101B9000401C108015884C551088401C1080002077
:101BA000EBE700003EB500BF9DF8000020F00F00FD
:101BB000401C00909DF8000020F0F00010300090D4
:101BC00000BF0D2217A168467CDF044600BF2546F2
:101BD00035B100BF17A2A1212846FEF713F900BFB7
:101BE00000BF0020019002904FF4C870ADF80400CF
:101BF0004000ADF806000020ADF808004FF4C870B2
:101C0000ADF80A0001A87ADF044600BF254635B1C9
:101C100000BF08A2AF212846FEF7F4F800BF00BFBE
:101C20003EBD00004E6F726469635F426C696E6B0B
:101C3000790000002E2E5C2E2E5C2E2E5C6D6169CC
:101C40006E2E63002DE9F04105460F46012000FA93
:101C500005F418480068FEF74FFB06460EB1BDE8D4
:101C6000F081154800682040E0B9284600F02EFCBD
:101C700028B11248006820431049086004E00F486A
:101C80000068A0430D4908600B48006820430A49DA
:101C9000086000220A48016806480068FEF7F4FA66
:101CA000064604E004480068A0430349086000BFFA
:101CB000D5E70000C0280020C8280020C428002044
:101CC000BC280020F8B52548007800B9F8BD2448A4
:101CD000006808B9012000E000200546214800689E
:101CE00008B9012000E00020064600BF9DB9684603
:101CF00051DF0446052C01D101250BE034B100BFB2
:101D0000194A6D212046FEF77DF803E0144900983A
:101D10000968884700BFCEB914480088009069461A
:101D20001348006861DF0446052C01D101260CE050
:101D300034B100BF0C4A84212046FEF763F804E06A
:101D40000B48006807490968884700BF0DB106B114
:101D500000E0CBE700BF00BFB8E700001829002073
:101D600028290020242900200836020020290020EC
:101D70001C29002001464888064A1288904206DB4A
:101D80004888044A5288904201DC012070470020B4
:101D9000FCE700007028002030B504461088C01C05
:101DA000984201D90C2030BD022015884855108872
:101DB000401C10801C20158848551088401C10803D
:101DC000012C06D0022C08D0032C0AD0042C10D1F0
:101DD0000BE00020158848550DE001201588485576
:101DE00009E002201588485505E00320158848556C
:101DF00001E00720D7E700BF1088401C10800020BA
:101E0000D1E710B58EB004461C2107A8FDF769FB89
:101E10009DF81C0020F00200801C8DF81C009DF82D
:101E20001C0020F0080008308DF81C0000200890ED
:101E30000A900B900C900D90A07C8DF8060041F25A
:101E40002550ADF804000020009000BF9DF8000070
:101E500020F00F00401C8DF800009DF8000020F0DD
:101E6000F00010308DF8000000BF00BF9DF80100A9
:101E700020F00F00401C8DF801009DF8010020F0BB
:101E8000F00010308DF8010000BF9DF8020020F036
:101E90000600801C8DF802009DF8020020F008006A
:101EA0008DF802009DF8020020F010008DF802006D
:101EB0009DF8020020F001008DF80200142102A814
:101EC000FDF70FFB01A80290CDF80CD00120ADF872
:101ED00010000020ADF812000120ADF81400002021
:101EE000069015B128460EB010BD2088A31C02AA8A
:101EF00007A9A2DFF7E7000010B5024631B11120B3
:101F000001238340064C236000BF07E0112001231A
:101F10008340034C241D236000BF00BF10BD0000A0
:101F20000805005010B504460448007800F0010090
:101F300018B103480078FEF777FF10BD3428002061
:101F40002C2800202DE9F0472C48D0F800902C4890
:101F500090F8008041E02B48006800EBC804257829
:101F600037E005EB4501606800EBC107681CC5B2AE
:101F7000A078A84200D100253878022802D0032892
:101F800024D10EE0786800EBC0001F49096801EB1E
:101F90008006307D20B1786801F022F8002030758D
:101FA00015E00DE01549096801EBC101164A1268F8
:101FB00002EB810000210175104A016A116000BF27
:101FC0000E480068401C0028ECD100E000BF00BFB4
:101FD00000BF6078A842C4D100BFB8F10000A8F1EA
:101FE000010101F0FF08B6D104480068484502D05D
:101FF0000120BDE8F0870020FBE70000F828002062
:10200000F0280020F4280020EC2800202DE9F047DB
:1020100006464448D0F800A0434890F8008070E09D
:102020004248006800EBC80563E0701C48B13746C1
:102030003E4607EBC6003E49096801EB8004266A6C
:1020400029E02A7802EB4202696801EBC200297894
:10205000491C29702978AA78914201D10021297060
:10206000476807EBC701324A126802EB8104017826
:10207000012901D1217D01B13BE08168A160C168E6
:10208000E160016921614169E1612A49097809B189
:102090000021A16000BF2849A0680968401A20F00B
:1020A0007F402649884208D22349A068096800F089
:1020B000AEFEE1680844606010E01F48A168006857
:1020C00000F0A5FE8146E068484504D9E068A0EB31
:1020D0000900606001E00020606000BF0020A06097
:1020E000E06001202075801E2062384600F002FF6B
:1020F00000BF701C002898D128786978884294D154
:1021000000BFB8F10000A8F1010101F0FF0887D17C
:1021100004480068504502D00120BDE8F087002047
:10212000FBE70000F8280020F0280020F428002019
:10213000EC28002011290020FC280020FFFF7F0050
:1021400001F05CF8FEF702FDFFF708F900F004FD6E
:10215000FFF728FD00F0A6FDFDF786FDFFF70CFB5D
:1021600000F036FD01F06EF80320FEF7B3FA0446E6
:1021700000BF25463DB100BF06A24FF416712846A8
:10218000FDF740FE00BF00BF00BFFDF741FF00F0BC
:1021900027FCFAE72E2E5C2E2E5C2E2E5C6D6169DC
:1021A0006E2E63002DE9F04105460E461446984612
:1021B000A888871C2088801C3844404502D90C2000
:1021C000BDE8F081FE2F01D90C20F9E7781C2188A9
:1021D00070542088401C2080FF2021887054208863
:1021E000401C208022889119288801F09CF82188C1
:1021F00008442080A88800280DDDA86808B90720B9
:10220000DEE7AA8823889819A968FDF751F9208884
:10221000A988084420800020D2E72DE9F84F054620
:102220000F46144698462878012804D1687810B9DA
:102230000720BDE8F88F2088801C404508D8287802
:10224000012807D12088801C69780844404501D9BD
:102250000C20EEE72088A8EB0000801E86B20096D6
:102260002188891CC81969467DDF8146B9F1000FB4
:1022700001D04846DDE72878022806D1BDF80000E5
:10228000B04202DC4FF0090A0BE04FF0080A287850
:10229000012805D16878B04202DC6878009000E03F
:1022A0000096BDF80000FE2801D90C20C1E7BDF85A
:1022B0000000401C218878542088401C2080208801
:1022C00007F800A02088401C20802088BDF800105E
:1022D000084420800020ACE7014604480088814281
:1022E00001DA481C00E00020C0B27047E42800205A
:1022F00070B50B4601461A46002907DA5407260E28
:10230000104C01F00F052D1F665503E05407250EF4
:102310000D4C655400BF00BF00F01F020121914029
:102320000A4A440942F8241000BF00BF00F01F020F
:10233000012191404209920002F1E022C2F800110D
:1023400000BF70BD18ED00E000E400E080E200E0B6
:102350002DE9F04705460E46284600F01FFB10B356
:102360002846FFF745F9A0F10809484600F002FBAE
:102370000746BC11032C0BD100BF1C48006801218B
:10238000A940084008B1032000E00220804605E093
:10239000012C01D1022000E003208046414628465E
:1023A00000F0E6F81FE0284600F004FBD8B128460C
:1023B000FFF71EF90446A00000F5807087B22046A2
:1023C0000B4951F8201041F00102094941F8202041
:1023D00000BF384600F0E4F826B1012101FA04F00C
:1023E00000F0F8F800BFBDE8F087000010050050CD
:1023F000106500402DE9FC4704460E4617464FF095
:102400000008204600F0BCFA10B14FF0080851E077
:10241000F27839462046FFF7ABF80546681C0028DD
:1024200045D0B07860B100BFA10001F1A041D1F862
:10243000001721F00200214941F8240000BF0CE000
:1024400096F80190002000904B460246014601900C
:10245000204600F07BF800BF00BFF078D0B13078A4
:10246000174951F82510174A1140154A42F825100E
:10247000114651F825104FF4F85202EA04224FF4A5
:10248000403303EA00431A4311430D4A42F8251032
:1024900000BF0EE0A5F108000B49085C317840EA66
:1024A000811042B2A5F1080007490A5401E04FF03B
:1024B000040800BF4046BDE8FC870000000700504C
:1024C00010650040FFE0FCFF982E0020014600BF91
:1024D00004480068C84000F0010008B101207047BE
:1024E0000020FCE71005005010B51248007808B134
:1024F000082010BD002404E0204600F06BFA601CA8
:10250000C4B2202CF8DB002404E02046FFF718F8C2
:10251000601CC4B20C2CF8DB01210620FFF7E8FE9A
:102520004FF0004000F056F80120024908700020EA
:10253000DFE70000442E00200348007808B10120A6
:1025400070470020FCE70000442E0020F0B5DDE9D4
:10255000054541EA420646EA830646EA042646EA7B
:102560000547024E46F82070F0BD000000070050FD
:10257000074A52F8202022F44033054A42F820301E
:1025800052F8202042EA0143014A42F820307047C5
:1025900000070050014601480844704700600040B1
:1025A00038B504462046FFF7F5FF002101602046BC
:1025B000FFF7F0FF0068009000BF38BD10B504467B
:1025C0002046FFF7E7FF0068012800D110BD00207A
:1025D000FCE7000001490860704700000463004008
:1025E0000146D1F88004C1F8800470470246505873
:1025F00008B1012070470020FCE7002242507047DC
:10260000C0F8081370470122425070470146D1F8C4
:102610008004C1F8800470470246505808B1012078
:1026200070470020FCE7002242507047014640F20C
:102630003C5040587047000070B5054695B1032DD9
:1026400013D10220FEF778FB044600BF26463EB1B8
:1026500000BF07A24FF49F713046FDF7D3FB00BFC8
:1026600000BF03E000F03EFB00E000BF00BF70BD14
:102670002E2E5C2E2E5C2E2E5C6D61696E2E6300FC
:102680002DE9F05F0546288814285AD006DC10286A
:1026900009D011281DD0132871D11FE0172849D067
:1026A0005228F9D130E00720FEF746FB044600BF70
:1026B000A046B8F1000F07D000BF44A24FF4B1719B
:1026C0004046FDF79FFB00BF00BFA8884349088034
:1026D00078E04FF6FF704149088073E0404B414A73
:1026E00000213E4800887FDF044600BFA046B8F1C5
:1026F000000F07D000BF35A24FF4C0714046FDF770
:1027000081FB00BF00BF5DE0032300221146334878
:102710000088A9DF044600BFA046B8F1000F07D02B
:1027200000BF2AA24FF4C4714046FDF76BFB00BF07
:1027300000BF47E02C49D5F806200A6068898880E8
:1027400040E00A22294905F10E00FCF7D5FE08B940
:10275000012000E000200746234E361D307800F0AF
:10276000010018B117B12148123800E0002081465D
:102770003078C0F3400018B117B11D4801E020E0E7
:10278000002082463078C0F3800010B10FB11948A4
:1027900000E0002083465B46524649460F480088C9
:1027A00082DF044600BFA046B8F1000F07D000BF8B
:1027B00006A24FF4CD714046FDF724FB00BF00BFD9
:1027C00000E000BF00BFBDE8F09F00002E2E5C2E91
:1027D0002E5C2E2E5C6D61696E2E63000628002033
:1027E00014280020002800200C280020EE2B0020B8
:1027F000F82B00200F2C002070B50546287878B9FA
:102800003B210848008876DF044600BF264636B1E3
:1028100000BF05A2EB213046FDF7F4FA00BF00BF70
:1028200070BD0000062800202E2E5C2E2E5C2E2E61
:102830005C6D61696E2E630010B504460449D4F8DE
:1028400006200A60D4F80A004860FEF7CDFF10BDEC
:102850007C28002010B50446A08809490880094951
:10286000D4F816200A60D4F81A00486000200649FF
:1028700008700648C08908B9FEF7B6FF10BD000011
:102880007A2800207C28002078280020282E00208C
:102890008A8882827047000070B505464FF6FF7047
:1028A0000949088000200949087009480068FDF7B7
:1028B00023FD044634B10748806918B10548816991
:1028C0002046884770BD00007A2800207828002024
:1028D00084280020282E00204FF6FF728282704745
:1028E00070B50546AC1D20881149C98988421DD1A3
:1028F000208B02281AD100BF00BFA17EE27E41EAF0
:102900000221084600F0010111B1FEF76DFF0DE054
:1029100008480068FDF7F0FC064636B104488069B7
:1029200018B1034881693046884700BF70BD000078
:10293000282E00208428002070B504460E46B51DC0
:1029400028886188884208D1288B012805D1A06990
:1029500018B1A97E2046A269904770BD02460021A9
:1029600004E0505C08B101207047491C0629F8D3E7
:102970000020F9E701460148405C7047982E00208E
:10298000014605484056012202EBE07008B10120E3
:1029900070470020FCE70000782E00200146044824
:1029A0004056082801DB012070470020FCE70000AA
:1029B000782E0020014606484056002805DB0448D2
:1029C0004056082801DA012070470020FCE700008B
:1029D000782E0020FF2201490A547047782E0020EB
:1029E00070B548DF044600BF25463DB100BF04A2D4
:1029F00040F22D212846FDF705FA00BF00BF70BD4B
:102A00002E2E5C2E2E5C2E2E5C6D61696E2E630068
:102A1000014600BF0748007800F0040008B908200C
:102A2000704700BF09B90E20FAE7034840780860F4
:102A30000020F5E7B0280020B42E002001480068EF
:102A4000704700000415014010B5044603480460B7
:102A500003211120FCF758FE10BD000008150140AD
:102A600010B54FF480300A4908600A49C1F80403E0
:102A70001120FCF725FE1120FCF72EFE0120054950
:102A800008602F20FCF7C6FC01200349087010BD28
:102A900044130140001001401029002010B51120FE
:102AA000012181400E4A430942F8231000BF4FF430
:102AB00080300C4908600C49C1F8080301204860C7
:102AC0002F20FCF7A7FC0120074988600020074958
:102AD00008602F20FCF79EFC00200549087010BDFF
:102AE00080E100E04813014000100140FC28002074
:102AF0001029002010B54FF484710948FFF77DFDBF
:102B000000BF08480068C0B20749C968064A127D7C
:102B100088540548007D401C0349087510BD00001D
:102B200000200040182500409C2E00201FB50446C0
:102B300001208DF800008DF808400648C06801901B
:102B400000200449C87408460168426868469047F6
:102B50001FBD00009C2E002070B500BF094A0A214D
:102B60000820FDF765FA044600BF25463DB100BFC9
:102B700005A240F20D212846FDF744F900BF00BF31
:102B800000BF70BD682C00202E2E5C2E2E5C2E2ED9
:102B90005C6D61696E2E630030B504461088C01C00
:102BA000984201D90C2030BD022015884855108864
:102BB000401C10801120158848551088401C10803A
:102BC00010880C541088401C10800020EBE7000097
:102BD0000D48007820F00100401C0B4908700846A1
:102BE000007820F0020008700846007820F01C00F1
:102BF0000C3008700846007820F02000087007208C
:102C00004870102088707047002800202DE9F04798
:102C100007460E4614469A46B86A10B90720BDE822
:102C2000F0874FF0000836E008EB4801B86A00EB87
:102C30008105A88800F10209B9F1FE0F01D90C2025
:102C4000EDE709F10100218870542088401C2080A4
:102C50001620218870542088401C208022889119D9
:102C6000288800F060FB218808442080A88800287C
:102C70000DDDA86808B90720D1E7AA88238898192C
:102C8000A968FCF715FC2088A9880844208008F171
:102C9000010000F0FF0897F82C004045C4DC00203C
:102CA000BDE7000038B50948009069460848FDF7BF
:102CB000F7FE044600BF254635B100BF05A2C92175
:102CC0002846FDF79FF800BF00BF38BDF91E02007F
:102CD000302900202E2E5C2E2E5C2E2E5C6D61691C
:102CE0006E2E630070B50020FEF726F8044600BF84
:102CF00025463DB100BF13A24FF492712846FDF75F
:102D000081F800BF00BF0120FEF746FB044600BF6C
:102D100025463DB100BF0BA24FF494712846FDF744
:102D200071F800BF00BF3CDF044600BF25463DB13F
:102D300000BF04A24FF496712846FDF763F800BF68
:102D400000BF70BD2E2E5C2E2E5C2E2E5C6D616938
:102D50006E2E630070B506460C4615462946204681
:102D6000AFF3008070BD0000014609B90E20704726
:102D7000014801600020FAE7242900202DE9F041F4
:102D800080460C4616461F4614B90720BDE8F08160
:102D9000204600F0030109B9012100E0002109B932
:102DA0000720F3E7094804600948068009480760DE
:102DB0000949404610DF05460DB12846E6E70120E7
:102DC0000649087016202EDFE0E700001C290020CD
:102DD0002029002014290020552D02001829002048
:102DE000014609B90E207047014801600020FAE74A
:102DF000282900200146C87808B107207047002024
:102E0000FCE710B504462046FDF736FC10BD02462F
:102E1000501A20F07F40704770B504460C48006897
:102E200090B10B4AD4E9060112689047054600BFED
:102E30002E463EB100BF07A24FF4B6713046FCF7F4
:102E4000E1FF00BF00BF02E0D4E90610884770BD73
:102E50000C2900202E2E5C2E2E5C2E2E5C2E2E5C3D
:102E60002E2E5C2E2E5C636F6D706F6E656E7473AC
:102E70005C6C69627261726965735C74696D6572BC
:102E80005C6170705F74696D65722E630000000094
:102E90002DE9FC414FF0FF300190104804681048C4
:102EA00007686846FEF728FD0546FFF74BF806461B
:102EB0002DB101AA21460098FEF722FE01260198B5
:102EC000FFF7A4F800B1012616B13846FEF796FBCD
:102ED000002004490870BDE8FC810000FC280020A7
:102EE000F82800201129002010B51420FCF700FC60
:102EF00010BD0000F0B5024602EBC200364B1B6865
:102F000003EB800135480068401C10B9334802606B
:102F100060E0324B48681B6803EBC3032E4C246807
:102F200004EB83035B68984219D82C48006800EBD7
:102F3000C000294B1B6803EB800040684B68C01A37
:102F4000264B1B6803EBC303234C246804EB830369
:102F50005860224800680862204802603AE04B68E6
:102F60001E4D2C6828680FE000EBC0051A4E36682D
:102F700006EB85056D685B1B044600EBC005164E2D
:102F8000366806EB8505286A451C45B100EBC0058F
:102F9000114E366806EB85056D689D42E4D3451CED
:102FA00075B100EBC0050C4E366806EB85056D6803
:102FB000ED1A00EBC006084F3F6807EB8606756008
:102FC0004B60086204EBC405034E366806EB8505CA
:102FD0002A6200BFF0BD0000EC280020F828002085
:102FE00070B502462F4C216808460AE0904200D195
:102FF0000AE0014600EBC0042B4D2D6805EB84046C
:10300000206A441C002CF1D100BF441C04B970BDDF
:10301000814217D1234C246804EBC404224D2D684F
:1030200005EB8404246A1F4D2C602C462468641C24
:1030300044B901241D4DAC6000241D4D2C600124B9
:103040001C4D2C7000EBC004174D2D6805EB84045B
:10305000636800EBC004144D2D6805EB8404246AFA
:1030600001EBC105104E366806EB85052C6201EBBD
:10307000C1040D4D2D6805EB8404206A441C74B115
:1030800000EBC004084D2D6805EB840464681C4403
:1030900000EBC005044E366806EB85056C6000BF8A
:1030A000B5E70000F8280020EC28002000100140BF
:1030B000FC280020112900202DE9F84305460E4682
:1030C00017469846DDF820901049096801EBC500C5
:1030D000694600F0A3F9044614B90420BDE8F8835A
:1030E000012020706660FFF7A9FCA060E760C4F8CB
:1030F0001080C4F814900549096801EBC5000099D7
:1031000000F0A3F9FFF7F0FE0020E7E7F428002025
:10311000F8B504460E460C49096801EBC40069463F
:1031200000F07CF905460DB90420F8BD0220287096
:103130006E600549096801EBC400009900F085F94B
:10314000FFF7D2FE0020F0E7F42800202DE9F0413F
:1031500021480068401C00283BD00026FFF76EFC89
:1031600004461E4801682046FFF751FE07461A48EC
:10317000056812E005EBC5001949096801EB8004F8
:103180006068B84200D90BE060683F1A6068064486
:10319000256A2046FFF740FE00BF681C0028E9D1E1
:1031A00000BF1048007810490978884209D10E48BC
:1031B0000078401CC0B20C490870022801D10020E0
:1031C00008700A480849097840F82160FFF78CFE2A
:1031D00000BFBDE8F0810000F8280020FC28002096
:1031E000EC280020082900200929002000290020BF
:1031F00010B51120FCF77CFA10BD000038B500BFF7
:103200000A480B4B0522114600900020FCF7C0FF36
:10321000044600BF254635B100BF06A286212846D8
:10322000FCF7F0FD00BF00BF00BF38BD7501020014
:103230004C2900202E2E5C2E2E5C2E2E5C6D61699A
:103240006E2E6300704770B504461D46108812301C
:10325000A84201D90C2070BD11201688885510880D
:10326000401C10801020168888551088401C108043
:103270000F2307E0E05C16888855581E43B210887B
:10328000401C1080002BF5DA0020E4E710B54FF465
:103290008E710948FFF7B1F9084880680749098A23
:1032A000445C0648008A401C0449088220460449C0
:1032B000086000BF10BD0000002000409C2E0020D0
:1032C0001C2500401FB5044600208DF800008DF835
:1032D0000840064880680190002004498874084628
:1032E00001684268684690471FBD00009C2E002080
:1032F00030B504461088C01C984201D90C2030BD5E
:103300000220158848551088401C10800A20158816
:1033100048551088401C108015884C551088401C5A
:1033200010800020EBE702460A70100A4870022065
:103330007047000038B505461E4800884FF6FF71FB
:10334000884235D01C480078401C1B4908701B4837
:10335000007B097888420DDB19491648008875DF23
:10336000044634B11548806918B114488169204673
:1033700088471DE00020104908701048007C68B1A3
:103380003B210C48008876DF044634B10B48806945
:1033900018B10A4881692046884700BF074840693C
:1033A00030B100200090054841696846884700BF59
:1033B00038BD00007A28002078280020282E002020
:1033C0007028002030B500BF12490968C1F3080217
:1033D0008AB1A2F1100359B2002907DA0D4C143456
:1033E00001F00F052D1F645D641102E00A4C645C5E
:1033F0006411E1B200E00421012902D0032904D1C3
:1034000001E0002003E0012001E0022000BF00BF36
:1034100030BD000004ED00E000E400E030B50246FD
:103420000B465078411C9078884200D100211078DA
:10343000884201D1002030BD1960557805EB450563
:10344000506800EBC5042046F5E7417070472DE950
:10345000FC478046894615469A46DDE90A67534689
:10346000022249464046CDE9006700F013F80446C1
:1034700014B12046BDE8FC87534610222946404639
:10348000CDE9006700F006F804460CB12046F1E7EC
:103490000020EFE72DE9FF5F06468B4696461D4666
:1034A0000E9C4FF0000820880390002746E07068CB
:1034B00000EB870000680190002202A901A865DFE7
:1034C0008246BAF1000F03D0504604B0BDE8F09F29
:1034D0009DF80800704530D1B8F1000F01D00020F0
:1034E00000E00220009020889DF808100144009818
:1034F00001440F98814201DD0C20E6E7B8F1000F8E
:103500000AD12088401C2080208805F800B020883F
:10351000401C20804FF001082088421902A901A810
:1035200065DF8246BAF1000F01D05046CDE7208812
:103530009DF808100844208000BF7F1C3088B842E6
:10354000B5DCB8F1000F0DD021880398401C081A93
:103550001FFA80F9B9F1FF0F01DD0C20B5E70398E0
:1035600005F800900020B0E70146087908B9087B0B
:1035700008B1012070470020FCE70000231500007F
:103580000D0000000E0000000F0000001000000001
:103590000D000300010C02000E000300010C0200EC
:1035A0000F000300010C020010000300010C0200D8
:1035B0000300000023D1BCEA5F782315DEEF12126E
:1035C000000000002E2E5C2E2E5C2E2E5C2E2E5C1B
:1035D0002E2E5C2E2E5C636F6D706F6E656E747335
:1035E0005C6C69627261726965735C73636865645F
:1035F000756C65725C6170705F7363686564756C2F
:1036000065722E63000000002E2E5C2E2E5C2E2E86
:103610005C2E2E5C2E2E5C2E2E5C636F6D706F6E9A
:10362000656E74735C736F66746465766963655CFC
:10363000636F6D6D6F6E5C736F66746465766963DE
:10364000655F68616E646C65725C736F66746465F7
:10365000766963655F68616E646C65722E630000F5
:1036600080360200002800203001000038F50100FB
:10367000A036020030290020F8270000B8FA010027
:1036800071A6FFFF0F18010D4FDC2B0020F82B0057
:10369000200F2C002003BEFFFF1490D00300000079
:040000050001F40101
:00000001FF
