:020000040001F9
:10F00000E85000208DF4010095F4010097F4010010
:10F0100099F401009BF401009DF401000000000040
:10F020000000000000000000000000009FF401004C
:10F030000000000000000000A1F40100A3F40100A2
:10F04000A5F40100A5F40100D5F80100A5F4010024
:10F05000A5F40100A5F4010039F50100A5F40100B3
:10F06000A5F40100A5F40100A5F40100A5F4010038
:10F07000A5F40100A5F40100A5F40100A5F4010028
:10F08000A5F40100B1F60100A5F40100A5F401000A
:10F09000D5F60100A5F4010029F70100A5F401004F
:10F0A000A5F40100A5F40100A5F40100A5F40100F8
:10F0B000A5F40100A5F4010000000000000000001C
:10F0C000A5F40100A5F40100A5F40100A5F40100D8
:10F0D000A5F40100A5F401000000000000000000FC
:10F0E0000000000000000000000000000000000020
:10F0F0000000000000000000000000000000000010
:10F1000000000000000000000000000000000000FF
:10F1100000000000000000000000000000000000EF
:10F40000DFF80CD000F086F80048004771100200C9
:10F41000E8500020401E00BF00BF00BF00BF00BF7B
:10F4200000BF00BF00BF00BF00BF00BF00BF00BFE4
:10F4300000BF00BF00BF00BF00BF00BF00BF00BFD4
:10F4400000BF00BF00BF00BF00BF00BF00BF00BFC4
:10F4500000BF00BF00BF00BF00BF00BF00BF00BFB4
:10F4600000BF00BF00BF00BF00BF00BF00BF00BFA4
:10F4700000BF00BF00BF00BF00BF00BF00BF00BF94
:10F4800000BF00BF00BFC5D17047000006488047DD
:10F4900006480047FEE7FEE7FEE7FEE7FEE7FEE779
:10F4A000FEE7FEE7FEE7000051F7010001F401006E
:10F4B00040EA01039B0703D009E008C9121F08C0F6
:10F4C000042AFAD203E011F8013B00F8013B521E76
:10F4D000F9D27047D2B201E000F8012B491EFBD2ED
:10F4E00070470022F6E710B513460A46044619464F
:10F4F000FFF7F0FF204610BD30B50446002003465C
:10F5000000E05B1C934203D2E05CCD5C401BF8D072
:10F5100030BD0000064C074D06E0E06840F00103F6
:10F5200094E8070098471034AC42F6D3FFF76CFF1D
:10F53000081C0200281C02002DE9F05F00250127AD
:10F54000DFF8FCA0A8464FF480762C46B94630463A
:10F5500001F0FAFF48B1DAF8041309FA04F00142A5
:10F5600003D0304601F0E6FF3D43361D7F00641CAA
:10F57000B6B2082CEBD34FF4BE74204601F0E4FF82
:10F5800038B1204601F0D6FF2E4845F00045D0F8AE
:10F5900000802D4E280715D0012700242F420DD0C2
:10F5A0000AEB8401D1F81005D1F81015C0F304203E
:10F5B00006EB8402C1F30141526890477F00641C4E
:10F5C000082CEBD3002D36DA0024CB46B2460AEBEA
:10F5D0000400574690F8540020F0C0054FEA9019F7
:10F5E0000BFA05F6284602F05BF808B3284601F04E
:10F5F00079FA07EB80004768D7B1A80000F1A04076
:10F60000D0F8000716EA080FC0F3014002D0022824
:10F6100002D00DE003280BD1B9F1030F05D1022868
:10F620000BD00221284601F076FF49462846B8470C
:10F63000641C042CCBD3BDE8F09F0321F2E700004B
:10F640000060004010050050042E002000F01F0252
:10F65000012191404009800000F1E020C0F88012B3
:10F66000704700F01F02012191404009800000F125
:10F67000E020C0F80011704700F01F020121914006
:10F680004009800000F1E020C0F8001270474907EF
:10F69000090E002806DA00F00F0000F1E02080F8E3
:10F6A000141D704700F1E02080F80014704700003E
:10F6B00007480021C0F84011C0F84411C0F84811B3
:10F6C000C0F84C11C0F80011C0F8041102F040B9A4
:10F6D000001001402DE9F04186B04FF0FF30114D90
:10F6E00002906846D5E9046801F0FAFA074601F08D
:10F6F000EBFB044647B102AA4146009801F010FB1B
:10F70000029801F033FC04E0029801F02FFC00B9EC
:10F7100014B1304601F0EEF90020687106B0BDE882
:10F72000F0810000D0280020084810B5406840B1A2
:10F730008047002809D00022BDE81040114600F0A3
:10F74000EDBABDE8104001F041BB10BDF428002027
:10F75000F0B558480022041D0378211D081D01261C
:10F76000062B17D125782D0714D10D78C5F3031575
:10F77000032D03D1077817F0F00F0ED0042D03D11D
:10F78000077817F0F00F08D0052D03D1057815F094
:10F79000F00F02D0062B09D014E04FF08055D5F8B9
:10F7A0004452454FC5F342353D6002E025782D07B0
:10F7B00008D10D78C5F30315032D03D1057815F095
:10F7C000F00F02D0062B06D01DE03C4D2F6827F02D
:10F7D00080772F601AE025782D0714D10D78C5F3B6
:10F7E0000315032D03D1077817F0F00F0ED0042D69
:10F7F00003D1077817F0F00F08D0052D03D1057855
:10F8000015F0F00F02D0062B0AD019E04FF080451A
:10F81000C5F80C21C5F81021274D2D1F2A6002E0E4
:10F8200025782D070CD10978C1F30311032907D1DD
:10F83000007810F0F00F03D11F49032064310860F5
:10F840001E487438016841F470010160BFF34F8FA6
:10F85000BFF36F8F4FF01021D1F80002002803DBB7
:10F86000D1F80402002821DA154B1E6015480468FF
:10F87000002CFCD01524C1F800420568002DFCD0F6
:10F88000C1F8044201680029FCD01A60016800290F
:10F89000FCD0BFF34F8F0948F03801680A4A01F4E1
:10F8A000E06111430160BFF34F8FFEE7084907484D
:10F8B0000860F0BDE00F00F03C050040FCED00E00A
:10F8C00004E5014000E401400400FA050090D00383
:10F8D000082900202DE9FF47584C0026584DE07DAF
:10F8E0004FF0020900284FF492714FF4A27A284693
:10F8F00049D001F036FEA0B1C5F824618DF8009022
:10F90000D5F88004C5F880040390D5F83C058DF83F
:10F910000800E0680190E674D4E900126846904758
:10F920000FE04FF48871284601F01BFE48B1C5F87E
:10F930001061D5F83C05E17CC0B2814201D101F0F3
:10F9400009FF5146284601F00CFE40B1C5F844615C
:10F95000E07C20B1D5F83C05C0B201F0FBFE4FF4CD
:10F960009071284601F0FDFD002865D0C5F82061A2
:10F97000A07C002860D0D5F84C0504B0C0B2BDE82A
:10F98000F04702F03BB801F0E7FD4FF401780127A2
:10F99000C0B1C5F82461C5F80883607D00B96F6007
:10F9A0008DF80090D5F88004C5F880040390E07CC1
:10F9B0008DF80800E0680190E674D4E9001268460A
:10F9C000904713E04FF48471284601F0C5FD68B1FB
:10F9D00001F0AEFEE07C217D884207D1607D00B958
:10F9E0006F60C5F80883207D01F0B4FE4FF48E717E
:10F9F000284601F0B1FD58B1A07C218A884202D985
:10FA000001F0EAFF04E0C5F81C6108B101F0F6FF5F
:10FA10005146284601F0A0FD00280DD0C5F84461EC
:10FA2000607D00B12F60E07C002805D0207D04B00F
:10FA3000BDE8F04701F08EBEBDE8FF875C2E0020D8
:10FA40000020004002E008C8121F08C1002AFAD1B5
:10FA500070477047002001E001C1121F002AFBD14E
:10FA600070472DE9FC5F0025168807461580406B1E
:10FA700014468946A8464FF00C0A11234FF0020B9A
:10FA800098B101784846032E48D380F800B0228808
:10FA9000521C92B2228083542288521C92B222803D
:10FAA00009F802102088401C20803A6BDAB12088C7
:10FAB000494600F11205B54230D80B542088102376
:10FAC000401C80B220800B542088401C20800F20D6
:10FAD0002388155C401ECD54238840B25B1C2380D4
:10FAE0000028F5DA454697F82E0030B13346224615
:10FAF000494601F0B5F9050011D197F82D0030B154
:10FB000032462146484600F06BFD050007D1B87823
:10FB100020B32088C846001DB04202D95046BDE837
:10FB2000FC9F684679DF0028F9D12188032008F876
:10FB3000010020881921401C80B2208008F80010A4
:10FB40002088401C80B2208000EB0801BDF8000036
:10FB500001F066FF0146208808442080F878B8B19B
:10FB6000228897F90310D31C4846B342D6D800F830
:10FB700002B022880123521C92B222808354228830
:10FB8000521C92B2228009F802102088401C20806A
:10FB90007868B8B1218890F90020CB1C4846B34260
:10FBA000BCD800F801B021880A23491C89B2218001
:10FBB00043542188491C89B2218009F801202088FA
:10FBC000401C2080388950B1CDE900464B460622C2
:10FBD000022107F1080001F08EFF05009FD1388A4D
:10FBE00050B1CDE900464B460722032107F1100032
:10FBF00001F081FF050092D1388B50B1CDE900466C
:10FC00004B461522142107F1180001F074FF05007E
:10FC100085D1386A30B133462246494600F0BEFFEE
:10FC20000500DBD1786A30B133462246494601F0FF
:10FC3000E5FA0500D2D197F82C0038B133462246B8
:10FC40004946384601F098FD0500C7D1387838B1EB
:10FC5000334622464946384601F002FB0500BDD135
:10FC600028465CE7064800684FF40021044A8143B7
:10FC7000121D1160111D00F4002008607047000083
:10FC80000405005070B50024064D06E068680121A7
:10FC900010F8340001F04EFB641C28788442F5D340
:10FCA000002070BDA8280020F8B515460C46064671
:10FCB000052A01D20720F8BD01F014FC18B901F0A3
:10FCC000E9FB0028F7D1114900204E600C70086153
:10FCD0008D6048610E4D0DE006EBC400296800916F
:10FCE00081788DF8011000780A4A694601F06CFBB2
:10FCF0000028E0D1641EE4B2EED2BDE8F84003482B
:10FD00000021054A0C3000F0DBB80000A8280020D4
:10FD1000041C0200810D0200810C0200BFF34F8F12
:10FD200004480168044A01F4E06111430160BFF333
:10FD30004F8FFEE70CED00E00400FA0570B50F4BA5
:10FD4000054605201C785E78A64216D01C781878E7
:10FD50009E88B04201DA401C00E0002018705E88E6
:10FD6000D86804FB06002860986800EBC4039B88F1
:10FD70000B8050F834001060002070BDC0280020B7
:10FD80002DE9F84F394C8246934660880F468142F0
:10FD900069D837484FF000098DF800904FF6FF788A
:10FDA0000068454610EAE81012D0103840B200282A
:10FDB00006DA00F00F0000F1E02090F8140D03E0E7
:10FDC00000F1E02090F800044609012E01D109E07D
:10FDD0000426684636DF02280BD018B100221146EF
:10FDE000FFF79CFF21786078A288904203DA401CDC
:10FDF00002E072B6F6E70020C0B2884207D065780C
:10FE00006078904201DA401C00E000206070012E12
:10FE10000AD062B69DF8000037DF022804D018B17E
:10FE200000221146FFF77AFF45451AD0A068BAF1C3
:10FE3000000F40F835B00DD067B16188E0683A46F0
:10FE400005FB01005146FFF733FBA06800EBC5003E
:10FE5000878003E000EBC500A0F804900020BDE817
:10FE6000F88F0420FBE70920F9E70000C0280020F4
:10FE700004ED00E00EB504E0029ABDF8041000980D
:10FE8000904702AA01A96846FFF758FF0028F3D05F
:10FE90000EBD000030B5CB0008339DB293074FF084
:10FEA000000401D0072030BD044B9A602A44DA6078
:10FEB0005C701C7058809980002030BDC0280020E4
:10FEC00070B5114DAC6824B12AB120B100232D7852
:10FED0000AE0082070BD072070BD00BF03EBC30619
:10FEE00014F8266026B15B1CAB42F7DB042070BD22
:10FEF00003EBC305012604F8256004EB850461705B
:10FF0000A2610360002070BDD028002010B5044617
:10FF1000082904D0002211461046FFF7FFFED4E95D
:10FF20000010BDE8104008471CB5044ACDE90001A7
:10FF300008216846FFF724FF1CBD00000DFF0100EB
:10FF40002DE9F0478146089C1D46174688469807CC
:10FF50004FF000060AD14DB101F0CCFB2046244CF5
:10FF6000A06184F800800020A5600BE00720BDE8B8
:10FF7000F08700BF00EBC001401C05F8216005EBD5
:10FF800081010E754045F5DB08EBC80005EB8001EB
:10FF90000320607001F11800002207EB4705E160C3
:10FFA00001EBC203521C1E705E709F70586000EB24
:10FFB000C500032AF4DB4FF0FF302061A670E67025
:10FFC0001420FFF743FB03211420FFF760FB1420EC
:10FFD000FFF747FB0749C1F8009003211120FFF705
:10FFE00056FB0448001F006860610020BFE7000066
:10FFF000D0280020081501402DE9F84304461F4889
:020000040002F8
:100000000D461746816869B10278944201D2052DE8
:1000100002D20720BDE8F88304EBC40211F82230B5
:10002000012B01D00820F5E7814601EB82004078E2
:1000300001281FD05FF0000601F028FDD9F80C1050
:10004000804601EBC800694601F042FDA0B10121E4
:1000500000F8041B0A4910C0096880E8E200D9F8DA
:100060000C10009801EBC80148701420FFF704FB46
:100070000020CFE72E46DFE70420CBE7D028002082
:1000800004150140F8B5154C0546A06850B121781B
:100090008D4201D30720F8BD05EBC50110F8210002
:1000A000012801D00820F8BD01F0F0FC0646E06808
:1000B000694600EBC60001F00BFD60B10221017042
:1000C0004560E06800EBC601009848701420FFF717
:1000D000D3FA0020F8BD0420F8BD0000D02800208D
:1000E000F0B50C4693B01F210726ADF80010ADF80F
:1000F0000410002750B1C17849070DD56A4602A9FE
:10010000FFF7AFFC002808D102AD02E00025ADF8F2
:1001100000706CB1E07810B1304613B0F0BD01AAA8
:100120000AA92046FFF79DFC0028F6D10AAA02E0A2
:100130000022ADF80470BDF80400C3B2BDF80000A1
:10014000C1B2284672DFE8E770B50D46049916463D
:10015000040040D0F6B3414800224271C0E90331A7
:10016000242231463E48FFF7A3F900F0D5F83C4978
:100170003431A1F1100001602031816038215C38F8
:10018000FFF7AFF93648217838380170A1788170CF
:10019000E178C17061784170D4E90412C0E90412B9
:1001A000D4E90212C0E90212D4E90612C0E906122B
:1001B000616AD1B100F1AC0100F1B80241628A601C
:1001C000636A1B880B80616A436A89889980002171
:1001D000436A07E0FFE70E2070BD666AB668765C8A
:1001E0005654491C9E888E42F7D8A16AD9B11C4A40
:1001F000AC32A2F10C018A608162A36A9B888B8079
:10020000A16A836A098819800021836A04E0A66ACA
:10021000B668765C5654491C9E888E42F7D894F88E
:100220002C1080F82C10216A49B10C49143101625C
:10023000226A52884A80216A026A098811806168AC
:1002400021B10649891D4160616841602946BDE8C8
:10025000704003483838FFF743BF00004C280020A7
:100260001C2D002010B502881D4C102A18D000212A
:10027000112A1BD0192A18D18079002815D160794C
:10028000012820D0022824D0032824D004280CD10F
:100290002171E2680846002A07D0BDE810401047E7
:1002A000017D012901D18088208110BD6170808885
:1002B00021898842F9D1012006E021690029F4D082
:1002C000BDE810400847022000F02EF80028F4D1C5
:1002D00010BD0320F8E7032020710420F4E700009C
:1002E0004C28002010B5022801D0032810D1094C59
:1002F000207800280CD000202070607900F014F8DD
:10030000002805D02169002902D0BDE81040084727
:1003100010BD00004C28002002480021816181832B
:10032000817770474C2800202DE9F04F724C87B040
:100330000026607106A8069601F0CAF90127082870
:1003400005D0002871D1069810B12770C0E006963C
:10035000FFF7E2FF694D687810B16079012804D099
:10036000A87848B16079022806D1E16819B1E77030
:100370000820884700E0E6706079DFF87C814FF064
:10038000020A08F118084FF0030B012806D168781B
:1003900040B108F1010001F079F918B16079022843
:1003A00002D00AE084F805A0A87820B108F1010085
:1003B00001F06CF908B984F805B0287B4FF0040906
:1003C00020B96079032801D184F80590287E20B9EE
:1003D0006079042801D166712671E16841B16079C4
:1003E000032801D0042803D1287808B16078C0B16F
:1003F000A67018216846FFF774F88DF80060019622
:100400008DF808600396607901280FD0022817D074
:100410003A4E2436A6F15C0703281ED004284DD19D
:100420003BE0A77007208847E3E752E0ADF8126091
:10043000CDF804808DF80070ADF8106027713FE0B2
:10044000CDF804808DF800702889ADF81200A888D6
:10045000ADF8100084F804A032E0A88AADF81200CC
:10046000288AADF810002548243001F0ABFB18B104
:10047000287808B1607810B184F804B01EE01F48F5
:100480008DF808A0039687F8039000213838FFF70D
:1004900027FE00281DD105202BE0A88BADF8100009
:1004A000288CADF812001548243001F08BFB18B1F0
:1004B000287808B1607878B184F80490607918B130
:1004C000684673DF002804D1E16809B120798847C4
:1004D000002007B0BDE8F08F08488DF808A003960B
:1004E00087F8039000213838FFF7FAFD0028F0D193
:1004F00006202071E2E700004C2800201C2D00207F
:1005000070B5054601461C221048FEF7D1FF104C7D
:1005100000262670286838B10168A1604068E06054
:1005200004F108007ADF02E0094808307BDF002888
:100530000BD14FF6FF7060806670BDE870400448D4
:100540000021044A001DFFF7BBBC70BDE82D002050
:100550006C2800202D1A020070B5204C068800255A
:100560001D49E289102E16D00B46112E5B681ED055
:10057000122E2BD0502E19D130F8061F914215D1D2
:10058000018B022912D1807E10F0010F13D0BDE83B
:10059000704000F04BBB83884B80D0F816300B6165
:1005A000D0F81A0048614D70002AF0D070BD4FF6A7
:1005B000FF7048804D701846FFF764FD0028F5D0A5
:1005C000A1690029F2D0BDE87040084750F8062F15
:1005D0000A6140684861DAE76C280020E82D0020B5
:1005E0007CB5054608880C460930904201D90C209C
:1005F0007CBD684671DF0028FAD121880820685444
:1006000020881B21401C80B2208029542088401C57
:1006100080B220802844DDF801100160BDF805108B
:1006200081802088801D80B220809DF8001001B15B
:10063000012129542088401C208000207CBD10B559
:10064000044600F0B5FF2046FFF786FF2046BDE8D0
:100650001040FFF707BE00001CB5002348221349D5
:10066000082001F0DDF818B100221146FFF756FB13
:100670000020009001908DF80000684660DF18B1FE
:1006800000221146FFF74AFB094801F0BFF818B1F4
:1006900000221146FFF742FB064801F0D9F8002876
:1006A00003D000221146FFF739FB1CBDE02B0020D0
:1006B0003F060200651802002DE9F04707460024B6
:1006C000234802E0641C042C3FD250F82420BA4294
:1006D000F8D1042C39D2DFF87C90DFF87C80A9F1C6
:1006E0001006F06939B301290ED002292DD104EB8F
:1006F000440040444578002D27D0F168002924D0DB
:100700002846BDE8F047084704EB440118F80150BB
:10071000884498F8011049B171680E4A01EB8101D3
:1007200049000F3AFFF768FC00B9777098F802109B
:1007300009F80410DFE7FFF7A5FC04EB440141448E
:1007400019F804008D78A842D5D0BDE8F0870000E4
:10075000D41B02003C280020D82C002070B50023B8
:10076000042810D20D4D00EB4004012A02D10129CA
:100770000CD00022094E00EB4000304461B1012949
:1007800006D0022906D00723184670BD0D30C2B22C
:100790002A55F9E74270F7E78270F5E7D82C002078
:1007A000044A01460020127AD20702D0084600F01F
:1007B00055B870472C28002070B50E4621490546D3
:1007C00000204E60C1E90252A9071BD50024012276
:1007D00011462046FFF7C2FF641C042C02D20028F9
:1007E000F5D00FE070B9720804211748FFF75CFAE2
:1007F00040B9FFF747FA28B91248144A00211C30C3
:10080000FFF75EFBE9070AD0114A4FF4F0111160BF
:100810000F4B00221B1D1A600D4A10321160002878
:100820000FD108480B4A00211430FFF749FB00287C
:1008300007D1BDE8704003480121074A1830FFF78F
:100840003FBB70BD2C280020E41B0200750A02008B
:1008500008050050B50E020065FC01002DE9F05FAF
:1008600007467448DFF8C8910022416809F1040482
:10087000251DD0F814C04FF4A01A4FF400334FF4E4
:10088000802B01EB810E1646182F12D2DFE807F0FD
:100890000C12123344536075778077808B8F8F8F63
:1008A0008F8FB1B9BFC5CBCB4FF4B01121602E6093
:1008B0000670A3E0C4F800A02E60D9F8002082F4EE
:1008C000F012920309D523602E60022F02D14FF45B
:1008D000E16209E04FF47A6206E02B602660022FA5
:1008E00034D000BF4FF4C87207706420B2FBF0F040
:1008F000414300223CE0C4F800A02E60D9F800205B
:1009000082F4F012920304D523602E604FF44872F3
:10091000EAE72B60266019E0C4F800A02E60D9F841
:10092000002082F4F012920302D523602E60D1E7FA
:100930002B602660D6E7C4F800A02E60D9F800200E
:1009400082F4F0129203E4D523602E60C822CBE734
:10095000C4F800A02E60D9F8002082F4F0129203AF
:1009600002D523602E6001E02B602660077018E03E
:100970006046FFF741FB024640E0514643E0D9F8AC
:1009800000002BEA0002226000F48020286008E0CA
:10099000D9F800002BEA0001216000F480202860D3
:1009A00071460022E4E74FF4F01028601FE0804613
:1009B0008069FFF767FB0246D7F111004FF400276B
:1009C00000D012B127602E6018E001280ED9C8218E
:1009D00010FB01F16420B1FBF0F1D8F80420D8F845
:1009E000180051430022FFF707FB02462F602660E4
:1009F00004E04FF4F01121602E6007701046BDE84E
:100A0000F09F4FF4E01121602E602B600EE04FF458
:100A1000D01121602E60594607E04FF4C0112160CB
:100A20002E60891001E04FF4F01129602660E4E7A0
:100A3000040500502C28002070B500210C4D012425
:100A400055F82120920002F1A042D2F8006704FA82
:100A500001F3034000D0032326F4403646EA034363
:100A6000C2F80037491C0429EAD3002070BD0000F9
:100A7000D41B020000780221FFF71EBE05494FF08B
:100A8000FF3201EB800308285A6002D3084480F843
:100A90004C207047042E0020F0B54FF0FF3512B106
:100AA0000023082601E008230C260D4C06E000BFB9
:100AB00004EB83077F687F1C04D05B1CB342F7D331
:100AC0002846F0BD26185DB286F8345004EB830644
:100AD000002A7160F4D1E11881F84C00F0E70000C1
:100AE000042E00200249084490F9340070470000A9
:100AF000042E00202DE9F05F254801694A1C41D0F1
:100B0000826801EBC101DFF88CB002EB8101814604
:100B10004E68DBF8004047690079E11B21F07F4512
:100B2000ED1CB0B9DFF870804FF48030C8F8440392
:100B3000C8F804031120FEF789FD1120FEF791FD8E
:100B40004FF0010AC8F800A02F20FEF763FC89F8D7
:100B500004A0B54200D235460E49E8193C3120F0D8
:100B60007F400860DBF80010001B091B21F07F416B
:100B700020F07F40C91C814208D9BDE8F05F1120F8
:100B8000FEF77ABDBDE8F05F00F0B4BDBDE8F09FB0
:100B9000D028002004150140001001402DE9F0414B
:100BA00017880646B81D14460D46984202D90C20F7
:100BB000BDE8F0813188072206290AD34FF4486C3A
:100BC0004FF6FF73614501D9994202D1708806281A
:100BD00001D21046ECE7604501D99842F9D199421B
:100BE00003D0984201D08142F3D80520E8552088EF
:100BF0001221401C80B2208029542088401C80B2E1
:100C000020804119308800F00BFF2188084480B211
:100C100020804119708800F003FF2188084420805B
:100C20000020C5E700221146FFF778B8F8B5124852
:100C300000F008F9104D0026104C103D30B16169EC
:100C4000B1B101208DF80000684610E0287820B18D
:100C5000616969B18DF80060F6E7687850B1A16804
:100C600000226868FFF7C8F910B1A16901B188478F
:100C70002E70F8BD6168F3E77C280020E82D002085
:100C80002DE9F04100260125144C22E060686269DC
:100C900000EBC607387805FA00F1114217D08A43F5
:100CA000626100F0EDFB02463878236905FA00F135
:100CB000194002FA00F3994209D17978012901D04B
:100CC000012100E0002151407A6802B19047761C72
:100CD000F6B220788642D9D3BDE8F081A82800205A
:100CE0000E4910B58A78CC780023A24212D0521C4B
:100CF000D2B28A70022A00D18B70084A8B781C32DB
:100D000052F8232002604869104420F07F40486177
:100D1000012010BD0360002010BD0000D02800207D
:100D20002DE9F043154E89460024B768336920E069
:100D300003EBC30107EB81014D68854202D9281AF4
:100D4000486018E0401B2C4400254D600D751D4681
:100D5000D1F810C00B6ABCF1000F0AD009EB0408EF
:100D600028F07F48C1E9028CD2F800C0C1F820C049
:100D70001560591CDCD13361BDE8F083D028002018
:100D800070B5114C06460125B540E068FFF77AF9C9
:100D900000280CD16169294207D1304600F070FB70
:100DA0000028206904D0284303E0A943616170BD95
:100DB000A8432061606928436061D4E90210BDE85E
:100DC00070400022FFF718B9A8280020F8B51C4C85
:100DD0002078002832D0206928B10026E06820B1B0
:100DE000002526B112E00126F8E70125F9E768465B
:100DF00051DF052805D030B100221146FEF78EFFE5
:100E000004E0012602E021690098884795B96088CE
:100E1000ADF800006946A06861DF052805D030B153
:100E200000221146FEF77AFF04E0012502E0D4E932
:100E300002018847002EDAD0002DD2D0F8BD000084
:100E4000F4280020054940880A88904204D3498844
:100E5000884201D801207047002070477428002084
:100E600030B51488E51C9D4201D90C2030BD022507
:100E70000D5513881C245B1C9BB21380CC54138823
:100E80005B1C9BB21380012807D0022807D00328DF
:100E900007D0042807D0072030BD002004E001203F
:100EA00002E0CD5401E00320C8541088401C10809B
:100EB000002030BD0348017AC90702D00078FFF74F
:100EC000CDBC70472C2800202DE9F04726484FF074
:100ED000000980464578D0F810A038E0D8F80C001A
:100EE00000EBC50634782FE004EB44017068641C05
:100EF00000EBC100B178E4B2A14200D10024017836
:100F0000022902D003291FD115E04068D8F8081043
:100F100000EBC00201EB8207397DA9B100F0DAFCD9
:100F200087F8149010E000BF00EBC00002EB8000D7
:100F30000375006A04E0D8F80820D8F810004B4682
:100F4000471CF1D1C8F810007078A042CCD16D1EBA
:100F5000EDB2C3D2D8F81010514502D00120BDE83F
:100F6000F0870020FBE70000D02800202DE9F047A3
:100F700004463D48002781464678D0F810A067E037
:100F8000D9F80C1001EBC6055CE0601C08D02246C5
:100F9000D9F8080004EBC20100EB8100046A2FE0DD
:100FA0002878696800EB4002401CC0B201EBC20126
:100FB0002870AA78904200D12F704A68D9F808C0EA
:100FC00002EBC2000CEB800091F800C0BCF1010FF5
:100FD0003AD190F814C0BCF1000F35D1D1F808C057
:100FE000C0F808C0D1F80CC0C0F80CC0D1F810C0CF
:100FF000C0F810C04969C16199F8051001B1876056
:101000008368D9F814C0DFF86480A3EB0C0121F0E9
:101010007F41414502D2C368194407E0ACEB0301AC
:10102000C36821F07F418B4202D9591A416000E028
:10103000476087600121C7600175891E0162104603
:1010400000F012FC601CA0D12878697888429CD1FD
:10105000761EF6B294D2D9F81010514502D0012074
:10106000BDE8F0870020FBE7D0280020FFFF7F00CD
:1010700098B0574805220090564B11460020FEF7C5
:101080005FFF18B100221146FEF748FEFFF7E4FAB1
:10109000002240F6CD410320FFF78EFB18B100225D
:1010A0001146FEF73BFE4C4A0A210820FEF7F2FEED
:1010B00018B100221146FEF731FE9DF8080047A145
:1010C00020F00F00401C20F0F00010308DF80800D8
:1010D0000F2202A87CDF18B100221146FEF71EFE87
:1010E00000244FF4C87000940194ADF80000410052
:1010F000ADF80440ADF80600ADF8021068467ADF9E
:1011000018B100221146FEF709FE382101A8FEF7AA
:10111000E8F902208DF8040001258DF8065006201C
:101120008DF8070031480690ADF8145024210FA81F
:10113000FEF7D7F940201390B420009414908DF856
:1011400048502B4B0FAA002101A8FEF7FDFF18B154
:1011500000221146FEF7E2FD1C216846FEF7C1F9A8
:101160004FF42030CDE900404FF47020029003206E
:101170008DF80C001F4805901F480690ADF80E40F2
:101180008DF810406846FFF7BBF918B100221146F0
:10119000FEF7C4FD1548001D017821F01E0141F045
:1011A00001010C3121F02001017007214170102153
:1011B00081700320FFF7B8F803E000BFFEF75AFE86
:1011C00048DF0028FAD000221146FEF7A7FDF5E718
:1011D00029FF01000C290020282C00204E6F72648A
:1011E00069635F54656D706C61746500022800204E
:1011F0006D1502006D160200250C020070B5144634
:1012000082880E4605462088111D0144921C994291
:1012100001D8FE2A01D90C2070BD521C32542088FE
:10122000FF21401C80B2208031542088401C80B2B5
:1012300020808119288800F0F3FB2188084480B2BF
:101240002080AA8842B1A96841B13044FEF730F944
:101250002088A98808442080002070BD072070BD28
:10126000F8B50E46017814460546012901D1687883
:1012700030B12088821C9A422DD8012902D006E084
:101280000720F8BD69780144891C994223D8181AAF
:10129000801E87B2ADF800702188B01C08446946F2
:1012A0007DDF0028EDD12878022805D1BDF8001097
:1012B000B94201D809210AE00821012805D168783E
:1012C000B84202D8ADF8000001E0ADF80070BDF8FA
:1012D0000000FE2801D90C20F8BD2288401CB05423
:1012E0002088401C80B2208031542088401C2080FF
:1012F000BDF80010084420800020F8BD4907090E01
:10130000002806DA00F00F0202F1E02282F8141D34
:1013100003E000F1E02282F8001400F01F02012136
:1013200091404009800000F1E020C0F88012C0F830
:10133000001170472DE9F0410E46054600F0B0F966
:1013400001240028284619D0FFF7CCFB1B49083898
:10135000084490F854008009032802D0012805D0E1
:1013600006E017480068AC40204201D1022100E0AD
:1013700003212846BDE8F04100F0CDB800F09CF90B
:10138000002818D02846FFF7ADFB05460D4F4FF457
:10139000807007EB850100EB8500D1F8102580B245
:1013A00042F00102C1F8102500F0C4F8002E02D06E
:1013B000AC40C7F80443BDE8F0810000042E0020D3
:1013C00010050050006000402DE9FC41DFF8A480CA
:1013D000044608EB0400002790F934001346C017B8
:1013E0000E46401C01D0082740E0F27819462046FE
:1013F000FFF752FB0546401C37D0B07848B1A0003B
:1014000000F1A040D0F8001721F00201C0F8001749
:1014100007E000217378204600910A46019100F010
:1014200069F8F078C0B11448317800EB8500D0F845
:101430001025124B1A40C0F810254FF4F8524FF403
:10144000403302EA042203EA01410A43D0F81015AE
:101450000A43C0F8102509E008EB0500327810F8BF
:101460004C1F41EA8211017000E004273846BDE8B4
:10147000FC810000042E002000600040FFE0FCFF23
:1014800003490968C14011F0010000D001207047F4
:101490001005005070B5114D287808B1082070BDB6
:1014A0000020411E2A18401CC0B282F834102028A7
:1014B000F8D300242046FFF7E1FA641CE4B20C2CB8
:1014C000F8D301210620FFF719FF05494FF000402E
:1014D000C1F8040301202870002070BD042E0020F4
:1014E0000060004002480078002800D001207047CA
:1014F000042E002030B541EA4201DDE9034541EA0E
:101500008301800041EA042100F1A04041EA054145
:10151000C0F8001730BD800000F5E06000F1A04089
:10152000026822F440320260026842EA014101602E
:1015300070470000034908B50844002101600068B5
:10154000009008BD0060004002494058012800D0CA
:1015500000207047006000404058002800D0012063
:1015600070474058002800D00120704710B528B1BE
:1015700003281CD10220FFF713F910E00020FFF729
:101580000FF918B100221146FEF7C8FB0120FFF742
:1015900053FA18B100221146FEF7C0FB3CDF0028C9
:1015A00005D00022BDE810401146FEF7B7BB10BDC4
:1015B00070B52C4D044601882888142931D00BDCE5
:1015C000102919D0112922D013291FD1AA1D05F1E4
:1015D000140300217FDF07E017291BD0522915D102
:1015E000032300221146A9DF00280FD0BDE8704078
:1015F00000221146FEF792BB0720FFF7D1F818B181
:1016000000221146FEF78AFBA088288070BD4FF6A5
:10161000FF70FAE7D4F8060045F80B0F6089A88040
:1016200070BD0A22104904F10E00FDF765FFB8B144
:1016300000200C490B310B7913EA000101D00A4953
:101640001239C3F34002024001D0074A0A32C3F301
:101650008003034001D0044B2133288882DFC3E795
:101660000120E6E700280020AE2B002000780028AB
:1016700009D105483B21008876DF002803D00022ED
:101680001146FEF74BBB7047002800200021425C4A
:101690000AB101207047491C0629F8D30020704781
:1016A0000449084490F93400082801DB0120704700
:1016B00000207047042E00200449084490F93400AB
:1016C000082801D20120704700207047042E002016
:1016D00006490979490701D40820704720B1044917
:1016E00049780160002070470E2070478428002050
:1016F000742E002070B5012670044FF0E021002503
:10170000C1F88001084C4010C4F84803C4F808032D
:1017100066602F20FDF77EFEA660044C2F206561D9
:10172000FDF778FE257170BD00100140D028002023
:1017300006480021C0F80811D0F818150448037DA8
:10174000C268D154017D491C0175704700200040DA
:101750005C2E00201FB501218DF8080005488DF88A
:101760000010C16801910021C174D0E900126846DF
:1017700090471FBD5C2E00202DE9F0410746806A8E
:1017800014468846C8B3002531E000BFB96A05EBAE
:10179000450001EB8006B088801CFE2802D90C2091
:1017A000BDE8F0812288401C08F80200208816223B
:1017B000401C80B2208008F800202088401C80B2A5
:1017C000208000EB0801308800F02AF921880844C5
:1017D00080B22080B28842B1B16871B14044FDF757
:1017E00067FE2088B188084420806D1CEDB297F810
:1017F0002C00A842CAD80020D2E7FFE70720CFE795
:1018000010B508461146AFF3008010BD18B103496A
:10181000C860002070470E2070470000F4280020A8
:1018200070B509B18C0701D0072070BD064C0125A9
:10183000A16062800549636010DF0028F5D1257042
:1018400016202EDF70BD0000F428002001180200D1
:1018500018B103490861002070470E20704700004E
:10186000F4280020FEF73EBDF0B5194C00EBC00196
:10187000A36803EB810521694A1C0AD001EBC1066C
:1018800003EB86076A687E68B24204D8B21A7A60AF
:1018900029622061F0BD0C4602E00C46316AD21B81
:1018A0004E1C0DD001EBC10703EB8706776897420A
:1018B000F3D301EBC10603EB86067768BF1A7760A6
:1018C0006A60296204EBC40103EB81010862F0BD88
:1018D000D028002070B51C4B1A699C68154611462B
:1018E00007E0814208D00A4601EBC20604EB8601FC
:1018F000096A4E1CF5D170BD002EFCD08A420DD174
:1019000005EBC50004EB8000006A1861401C05D19E
:101910000E4D0120A86000255D61587101EBC100EA
:1019200004EB800002EBC202416804EB8202006A11
:101930001062421CDFD000EBC00004EB8000426864
:101940001144416070BD0000D0280020001001400B
:101950002DE9F0411E4C2569681C37D01D48002632
:1019600001686069081A20F07F4718E0A16805EB5C
:10197000C50001EB80025068B84212D8156AA3690D
:101980003F1A064443B1D2E90601984738B1002214
:101990001146FEF7C3F902E0D2E906108847681C39
:1019A000E4D1A178E078814206D1401CC0B2E07059
:1019B000022801D10020E0700548E1781C3040F891
:1019C0002160BDE8F0411420FDF756BEBDE8F0816E
:1019D000D028002004150140064A0020C2F81C014E
:1019E0000548038A8168C95C038A5B1C0382C2F8CC
:1019F0001C157047002000405C2E00201FB5002100
:101A00008DF8080005488DF80010826801928174F5
:101A1000D0E90012684690471FBD00005C2E0020F0
:101A20000870000A487002207047000038B5154958
:101A30004888A0F57F42FF3A23D04A78124C521CC6
:101A4000D2B24A70237B93420AD3083175DF002853
:101A500017D0A169002914D001B0BDE83040084773
:101A600000254D70217C29B13B2176DF10B1A169A1
:101A700001B188476169002903D08DF8005068469C
:101A8000884738BD6C280020E82D00200F480068EA
:101A9000C005C00D13D0103840B2002806DA00F09F
:101AA0000F0000F1E02090F8140D03E000F1E020B9
:101AB00090F800044009012803D0032803D0022035
:101AC00070470020704701207047000004ED00E0DF
:101AD00042788378521C934200D1002203789342CB
:101AE00001D1002070470A604168407800EB400057
:101AF00001EBC00070472DE9FC411646DDE90854B2
:101B0000CDE900541F468046022200F00CF8002860
:101B100007D1CDE900543B4610223146404600F043
:101B200002F8BDE8FC812DE9FC5F0026DDE90C4BE5
:101B3000994692468E4680462788354630E0D8F84A
:101B40000400002200EB850069460068019001A8AE
:101B500065DF002830D19DF8000050451FD10EB13F
:101B6000002100E00221228808441118594522D89A
:101B700046B9521C90B2208009F800E02088401C31
:101B800020800126218801A801EB0902694665DF52
:101B9000002811D120889DF80010084420806D1C79
:101BA000B8F80000A842CADC56B12088C01B401E0D
:101BB00080B2FF2802D90C20BDE8FC9F09F807007D
:101BC0000020F9E7017911B9007B002800D001203D
:101BD000704700000D0000000E0000000F00000024
:101BE000100000000D000300B90602000E00030003
:101BF000B90602000F000300B9060200100003003E
:101C0000B906020003000000281C02000028002082
:101C10000C01000044FA0100341D02000C290020D0
:101C2000DC27000054FA0100FFFF0F18010000003C
:101C30000000000000000000000000009C2B0020BD
:101C4000B82B0020CF2B0020000000000000000077
:101C50000000000000000000000000000000000084
:101C60000000000000000000000000000000000074
:101C7000000000000000000000000000FFFF000066
:101C80000000000000000000000000000000000054
:101C90000000000000000000000000000000000044
:101CA0000000000000000000000000000000000034
:101CB0000000000000000000000000000000000024
:101CC0000000000000000000000000000000000014
:101CD0000000000000000000000000000000000004
:101CE00000000000000000000000000000000000F4
:101CF00000000000000000000000000000000000E4
:101D000000000000000000000000000000000000D3
:101D100000000000000000000000000000000000C3
:101D200000000000000000000000000000000000B3
:041D30000090D0034C
:040000050001F40101
:00000001FF
