:020000021000EC
:10F000000080002091380200C1380200C33802009D
:10F0100000000000000000000000000000000000F0
:10F02000000000000000000000000000CB380200DB
:10F030000000000000000000CD380200CF380200C0
:10F04000D1380200D1380200D90B0200D1380200B9
:10F05000D1380200D13802000D070200D138020079
:10F06000D1380200D1380200D1380200D138020074
:10F07000D1380200D1380200D1380200D138020064
:10F08000D138020061FA0100D1380200D138020003
:10F0900039FB0100D13802005D380200D13802008E
:10F0A000D1380200D1380200D1380200D138020034
:10F0B000D1380200D138020000000000000000003A
:10F0C000D1380200D1380200D1380200D138020014
:10F0D000D1380200D138020000000000000000001A
:10F0E0000000000000000000000000000000000020
:10F0F0000000000000000000000000000000000010
:10F1000000000000000000000000000000000000FF
:10F1100000000000000000000000000000000000EF
:10F40000154B002B08BF134B9D46A3F5803A0021F6
:10F410008B460F461348144A121A00F065F80F4B3A
:10F42000002B00D098470E4B002B00D098470020AF
:10F43000002104000D000D48002802D00C48AFF355
:10F44000008000F02BF82000290002F0F7FA00F00D
:10F4500011F800BF0000080000800020000000003C
:10F46000000000008028002044310020000000003F
:10F470000000000008B5074B044613B10021AFF3AC
:10F480000080054B1868836A03B19847204600F056
:10F4900033F800BF000000003839020070B50E4B91
:10F4A0000E4CE41AA41000251E46A54204D056F8BE
:10F4B000253098470135F8E704F030FA084C094B3D
:10F4C000E41AA41000251E46A54204D056F82530A3
:10F4D00098470135F8E770BD80280020802800207B
:10F4E000802800208028002002440346934202D056
:10F4F00003F8011BFAE77047FEE700BF2DE9F84F5C
:10F50000234B1A788AB3DFF88CB0DFF88C80DFF8F1
:10F510008C9000244FF0010A03E00134E4B29442DD
:10F5200023D226B2D8F80050DBF8003015F83600A8
:10F530000AFA00F1194205EBC607EED0154A23EA94
:10F540000103136001F0D8F815F83650D9F80030EF
:10F550000AFA05F10B4000FA05F18B4207D00C4B7B
:10F5600001341A78E4B29442DBD3BDE8F88F79789D
:10F570007B68A1F10101B1FA81F14909002BEED0BC
:10F58000091A2846B1FA81F149099847E7E700BF0F
:10F590008828002094280020842800208C2800201F
:10F5A000F8B5134D0746286800F076FE40B9114EB5
:10F5B00001243368BC401C4203D023EA04043460B5
:10F5C000F8BD384601F098F80B4F3A6860B1224315
:10F5D00033680A493A601C4334602868096800228D
:10F5E000BDE8F84000F0E0BD22EA0402F0E700BF09
:10F5F00090280020942800208C28002080280020BB
:10F60000F0B5042A85B0174602D8072005B0F0BD32
:10F610000191054600F01CFF0199002830D01C4CD8
:10F62000DFF888E01B481C4A1C4B256000264C1E56
:10F6300007608EF8001016601E60E4B2032709B957
:10F6400018E01C4623B205EBC30215F8330093788B
:10F65000134A8DF80D3003A98DF80C708DF80E60EB
:10F660008DF80F6000F0FCFE631E0028CED1DBB2E7
:10F67000002CE6D10B4A0C48002100F067FDC5E7DD
:10F68000019100F0AFFE01990028C8D0BEE700BF8D
:10F6900084280020802800208C2800209428002026
:10F6A000A1F50100FDF40100902800208828002029
:10F6B00070B5084D2B785BB1074E002433680121EB
:10F6C00013F8340000F0BEFF2B780134A342F5D8C4
:10F6D000002070BD8828002084280020BFF34F8FB1
:10F6E0000449054BCA6802F4E0621343CB60BFF3E0
:10F6F0004F8FFEE700ED00E00400FA0536DF7047AB
:10F7000037DF704712F0030301D0072070472DE95F
:10F71000F0414C1C0546DFF83C800B480B4F0C4E6B
:10F72000DFF834C0DFF834E088F80030E400A4B239
:10F73000144403703D803180CCF80040CEF80020A6
:10F740001846BDE8F08100BFA2280020A0280020B4
:10F75000A4280020A32800209C280020982800200E
:10F760002DE9F0474B4D2B888B4282B00C4603D2DB
:10F77000092002B0BDE8F0871746474B00228DF8FC
:10F7800007205B68C3F308030646002B42D14FF005
:10F7900004080DF10700FFF7B1FF022854D000283C
:10F7A0005DD13E4B3E4A3F49187813780988DBB259
:10F7B0008B4238BF0133C0B234BFDBB20023984262
:10F7C00038D092F800901378DBB28B423ABF013305
:10F7D000DBB20023B8F1010F13700BD062B69DF8B5
:10F7E0000700FFF78DFF30F002033DD14FF6FF73A6
:10F7F000994522D0DFF8B8A0DAF800304FEAC908FE
:10F8000043F83970434406B19CBB0020988002B095
:10F81000BDE8F087103B5AB2002A17DB02F16043C3
:10F8200003F5614393F800834FEA5818B8F1010FCC
:10F83000B7D0AEE7B8F1010F03D1042002B0BDE8A4
:10F84000F0874FF6FF79C9E772B6AAE7164A03F0C8
:10F850000F031A4492F818804FEA5818E6E700217F
:10F860000A46FFF73BFF9CE700210A46FFF736FFF9
:10F87000BCE70E4B28881B68314600FB0930224646
:10F8800004F038F8DAF8003098440020A8F8044072
:10F890006FE700BFA028002000ED00E0A2280020B4
:10F8A000A3280020A4280020FCEC00E09C280020D5
:10F8B000982800202DE9F843164C174D22782B7814
:10F8C0009A4225D0154FDFF85C90DFF85C80144E2B
:10F8D000207823783A88D9F80010B6F800E0DBB237
:10F8E0009A4203F101038CBFDBB20023C0B2237044
:10F8F00003B2D8F8002001EBC30C0EFB002051F836
:10F900003330BCF80410984722782B789A42DFD124
:10F91000BDE8F883A2280020A3280020A428002006
:10F92000A0280020982800209C280020484B494807
:10F9300030B401214FF480344FF400352F22C0F849
:10F940008050C3F848431046C3F808435960013853
:10F9500000BF00BF00BF00BF00BF00BF00BF00BFAF
:10F9600000BF00BF00BF00BF00BF00BF00BF00BF9F
:10F9700000BF00BF00BF00BF00BF00BF00BF00BF8F
:10F9800000BF00BF00BF00BF00BF00BF00BF00BF7F
:10F9900000BF00BF00BF00BF00BF00BF00BF00BF6F
:10F9A00000BF00BF00BF00BF00BF00BF00BF00BF5F
:10F9B00000BF00BF00BF00BF00BF00BF00BF00BF4F
:10F9C00000BF00BFC3D1244C9960002310462360C0
:10F9D000013800BF00BF00BF00BF00BF00BF00BFB5
:10F9E00000BF00BF00BF00BF00BF00BF00BF00BF1F
:10F9F00000BF00BF00BF00BF00BF00BF00BF00BF0F
:10FA000000BF00BF00BF00BF00BF00BF00BF00BFFE
:10FA100000BF00BF00BF00BF00BF00BF00BF00BFEE
:10FA200000BF00BF00BF00BF00BF00BF00BF00BFDE
:10FA300000BF00BF00BF00BF00BF00BF00BF00BFCE
:10FA400000BF00BF00BFC3D1044A137030BC704771
:10FA50000010014000E100E0A8280020D02800208C
:10FA60002DE9F8432B4B2C4A0026C3F84061C3F81C
:10FA70004461C3F84861C3F84C61C3F80061C3F83E
:10FA800004611468621C38D0244AD3F80435156820
:10FA9000234FDFF8A0805D1B25F07F4501E0631C4C
:10FAA0001DD03A6804EBC40402EB84035A68AA42EE
:10FAB00015D8D3F818901C6AD8F800C0DB694846FE
:10FAC0001946AD1A1644BCF1000F18D0E0470028C3
:10FAD000E5D000210A46FFF701FE631CE1D1114B7E
:10FAE00011491A780B789A420CD01049104A41F803
:10FAF00023604FF48013C2F80031BDE8F883184644
:10FB0000C847CCE7531CDBB2022B08BF00230B70A5
:10FB1000EBE700BF00100140C0280020A82800200B
:10FB2000B0280020BC280020BD280020C8280020C4
:10FB300000E100E0AC2800202DE9F04FB94ABA49B5
:10FB400013780978B94889B000680290994200F0AA
:10FB500058820133DBB2022B08BF00231370B44A72
:10FB600052F82330029A05931344B04A23F07F439E
:10FB7000136001230493AF4BAF4A1B7800931C46DC
:10FB8000AE4B12681B680193AD4B07921868AD4BE2
:10FB90001B780393A54B1B68069311461346A34697
:10FBA00000260BF1FF3B5FFA8BFBBBF1FF0F6DD023
:10FBB000019D0FFA8BF205EBC20815F8322098F878
:10FBC0000150AA42EDD002EB4207D8F8044098F861
:10FBD00002C014F837E00132D2B2944508BF0022C7
:10FBE000BEF1020F04EBC70412D0BEF1030FE8D13F
:10FBF0004F1C18BF0B46E4D003EBC30300EB83019B
:10FC00000B6A0E755C1CF7D198F801501946D8E7BD
:10FC1000D4F804E04FEACE0909EB0E0C00EB8C0C93
:10FC20009CF814A0BAF1000FCBD04C1C0FD08E451D
:10FC300000F0A8810F4602E0AE450DD02F4607EB3D
:10FC4000C70400EB8404256AB5F1FF3FF4D18CF8BA
:10FC5000146098F80150B4E7BE4500F0808109EBCC
:10FC60000E0500EB85052F6AD5F804E027627D1CA0
:10FC7000EDD007EBC70700EB870519466C687444A5
:10FC80006C608CF8146098F801509AE76D4A9DF802
:10FC90000C001070654A06981060674A0391136063
:10FCA000049A002A40F07C81079B039F5B1A18BFCF
:10FCB000012304934FF0FF3E604B1B680293604B9F
:10FCC0001E685A4BD3F800A05B4BD3F800B05D4BD5
:10FCD0001B7801934FF00008009B013BDBB2FF2B28
:10FCE000009300F0B5801A46029B744603EBC209EC
:10FCF000621C42D004EBC40006EB800025468268FB
:10FD0000D0F80CE0046A5049CAEB020323F07F43A9
:10FD10008B4251D8734443604FF0010303754FF099
:10FD2000FF339F42C0F80880C0F80C80036275D092
:10FD300007EBC70306EB8303D0F804E059688E4550
:10FD400060D9BC4603E05968714563D294461A6A8B
:10FD5000C1EB0E0E02EBC203511C06EB8303F2D182
:10FD60000CEBCC0C06EB8C0C3B46C0F804E00262BA
:10FD70001F46CCF82050621CBCD199F8003099F88D
:10FD800001209A4262D05A1C99F80200D9F8041056
:10FD9000D2B203EB4303904289F8002008BF89F8F0
:10FDA000008001EBC30C11F83330DCF80450012B58
:10FDB0000ED03B461F46DEE7C2EB0A0222F07F422E
:10FDC00072453ABFC2EB0E024260C0F80480A3E75E
:10FDD00005EBC50006EB8000037D002BE9D1DCF8C4
:10FDE00008208260DCF80CE0C0F80CE0DCF81010B1
:10FDF0000161DCF81410C1610199002983D083608E
:10FE00001A4680E7CEEB010159602B460762AB46EC
:10FE10001F46B0E7CEEB01015960A1E72B46AB4688
:10FE20001F46A8E7BC280020BD280020A8280020E5
:10FE3000C8280020B4280020C0280020B8280020AE
:10FE4000B0280020C4280020FEFF7F00A64643E71C
:10FE5000744BC3F800B0039B9F4200F097807B1C5B
:10FE600000F0DD80704C714B714A1B681268D4F849
:10FE70000415704D07EBC70702EB87072878D7F802
:10FE80000480CA1A22F07F42033200284CD16A4F04
:10FE90004FF4803C4FF4003E0126C4F844C32F20A9
:10FEA000C4F804C3C7F880E1C7F800E02660013851
:10FEB00000BF00BF00BF00BF00BF00BF00BF00BF4A
:10FEC00000BF00BF00BF00BF00BF00BF00BF00BF3A
:10FED00000BF00BF00BF00BF00BF00BF00BF00BF2A
:10FEE00000BF00BF00BF00BF00BF00BF00BF00BF1A
:10FEF00000BF00BF00BF00BF00BF00BF00BF00BF0A
:10FF000000BF00BF00BF00BF00BF00BF00BF00BFF9
:10FF100000BF00BF00BF00BF00BF00BF00BF00BFE9
:10FF200000BF00BFC3D12E7042452CBF9A1803EB0F
:10FF300008023D4822F07F43C0F84035D0F8042540
:10FF4000521A22F07F425B1A033223F07F439A4217
:10FF500020D9394B4FF40032C3F800211AE001EBED
:10FF6000C10100EB810325461B6A5F1C01D01946C5
:10FF700079E62D4901278F600027CDF80CA019469E
:10FF8000069770E6654663466446EDE7049B002BE2
:10FF90007FF465AF294A0023137009B0BDE8F08FE4
:10FFA000234A059D1768002401EBC102481C264620
:10FFB0004FF0FF3E9C4607EB82021AD05068A842E1
:10FFC00023D8136956602D1A04441675D2F820C040
:10FFD00043B10298C2F820E0201820F07F40D3609F
:10FFE0008E469060614601EBC102481C07EB82021D
:10FFF000E4D10C4A03910123C2F800C004930F46D8
:020000022000DC
:100000005AE6002305930493B5E5401B5060054A6A
:1000100003910123C2F800C004930F464CE6FFF79A
:1000200085FCB7E7C028002000100140A828002068
:10003000B0280020D028002000E100E0C4280020E3
:100040002DE9F04F13F0030585B003D0072005B06C
:10005000BDE8F08F0392029101900093002BF5D040
:100060002F4F304E304CFFF761FC0E9B02993B60E6
:10007000009B317023600198039A51B109B201EBE2
:10008000C10603EB86061C46257025752434B44250
:10009000FAD101EBC1018C002449254FDFF898E02B
:1000A000DFF898B0DFF898A0DFF89890DFF8988034
:1000B0001D1902EB42060D6005F1180C0021F60037
:1000C00019550CEB06031E44AA70AA72AA74C5F84F
:1000D00004C06E614FF4801C602603244FF0FF3291
:1000E000EB60697029726972297469748BF8001069
:1000F0008AF8001089F80040C8F80020C7F880C1CD
:1001000087F81463C7F800C0CEF8080587F81163B4
:10011000084BDEF804251A60084605B0BDE8F08FEC
:10012000AC280020BE280020B0280020B8280020DD
:1001300000E100E0A828002000100140BC280020B9
:10014000BD280020B4280020C0280020F0B5144BA2
:100150001E68C6B1A2B198B1124B1F786FB1337847
:10016000A3B106F12404002303E014F8245B9E46A7
:100170006DB10133BB422646F7D104231846F0BDCA
:1001800007231846F0BD08231846F0BD9E460123FC
:1001900033707170B2610023C0F800E01846F0BD02
:1001A000B0280020BE280020344B1B688BB1F0B56E
:1001B000334C2478844201D80720F0BD0429FBD9B0
:1001C00000EBC004A4001D191B5D012B03D0082007
:1001D000F0BD082070472B4B6C785B68012CC3F393
:1001E00008030CBF0F460027002B3AD0103B5CB22F
:1001F000002C3CDB04F1604303F5614393F80033CA
:100200005B09DBB2012B30D0032B0CBF082310237A
:100210001D4C24681C446378A678257803F1010EF0
:10022000B64508BF4FF0000E75451CD003EB4303E5
:100230006668DB00F51816D04FF0010C06F803C015
:10024000124E6860124BD6F80405A8604FF4801671
:10025000E9602F616A6184F801E0C3F80061002061
:10026000F0BD1023D4E70420F0BD0023D0E7094CF3
:1002700003F00F031C44237E5B09C2E7B028002073
:10028000BE28002000ED00E0B8280020001001404A
:1002900000E100E0FCEC00E02A4B1B6863B12A4956
:1002A00009788142024601D80720704700EBC0015F
:1002B00013F82130012B01D008207047F0B5234BF3
:1002C0005B68C3F3080383B3103B59B2002932DBE8
:1002D00001F1604303F5614393F800335B09DBB23E
:1002E000012B26D0032B0CBF0823102318490968C3
:1002F00019444B788D7808785C1CAC4208BF002408
:10030000A04214D003EB43034868DB0010EB030E5C
:100310000DD0104D0227C7544FF48016CEF804209C
:100320004C70C5F800610020F0BD1023DEE704200A
:10033000F0BD0023DAE7084903F00F0319440B7EF0
:100340005B09CCE7B0280020BE28002000ED00E0CB
:10035000B828002000E100E0FCEC00E0082910B51E
:10036000044604D0002001460246FFF7B7F923688F
:100370006068BDE81040184700B583B08DE8030001
:10038000034A68460821FFF7EBF903B05DF804FB68
:100390005D030200002810B418DB00F1604303F590
:1003A00061434901C9B283F80013C3B24009800018
:1003B00000F1604000F5614003F01F02012393400B
:1003C000C0F8803103605DF8044B7047C3B2044A43
:1003D00003F00F0449012244C9B21176E6E700BFD9
:1003E000FCEC00E038B5184C25780DB1082038BD7C
:1003F0004FF0FF33FF226363A363E363236463640B
:10040000A364E3642365062001216360A360E360C5
:1004100023616361A361E3612362636284F8543002
:10042000A362E36284F85630236384F8573084F87B
:100430005520FFF7AFFF054A4FF000410123C2F8F6
:1004400004132370284638BDD428002000600040E3
:10045000024B1878003018BF01207047D4280020C4
:100460002DE9F041764D2C1894F93430002B02DB45
:100470000820BDE8F08191F803C0BCF1000F7FD0E7
:100480006B68013300F0D78008270026731C9C009E
:1004900005EB0408DFF8A8E1D8F80480B8F1FF3FC5
:1004A00076D0B31C9F4268D99C000EEB0408D8F8A4
:1004B0000480B8F1FF3F6BD0F31C9F425DD99C00D4
:1004C0000EEB0408D8F80480B8F1FF3F60D0331D6C
:1004D0009F4252D99C000EEB0408D8F80480B8F172
:1004E000FF3F55D0731D9F4247D99C00A644DEF8BC
:1004F00004E0BEF1FF3F4BD0B31D9F423DD99C00AD
:1005000005EB0408DFF838E1D8F80480B8F1FF3FC4
:100510003ED0F31D9F4230D99C000EEB0408D8F862
:100520000480B8F1FF3F33D006F108039F4224D97D
:100530009C000EEB0408D8F80480B8F1FF3F27D0E8
:1005400006F109039F4218D99C000EEB0408D8F865
:100550000480B8F1FF3F1BD006F10A039F420CD97B
:100560009C00A644DEF804E0BEF1FF3F10D00B363D
:10057000B74202D92B6B013308D00420BDE8F081CB
:100580006B6A013351D00C2708267FE70B232C24FC
:100590002C442F18DEB2626087F83460BCF1000F83
:1005A00002D12B4483F84C008B78B3B94A784FF0D2
:1005B000A04400F5E073920044F82320CB78B3B94F
:1005C00072B2083A1544097895F8542042EA81122B
:1005D00085F854201846BDE8F081830003F1A0435C
:1005E000D3F8002722F00202C3F80027E6E773B22F
:1005F0009B0003F1804303F5C0430A78D3F810153C
:1006000021F4473121F44071C3F81015120400029F
:1006100002F44031D3F8104500F4F8520A43224363
:10062000C3F810250020BDE8F081082633466A6231
:1006300084F83460B5E700266A6084F83460B3E774
:10064000D428002030B42A4B1A1882B092F83440D3
:1006500062B2072A1CDD134493F84C309B09032B2C
:1006600039D0012B0CBF4FF400314FF440318000E2
:1006700000F1A040D0F8002722F44032C0F8002753
:10068000D0F800370B43C0F8003702B030BC7047D9
:10069000072CFAD8900000F1804000F5C04002F12C
:1006A00040039B00D0F810459BB203F18043002526
:1006B00044F0010403F5C043C0F8104501950198CA
:1006C0001D600029E1D00B4901239340C1F8043398
:1006D00002B030BC70474FF0A0420123D2F8102581
:1006E0008340134214BF4FF440314FF40031BEE752
:1006F000D4280020006000404FF0A043D3F810350C
:1007000023FA00F000F00100704700BFF0B5BB4BCA
:100710001A68012A83B000F0D5800024B84B1A680B
:10072000012A00F0E180B74B1A68012A00F0EE8040
:10073000B54B1A68012A00F0FB80B44B1A68012AF5
:1007400000F00881B24B1A68012A00F01581B14B04
:100750001A68012A00F02281AF4B1A68012A00F0C2
:100760002F81AE4B1A68012A00F03C810025210739
:1007700017D0E20700F15881A30700F1BE81670797
:1007800000F19C81260700F1A881E00600F15C8160
:10079000A10600F16881620600F17481230600F170
:1007A0008081002C01DB03B0F0BD9D4C94F8541007
:1007B00021F0C000231893F93430072B14DD04EB2B
:1007C00083035F6887B1860006F1A0460123D6F84F
:1007D000002783402B424FEA9111C2F3014240F0BF
:1007E000A381032A00F0B58194F855108C4B21F0B9
:1007F000C000221892F93420072A14DD03EB82038B
:100800005F6887B1860006F1A0460123D6F800276D
:1008100083402B424FEA9111C2F3014240F0928192
:10082000032A00F0B88194F856107D4B21F0C000E7
:10083000221892F93420072A14DD03EB82035F6843
:1008400087B1860006F1A0460123D6F80027834031
:100850002B424FEA9111C2F3014240F06C81032A0E
:1008600000F0888194F857106D4B21F0C0000444CB
:1008700094F93420072A96DD03EB82035E68002E8C
:1008800091D0830003F1A0430122D3F800478240B6
:100890002A424FEA9111C4F3014440F03E81032CF7
:1008A00081D1032940F03E814FF40035D3F8004751
:1008B00024F44034C3F80047D3F800272A43C3F890
:1008C00000272FE15749D1F8044314F001043FF405
:1008D00025AF002119601B680093009B484B14460C
:1008E0001A68012A7FF41FAF4E4AD2F804239007FA
:1008F0007FF519AF00221A601B680093009B414BE3
:100900001A68012A44F002047FF412AF454AD2F873
:10091000042351077FF50CAF00221A601B68009377
:10092000009B394B1A68012A44F004047FF405AF98
:100930003C4AD2F8042312077FF5FFAE00221A606A
:100940001B680093009B314B1A68012A44F008048D
:100950007FF4F8AE334AD2F80423D7067FF5F2AE1F
:1009600000221A601B680093009B294B1A68012A19
:1009700044F010047FF4EBAE2A4AD2F80423960622
:100980007FF5E5AE00221A601B680093009B214BA7
:100990001A68012A44F020047FF4DEAE214AD2F81E
:1009A000042355067FF5D8AE00221A601B68009319
:1009B000009B194B1A68012A44F040047FF4D1AE21
:1009C000184AD2F8042310067FF5CBAE00221A6035
:1009D0001B680093009B114B1A68012A44F08004A5
:1009E0007FF4C4AE00221A601B6801934FF0A0434D
:1009F000019AD3F8105544F00044B8E60061004075
:100A000004610040086100400C610040106100403A
:100A100014610040186100401C6100407C6100408E
:100A2000D428002000600040694B6A4AD3F81005C2
:100A3000D3F810155368C0F30420C1F3014198475F
:100A4000A3077FF59CAE58E0614B624AD3F82005BE
:100A5000D3F820155369C1F30141C0F3042098472E
:100A6000A1067FF598AE5A4B5A4AD3F82405D3F81D
:100A700024159369C0F30420C1F30141984762062D
:100A80007FF58CAE524B534AD3F82805D3F828157E
:100A9000D369C0F30420C1F30141984723067FF5D1
:100AA00080AE4B4B4B4AD3F82C05D3F82C15136A68
:100AB000C0F30420C1F30141984772E6444B454A14
:100AC000D3F81805D3F81815D368C0F30420C1F380
:100AD0000141984726077FF558AE3D4B3D4AD3F874
:100AE0001C05D3F81C151369C0F30420C1F30141A0
:100AF0009847E0067FF54CAEA6E7354B354AD3F86C
:100B00001405D3F814159368C0F30420C1F3014110
:100B1000984767077FF536AED0E7022C7FF443AEE7
:100B200003294CD0B0473EE6022A7FF45DAE03298C
:100B30004BD0B84758E6022A7FF494AE032941D03F
:100B4000B8478FE6022A7FF46EAE032934D0B84747
:100B500069E60329EDD14FF4003ED6F8002722F4D0
:100B60004032C6F80027D6F800374EEA0303C6F82D
:100B70000037DEE70329E3D14FF4003ED6F8002723
:100B800022F44032C6F80027D6F800374EEA0303B5
:100B9000C6F80037D4E70329D9D14FF4003ED6F880
:100BA000002722F44032C6F80027D6F800374EEA74
:100BB0000303C6F80037CAE74FF4403EEFE74FF4AF
:100BC000403573E64FF4403ED8E74FF4403EC4E76B
:100BD00000600040D428002030B5834C834AE37D78
:100BE00085B0F3B11368002B40F0B980804A1168DA
:100BF000002940F09E807F4B1A6832B1E17C7A4830
:100C000000221A60002940F0CF807B4B1A6832B175
:100C1000A17C754800221A60002940F0D58005B0FB
:100C200030BD1168002959D0617D744813604FF4BC
:100C30000173C0F8083329B903F1804303F5F05379
:100C400001221A606D4A02238DF80030D2F88034F8
:100C5000C2F88034E268E07C0192002203938DF8B0
:100C6000080021686368E27468469847644B1A6814
:100C7000A2B1228AA17C5C4892B291424FF000025C
:100C80001A6040F28380028A038A85685B4992B2C7
:100C90000133AA5C9BB20382C1F81C25554B1A682C
:100CA000002ABCD0627D002119601AB1A3F5A2739D
:100CB00001221A60E27C4C4B002AB0D0197DDA6820
:100CC0008DF80810002001218DF800100192D874D1
:100CD00093E806006846904705B030BD494B1A6856
:100CE000002AC3D0454A1960207DD2F81855237DCB
:100CF000E17CE2680133DBB22375237D1554994210
:100D0000B4D1637D13B9404B012119603B4963683D
:100D10004FF40170C1F8080301920122217D8DF882
:100D2000002000228DF8081068462168E274984778
:100D30009CE732491360D1F83C25E17CD2B2914264
:100D40007FF459AFE2688DF8081001208DF800009B
:100D50000192684694E80600E37490474BE7274BFE
:100D60000020022110608DF80010D3F88024C3F811
:100D700080240392D3F83C25E3680193E0748DF856
:100D80000820216863686846984734E7002985D0C1
:100D900083688DF808100193827490E80A008DF83A
:100DA00000206846984779E71449C368D1F83C1594
:100DB0008DF8081001218DF800100193C27490E89D
:100DC0000A006846984720E70C498368D1F84C151B
:100DD0008DF808100193827490E80A008DF80020C5
:100DE000684698471BE700BF2C29002024210040BB
:100DF00010210040442100402021004000200040FC
:100E00001C2100400821004004200040064B1B68C4
:100E10005B0701D40820704720B1044B5B78036066
:100E2000002070470E207047A02B0020442900208E
:100E30004FF0A042D2F80435D94301F4002103F465
:100E40000023C2F80815C2F80C3570470D282DE9AB
:100E5000F047044607D00E2838D00F2838D0102885
:100E600038D0BDE8F0870025012911D020D3022910
:100E7000F7D1224B05EB45051D446E78002EF0D0CE
:100E80001F4B1B68002BECD03046BDE8F0471847DD
:100E9000DFF868806F007B1908EB030218F8036025
:100EA0005378CBB92F444744164BBA785A55E5E7E7
:100EB000154B1868FFF7F0F91049124A05EB450386
:100EC0000B44565D9B789E42CBD1D7E70125CBE7FB
:100ED0000225C9E70325C7E70C4A0B4B1168DFF869
:100EE0003090186801EB810149004A46FFF75CF930
:100EF0000028D7D189F80040D4E700BFC82B0020D4
:100F0000BC2B0020A42B0020AC2B0020B42B0020F5
:100F1000C02B0020CE4B1B68DB0700D4704770B598
:100F2000CC4B1C78172C22D8DFE814F06A00740030
:100F30007400AB00D000F500180139013A0022001E
:100F40003A00220018003E013E013E013E013E01F2
:100F500050005A009B006101180018004FF0A04398
:100F60004FF4F0110022C3F80C15C3F8082570BD2A
:100F70004FF0A042B84CD2F80435B848D94301F438
:100F8000802103F48023C2F80815C2F80C352168CB
:100F9000006801EB81010022BDE87040FFF704B951
:100FA0004FF0A042AC4CD2F80435AC48D94301F420
:100FB000802103F48023C2F80815C2F80C3521689B
:100FC00000680022BDE87040FFF7EEB84FF0A04384
:100FD0004FF4F0110022C3F80815C3F80C2570BDBA
:100FE0004FF0A0434FF4E01000224FF40031C3F85B
:100FF0000805C3F80C25C3F80C15C3F8082570BD07
:101000004FF0A0434FF4B0110022C3F80815C3F805
:101010000C2570BD4FF0A0404FF4A0120025C0F881
:101020000825C0F80C55D0F8042582F4F01212F40B
:10103000003200F02181022C4FF40032C0F8082564
:101040000CBF12212821C0F80C55834A834812682E
:101050001C7002FB01F100680022BDE87040FFF740
:10106000A3B84FF0A04300224FF4D0104FF48021DA
:10107000C3F80805C3F80C25C3F80C15C3F80825F8
:1010800070BD4FF0A0404FF4A0120024C0F8082516
:10109000C0F80C45D0F8042582F4F01212F40032A6
:1010A00000F0E2804FF40032C0F808250821C0F8B3
:1010B0000C45694A69481268006803241C7002FBE9
:1010C00001F1BDE870400022FFF76EB84FF0A0407C
:1010D0004FF4A0120024C0F80825C0F80C45D0F841
:1010E000042582F4F01212F4003200F0A1804FF4D3
:1010F0000032C0F808252821C0F80C45564A574848
:101100001268006804241C7002FB01F1BDE8704005
:101110000022FFF749B84FF0A0414FF4A012002081
:10112000C1F80825C1F80C05D1F8042582F4F012A5
:1011300012F4003200F084804FF40032C1F8082528
:10114000C1F80C054449454A0968106805241C701B
:1011500049000022BDE87040FFF726B84FF0A041DB
:101160004FF4A0120020C1F80825C1F80C05D1F8F1
:10117000042582F4F01212F4003252D04FF40032FF
:10118000C1F80825C1F80C053449334A08681168CC
:1011900006241C700022BDE87040FFF705B84FF030
:1011A000A0434FF4A0101FE72D4D2868FFF774F8F7
:1011B000D4F1110402462AD048BB012C0DD0C82618
:1011C000284B25492868096806FB04F4A3FB04435F
:1011D0005B0901FB03F1FEF7E7FF4FF0A0434FF47B
:1011E00000210022C3F80C15C3F8082570BD4FF08C
:1011F000A04300224FF4C0104FF4C021C3F80805EB
:10120000C3F80C25C3F80C15C3F8082570BD4FF0C2
:10121000A0434FF400210022C3F80815C3F80C25A1
:1012200070BD4FF40030C1F80C05C1F80825ABE7DC
:101230004FF40031C0F80C150421C0F808255DE713
:101240004FF40030C1F80C05C1F808257AE700BF5B
:10125000A82B0020B02B0020B42B0020C42B002092
:10126000B82B00201F85EB514FF40031C0F80C154E
:101270000221C0F808251CE74FF40031022CC0F809
:101280000C150CBF02210421C0F80825DDE600BFC3
:1012900003780D2B15D00E2B15D00F2B04D0102B4F
:1012A00008BF032301D070470223084A03EB43031E
:1012B000134458780028F6D0054B1B68002BF2D059
:1012C00018470023F1E70123EFE700BFC82B0020F8
:1012D000BC2B0020F8B5CB4B1A6812F0010201D1EB
:1012E0001046F8BD0446172800F2CB81DFE810F065
:1012F00023013001300171009700BD00E1005A0068
:101300003000180030001800040157015701570140
:10131000570157017B010F01190146006400640069
:101320004FF0A042B84CD2F80435B848D94301F484
:10133000802103F48023C2F80815C2F80C35216817
:10134000006801EB81010022BDE8F840FEF72CBFE8
:101350004FF0A042AC4CD2F80435AC48D94301F46C
:10136000802103F48023C2F80815C2F80C352168E7
:1013700000680022BDE8F840FEF716BFA4484FF011
:10138000A0434FF4C01200214FF4C0251524C3F828
:101390000825C3F80C150A46C3F80C55C3F8081500
:1013A00004709DE74FF0A04399484FF4A01200212C
:1013B0004FF400350724EAE74FF0A04394484FF478
:1013C000F0120021C3F80C25C3F808150A46047072
:1013D00086E74FF0A0424FF4A0130020C2F8083572
:1013E000C2F80C05D2F8043583F4F01313F400337B
:1013F00000F030814FF40033C2F808350821C2F8FC
:101400000C05814B81481A68814B006803241C70CD
:1014100002FB01F1BDE8F8400022FEF7C5BE4FF027
:10142000A0424FF4A0130020C2F80835C2F80C0502
:10143000D2F8043583F4F01313F4003300F0128172
:101440004FF40033C2F808352821C2F80C056E4B62
:101450006E481A686E4B006804241C7002FB01F190
:10146000BDE8F8400022FEF79FBE4FF0A0424FF4C7
:10147000A0130021C2F80835C2F80C15D2F80435C3
:1014800083F4F01313F4003300F0F4804FF40033CE
:10149000C2F80835C2F80C155B4B5C4A19685C4B06
:1014A000106805241C7049000022BDE8F840FEF7D2
:1014B0007BBE4FF0A0424FF4A0130021C2F80835C4
:1014C000C2F80C15D2F8043583F4F01313F400338A
:1014D00000F0AE804FF40033C2F80835C2F80C15A6
:1014E0004B4B4A49484A0868116806241C70002280
:1014F000BDE8F840FEF758BE4FF0A0434FF4F0129D
:101500000021C3F80C250A46C3F80815E8E64FF099
:10151000A0433F484FF4E01200214FF4003513245C
:1015200035E74FF0A0433A484FF4D01200214FF472
:10153000802514242BE74FF0A041354800234FF4B9
:10154000B012C1F80825C1F80C351A460370C7E679
:101550004FF0A0424FF4A0130020C2F80835C2F8A3
:101560000C05D2F8043583F4F01313F4003366D07D
:10157000022C4FF40033C2F808350CBF1221282189
:10158000C2F80C05204B224A1B682048147003FB4C
:1015900001F100680022BDE8F840FEF705BE1D4DD0
:1015A0002868FEF779FED4F11104024636D0A8BBB4
:1015B000012C0ED0144B184F19682868C82606FB5A
:1015C00004F3A7FB03435B0901FB03F1FEF7ECFD0A
:1015D00002464FF0A0434FF400200021C3F80C0551
:1015E000C3F808157CE64FF0A04309484FF4F01209
:1015F00000211224C3F80825C3F80C150A4604700C
:101600006EE600BFA82B0020B42B0020C42B0020C6
:10161000B02B0020B82B00201F85EB514FF0A043CA
:101620004FF400200021C3F80805C3F80C1557E655
:101630004FF40031C2F80C15C2F8083550E74FF4EA
:101640000031022CC2F80C150CBF02210421C2F893
:10165000083597E74FF40031C2F80C150221C2F8A3
:101660000835CEE64FF40031C2F80C150421C2F85B
:101670000835ECE64FF40031C2F80C15C2F8083515
:101680000AE700222CE600BFF8B5234D234E244B79
:101690002860044610F0020031601A601FD0214B10
:1016A00021484FF00D0E0E270F2610254A0883F80B
:1016B00000E00421DF709E715D72FDF7A1FFF0B1C3
:1016C000E3070BD54FF0A0434FF4F0120021C3F80D
:1016D0000825C3F80C15C3F8182510B1F8BDE207AA
:1016E000F0D41248124A0021FEF730FD0028F5D14F
:1016F0001048114A0121BDE8F840FEF727BDFDF76B
:10170000D7FF0028DCD101460C4A0D48FEF71EFD2C
:10171000E107E2D5D6E700BFA82B0020B42B0020BC
:10172000BC2B0020C82B00203C390200C42B002019
:10173000150F0200B82B0020310E0200911202009A
:10174000AC2B002070B41D4E1D4DD6F800371D4C3B
:101750001D4910F0010F14BF4FF44032002223F452
:1017600040331343C6F80037D5F8003710F0020FA6
:1017700023F4403214BF4FF4403300231343C5F821
:101780000037D4F8003710F0040F14BF4FF4403284
:10179000002223F440331343C4F80037D1F8003754
:1017A00010F0080F23F4403214BF4FF440330023ED
:1017B0001343C1F80037002070BC7047340000505C
:1017C000380000503C0000504000005076DF704769
:1017D0007ADF70477CDF70477FDF704782DF7047BA
:1017E000A9DF704760DF70473CDF704748DF704714
:1017F0004FF0A04331B94FF48022C3F80825C3F855
:101800000C1570474FF480210022C3F80C15C3F863
:101810000825704700210A46FDF760BF01F030BC83
:1018200038B50388132B04466DD011D9172B18D067
:10183000522B5ED0142B1CD0204601F061FE2046B6
:1018400001F0C2FB21463D48BDE8384000F046BAF1
:10185000102B35D0112BEFD1394B4FF6FF721A8078
:10186000EAE70346374A53F8060F10609B889380D7
:10187000E2E70A220E30344902F02CF8314BB0FA7C
:1018800080F21B7913F001054FEA521224D0002A8E
:101890004FD098072D4927D403F0040303F0FF0528
:1018A000002B3AD0002A3AD1002325480088FFF7C0
:1018B00095FF0028C0D000210A46FDF70FFFBBE7C7
:1018C0000720FFF707FD18B100210A46FDF706FFC4
:1018D0001B4BA2881A80AFE703F0020000F0FF0163
:1018E0000028D9D0F2B129465D07194ADCD5194B39
:1018F000DBE7134B002118880A460323FFF770FF2C
:10190000002899D0D7E70E4B134A1888134B0021B3
:10191000FFF762FF00288FD0CDE72A46C4E70022F8
:101920000C4BC2E703F0040303F0FF011BB90A46A6
:10193000BAE71146B8E711461346B6E7D42B0020A4
:1019400078280020342D0020B22C0020A02C00206C
:101950000C2D0020242D0020042D002060280020C4
:1019600010B5047804B110BD064B3B211888FFF771
:101970002DFF0028F7D021462246BDE81040FDF794
:10198000ADBE00BF782800200D2823D110B5124C21
:10199000124823789BB9012100F082F9237883F063
:1019A0000103237030F0080313D043F2020398427E
:1019B0000FD000210A46BDE81040FDF78FBE002180
:1019C00000F06EF9237883F00103237030F00803F0
:1019D000EBD110BD704700BFCC2F0020D42B0020CE
:1019E00010B5044630B1032803D10220FFF772FC82
:1019F00058B910BDFFF76EFC68B90120FFF7A2FED1
:101A000070B9FFF7F1FE0028F3D000210A46BDE8C7
:101A10001040FDF763BE21462246FDF75FFEECE76E
:101A200000210A46FDF75AFEEBE700BF0A460146D1
:101A30000148FDF753BE00BFEFBEADDEF0B5A9B063
:101A4000854B009305210A460020844BFEF7F8FAE7
:101A500018B100210A46FDF741FE082080494822BE
:101A6000002301F0C3FE18B100210A46FDF736FE3F
:101A70001AA800210822FDF737FD9DF868300024E0
:101A800043F001031AA88DF868301B94FFF7AAFEF3
:101A900018B121462246FDF721FE724801F0CAFE28
:101AA00018B100210A46FDF719FE6F4801F0CCFE7F
:101AB00018B100210A46FDF711FE032040F6CD4182
:101AC0006A4AFFF7E1FD18B100210A46FDF706FE5C
:101AD00008200A21664AFDF715FE18B100210A46C2
:101AE000FDF7FCFD9DF830306248012262F30303EC
:101AF00028AD62F3071305F8703D01F006FF5D495C
:101B000082B22846FFF766FE18B100210A46FDF7AB
:101B1000E5FD08221AA80021FDF7E6FC00244FF499
:101B2000C8734FF448721AA8ADF86830ADF86E303B
:101B3000ADF86A20ADF86C40FFF74AFE18B12146B7
:101B40002246FDF7CBFD4C4B4C481A9300211C223A
:101B5000FDF7CAFC49481AA900F0E2F818B10021C3
:101B60000A46FDF7BBFD454A927C8DF80A20002409
:101B700041F223532846002138220126ADF80830CF
:101B80000227FDF7B1FC0623214638221AA88DF85A
:101B900030708DF833308DF832604027FDF7A4FCAB
:101BA00028460DF1080EB42500941AA903AA344B57
:101BB0000694ADF8786003948DF818600494059449
:101BC00009940A940B94CDF87CE00797089500F0EF
:101BD000CFFF18B121462246FDF780FD00211C22CF
:101BE0001AA8FDF781FC00244FF420364FF470252D
:101BF0000321244A244B1A941AA8ADF876408DF894
:101C000078401B961C958DF874101F92209301F05C
:101C10003DFC18B121462246FDF760FD1B4A1378B2
:101C200043F0010303F0FD03032060F384036FF32B
:101C300045130724102113705470917001F05CF863
:101C400028B9FDF737FEFFF7D1FD0028F9D00021B4
:101C50000A46FDF743FDF4E7790302003C2D00201E
:101C6000BC2C0020211802001D1802008919020056
:101C7000F02B00205C390200F1170200D42B002069
:101C8000E11902006119020015180200042D00205C
:101C9000A0DF7047A2DF7047A6DF704763DF7047A1
:101CA00070B588B005468DF80710012404A80021FE
:101CB0001022ADF80E40FDF717FC6E89A88A8DF84A
:101CC00012400DF107020DF10E0304A9ADF81060EA
:101CD00007920693FFF7E0FF08B070BD0B88112B49
:101CE0000FD0502B05D0102B00D070478B888382EB
:101CF000704710B44488CB889C4206D05DF8044BF2
:101D000070474FF6FF7383827047CB8B012BF5D161
:101D10008369002BF2D091F820105DF8044B18472E
:101D2000F0B5754B0C464FF6FF728282054695B0B2
:101D30001868596824689A68DB68AC6104AC0FC401
:101D400005F1120104A8FFF7A9FF18B104462046C7
:101D500015B0F0BD14A941F2235321F8483D0120EC
:101D6000AB7C8DF80A302A46FFF792FF0446002824
:101D7000EDD1214603226846FDF7B6FB9DF80070C1
:101D80009DF801309DF802E0012666F3030766F333
:101D9000030366F3071366F3420E214666F3071743
:101DA0001C220DA88DF800708DF801308DF802E02E
:101DB000FDF79AFB9DF8343095F812E00E9443F04D
:101DC0001203214641F22457032201A810941194D2
:101DD00013948DF834308DF80EE0ADF80C70CDF81A
:101DE00048D0FDF781FB9DF806309DF804E09DF892
:101DF000057066F3420364F3C30364F3041364F3EE
:101E0000030766F3030E64F3000366F3071E21461F
:101E100064F30717142208A88DF806308DF804E043
:101E20008DF80570FDF760FB2B4601AA0992ADF80D
:101E30002A400C940DA903AC33F80A0B089408AAA5
:101E4000ADF82860ADF82C60FFF724FF04460028A9
:101E50007FF47DAF21461C220DA8FDF745FB9DF8C0
:101E6000343095F812E00E9443F00A03214641F213
:101E70002557032201A810941194129413948DF8FD
:101E800034308DF80EE0ADF80C70FDF72DFB9DF8A9
:101E900006309DF804E09DF8057066F3420364F394
:101EA000C30364F3041366F3030E66F3030764F3DA
:101EB000000366F3071E2146142266F3071708A8DD
:101EC0008DF806308DF804E08DF80570FDF70CFBF9
:101ED0002B4603AA08920DA933F8020BADF82A404D
:101EE00008AA01AD0C940995ADF82860ADF82C60F6
:101EF000FFF7D0FE04462AE76C39020071DF704715
:101F000072DF704779DF70477DDF704765DF7047AC
:101F1000F0B50488012C83B007D0148804F1020EB8
:101F20009E4505D90C2003B0F0BD072003B0F0BDDD
:101F30000578012D04D1457802352544AB42F1D313
:101F4000023B0F461C1B02A9A4B2054621F8024D14
:101F500007EB0E001646FFF7D7FF0028E3D12B78DA
:101F6000022B17D0012B11D023460821FE2BD9D8E4
:101F70003288581CB8543288013292B23280B95437
:101F800032880132134433800020CCE76B789C42C6
:101F9000EBD2E9E7BDF806309C42E5D30921E5E73D
:101FA0002DE9F04F85B083460E9D00882C88019462
:101FB000BDF83C9000284ED000278A461646984629
:101FC0003C4604E0BBF800300134A34226DDDBF8D8
:101FD000043053F8240003900DF10B0103A80022F4
:101FE000FFF794FF18BB9DF80B30B342EAD10FB353
:101FF0002A8893194B4519DC424403A80DF10B01C3
:102000000127FFF783FF90B92B889DF80B2013441D
:102010002B80BBF800300134A342D8DCDFB12B8821
:10202000019A013B9B1A9BB2FF2B12D90C2005B0E1
:10203000BDE8F08F2B885A1C334402334B4592B2D3
:10204000F4DC2A8008F802A02A88013292B22A80A1
:10205000D2E708F80230002005B0BDE8F08F00BFDD
:102060002DE9F047002317881380446B84B0BCB17E
:10207000022F247803D80C2004B0BDE8F087022397
:102080000B70138801339BB211251380CD54138834
:1020900001339BB21380CC5414880134A4B2148051
:1020A000036B002B6FD004F11205BD42E3D811255C
:1020B0000D5514880134A4B2102514800D551488D0
:1020C0000134A4B21480DD7B0D5514880134A4B210
:1020D00014809D7B0D5514880134A4B214805D7B5F
:1020E0000D5514880134A4B214801D7B0D5514883D
:1020F0000134A4B21480DD7A0D5514880134A4B2E1
:1021000014809D7A0D5514880134A4B214805D7A30
:102110000D5514880134A4B214801D7A0D5514880D
:102120000134A4B21480DD790D5514880134A4B2B1
:1021300014809D790D5514880134A4B214805D7902
:102140000D5514880134A4B214801D790D551488DE
:102150000134A4B21480DD780D5514880134A4B282
:1021600014809D780D5514880134A4B214805D78D4
:102170000D5514880134A4B214801B780B551488B3
:102180000134A4B2148090F82E30002B5FD190F867
:102190002D300D4606469046002B71D1B378002BAA
:1021A00040F0A280F378D3B1E21CBA423FF663AFAD
:1021B00002222A55B8F80020013292B20121A8F873
:1021C0000020A954B8F800200A4492B2A8F80020D0
:1021D000AB54B8F800400C44A4B2A8F800407268B0
:1021E000D2B1E31CBB4212783FF645AF02232B5518
:1021F000B8F8003001339BB20A21A8F80030E95446
:10220000B8F8003001339BB2A8F80030EA54B8F8AF
:1022100000300133A8F800303389002B40F01181E1
:10222000338A002B40F08F81338B002B40F0A68146
:10223000336A002B00F0C580B8F80020911DB94228
:102240003FF619AF1988052977D8072014E7E51C50
:10225000BD423FF610AF02250D5514880134A4B2DB
:102260001C2514800D5514880134A4B2013B148040
:10227000032BEAD8DFE813F0610164015E01570126
:102280000934BC423FF6F7AE02A8FFF737FE00283C
:102290007FF4F2AEB8F800300822EA54B8F8003003
:1022A00001339BB21B22A8F80030EA54B8F80000B2
:1022B000013080B2A8F80000062228440DF109017F
:1022C00001F018FBB8F800309DF8082006339BB2E7
:1022D000A8F8003002B10122EA54B8F800400134F5
:1022E000A4B2A8F8004059E70434BC423FF6C3AE9C
:1022F00002A8FFF707FE00287FF4BEAEB8F8003052
:10230000BDF808200321E954B8F8003001339BB22E
:102310001921A8F80030E954B8F8003001339BB215
:10232000E918A8F80030100AEA544870B8F80040DC
:102330000234A4B2A8F8004034E76FF4486C01EB13
:102340000C0080B24FF27D34A0427FF67EAF5888F9
:1023500005287FF67AAF6FF4486E86441FFA8EFE2A
:10236000A6457FF672AF4FF6FF74A14204D0A0429B
:1023700002D081423FF669AF0521A954B8F8002088
:10238000013292B21221A8F80020A954B8F8002016
:10239000013292B2A8F800201988A9542A44090AE7
:1023A0005170B8F80020023292B2A8F800205B8881
:1023B000AB542A441B0A5370B8F800300233A8F813
:1023C0000030746AACB3A288B8F80010131D0B4437
:1023D000BB423FF650AE931CFE2B3FF64CAE033291
:1023E0006A54B8F8003001339BB2FF22A8F80030DD
:1023F000EA54B8F8003001339BB2A8F800302288C4
:10240000EA542B44120A5A70B8F80000023080B225
:10241000A8F80000A28862B1A16800293FF415AFB6
:10242000284401F067FAA388B8F800201344A8F8FC
:10243000003096F82C30FBB93378002B6CD118465D
:102440001AE606F108040221CDF800800197204623
:102450000A462B46FFF7A4FD00287FF40DAECDF809
:10246000008001972046062110222B46FFF798FD99
:1024700000287FF401AED3E6B46A002C3FF4E5AE49
:10248000A2880232FE2A3FF6F6ADB8F800304FF0CF
:1024900000094FF0160A07E0B46A04EB8104A28831
:1024A0000232FE2A3FF6E7AD0132EA54B8F80030B6
:1024B00001339BB2A8F8003005F803A0B8F800304B
:1024C00001339BB2A8F800302288EA542B44120A48
:1024D0005A70B8F8003002339BB2A8F80030A188D7
:1024E000E8180A4669B1A3681946002B3FF4ADAE5F
:1024F00001F000FAA388B8F8002013449BB2A8F8B2
:10250000003009F1010996F82C205FFA89F94A4553
:1025100009EB4901C0D88FE73046294642463B4681
:10252000FFF7F6FCA8E503230B5514880134A4B289
:1025300014802CE602230B55F7E700230B55F4E734
:1025400001230B55F1E706F11004CDF80080019747
:102550002046032102222B46FFF722FD00287FF4AC
:102560008BADCDF8008001972046072110222B4625
:10257000FFF716FD00287FF47FAD55E606F118043D
:10258000CDF8008001972046142102222B46FFF748
:1025900007FD00287FF470ADCDF80080019720463C
:1025A000152110222B46FFF7FBFC00287FF464ADB9
:1025B0003EE600BF2DE9F04395B01F230D46ADF870
:1025C0000E300446002800F09F80C3785B0740F17E
:1025D0009780436B0022ADF80C20002B00F06F8138
:1025E0001B788DF812300322022011218DF8100083
:1025F0001346ADF80C208DF8111005200426216B30
:10260000002965D014AA13441644112703F8407C0E
:10261000102214AB06F8402C0344CA7B03F8402C6C
:1026200014AB03448A7B03F83F2C14AB03444A7B6E
:1026300003F83E2C14AB03440A7B03F83D2C14AB87
:102640000344CA7A03F83C2C14AB03448A7A03F897
:102650003B2C14AB03444A7A03F83A2C14AB0344E2
:102660000A7A03F8392C14AB0344CA7903F8382CDE
:1026700014AB03448A7903F8372C14AB03444A792A
:1026800003F8362C14AB03440A7903F8352C14AB49
:102690000344CA7803F8342C14AB03448A7803F853
:1026A000332C00F10E0314AAADF80C3013444E780D
:1026B00003F8406C00F10F0214AB1344ADF80C208A
:1026C00000F11002097803F8401CADF80C2092B21A
:1026D00094F82E30002B40F0158294F82D30002B0A
:1026E00040F01F81A378002B40F05281E378002B4B
:1026F0003AD0D11C1F2922D90C2015B0BDE8F08397
:10270000072015B0BDE8F083ADF80C00002D00F0F7
:10271000DA80EB78002BF3D128460CA90DF10E02DC
:10272000FFF79EFC0028ECD19DF80E300CAA204645
:102730009DF80C10FFF7E4FB15B0BDE8F083561CC4
:1027400014AF901C17FA86F6174414AA12FA80F0F8
:102750004FF0020E8AB2012107F840ECADF80C20D0
:1027600006F8401C00F8403C6368B3B1D11C1F2937
:102770001E78C1D814AF501C931C17FA80F03A444D
:1027800017FA83F34FF0020E0A2702F840ECADF877
:102790000C1000F8407C03F8406C2389002B40F0BB
:1027A0009780238A002B40F01D81238B002B40F063
:1027B0003781236A002B42D0BDF80C20911D1F29C0
:1027C0009AD8188805289BD96FF4486C00EB0C0642
:1027D000B6B24FF27D37BE4292D95E88052E8FD9B0
:1027E0006FF4486EB6441FFA8EFEBE4588D94FF688
:1027F000FF77B84203D0BE4201D0B04280D814A8BF
:10280000561C10FA86F600EB020E901C80B21227BE
:102810004FF0050C0EF840CCADF80C0006F8407CEB
:102820001F88ADF80C1004AE3118375404323F0A3B
:102830004F7092B25B88B35432441B0A5370676A7C
:102840009FB3B888BDF80C30811C9A1C56181F2EF7
:102850003FF652AFFE293FF64FAF14AE591C06EBC0
:10286000030E16FA81F192B20330FF260EF8400CE7
:10287000ADF80C2001F8406C398804AEB018B154A2
:10288000090A41700433BA8898B2ADF80C0062B1FD
:10289000B96800293FF434AF304401F02BF8BDF89B
:1028A0000C30BA881344ADF80C3094F82C30002B5F
:1028B00040F0D48004AE237843BB344626E71A4662
:1028C000022001269BE62B46ADF80E502A462EE745
:1028D00003AA04F1080704AE4FF01F0802218DE897
:1028E0000401384633460A46FFF75AFB00287FF4B6
:1028F00008AF03AB8DE808013846334606211022A5
:10290000FFF74EFB00287FF4FCAE4AE72046314635
:1029100003AA1F23FFF7FCFA00287FF4F2AE344627
:10292000F4E609321F2A3FF6E7AE0CA8FFF7E6FAF5
:1029300000287FF4E6AEBDF80C3014AA03F1010EB6
:1029400012FA8EFE9F1C1344BFB24FF01B0C04AE54
:102950004FF0080803F8408C0DF131010622F01900
:102960000EF840CCADF80C7000F0C4FFBDF80C20A0
:102970009DF83010931D9BB2002940F0BD8014A833
:10298000034403F8401C073292B2ADF80C20A9E6CC
:1029900004321F2A3FF6B0AE0CA8FFF7B3FA0028A6
:1029A0007FF4AFAEBDF80C30BDF83070991C14AA9E
:1029B000581C89B204AE02EB030812FA80F004330B
:1029C00006EB010E9AB24FF003094FF0190C3B0AC7
:1029D00008F8409CADF80C2000F840CC77548EF8F5
:1029E000013083E603AA04F1100704AE4FF01F087C
:1029F0008DE804013846334603210222FFF7D0FA5E
:102A000000287FF47EAE03AB8DE8080138463346DC
:102A100007211022FFF7C4FA00287FF472AEC4E643
:102A200003AA04F1180704AE4FF01F088DE8040153
:102A30003846334614210222FFF7B2FA00287FF409
:102A400060AE03AB8DE808013846334615211022ED
:102A5000FFF7A6FA00287FF454AEAAE6A76A002F73
:102A60003FF44EAEB9880231FE293FF645AE9E4690
:102A7000BDF80C304FF0000804AE4FF0160914AA50
:102A8000581C02EB030C12FA80F09A1C92B201312E
:102A90000CF8401CADF80C2000F8409C3988B1546B
:102AA0003244090A51700433B9889BB20A46F018BF
:102AB000ADF80C3079B1BB681946002B3FF420AE5D
:102AC00000F018FFBDF80C30BA8894F82CE01344DD
:102AD0009BB2ADF80C3008F101085FFA88F8F045B8
:102AE00008EB4807BFF4E7AEA26A02EB8707B98894
:102AF0000231FE29C3D9FFE514A90B44012103F8D3
:102B0000401C40E714A9501C14AE11FA80F04FF09D
:102B1000020E16441C2702EB0E01013B06F840ECA6
:102B200089B200F8407C032B3FF6EAADDFE803F002
:102B30000218120C14AB1944002301F8403C033274
:102B400092B2ADF80C20C8E514AB1944032301F888
:102B5000403CF4E714AB1944022301F8403CEEE793
:102B600014AB1944012301F8403CE8E773DF7047D8
:102B70002DE9F047DDF820C0002800F09C80002AF5
:102B800000F09980174605461C460E460FCFDFF829
:102B900054E1DFF854A1DFF85491CAF80040AEE8E0
:102BA0000F000FCFAEE80F000024DFF844813B6830
:102BB0004248434FCEF8003021460722C8F800C0F3
:102BC00089F80040FCF790FC3E4B3F4ADFF824E1D7
:102BD0001A60214638223846C3F808E0FCF784FC26
:102BE00005F1100393E80300AA78EB7895F800E06C
:102BF000BA70FB7007F1100395F801C087F800E088
:102C000083E8030005F1080393E8030007F1080EC9
:102C100005F118038EE8030093E803006A6A87F859
:102C200001C007F1180383E80300B2B1274B7B62B0
:102C3000686A274A9A60B0F804E001881980A3F80E
:102C400004E0BEF1000F08D0013A23468168C95C58
:102C500002F8011F01337345F8D1AB6AB3B11D4BC4
:102C6000BB62A86A1C4A9A6084889C80018819808B
:102C700044B1013A00238168C95C02F8011F0133A5
:102C8000A342F8D195F82C3087F82C302B6A33B159
:102C9000124B3B622A6A5188598012881A806B68ED
:102CA0001BB10F4B7B606B687B6031460448BDE80D
:102CB000F047FFF77FBC0E20BDE8F0873C300020D6
:102CC000D02F00208C3000206830002008300020F9
:102CD00018300020E83000209C300020E430002034
:102CE000883000204430002014300020E0300020E4
:102CF00038300020C030002030B589B008AB002546
:102D000043F81C5D984C20701846FEF77FF80828A1
:102D100007D020B9019B2BB1944B01221A7009B046
:102D200030BD0195924D934800210722FCF7DCFB52
:102D30006B78002B41D02378012B05D0AA78002A8C
:102D400000F0AD80022B0FD18B4A1268002A00F0F0
:102D500007818A4B01210820197090472378012BA5
:102D600000F0AF80022B32D02A7B12B9032B00F087
:102D70009F802A7E12B9042B00F09E807E4A126842
:102D80001AB1033B012B40F2BE807D4B00221A702A
:102D90000021182202A8FCF7A7FB217800234A1E75
:102DA0008DF8083003938DF810300593032A00F254
:102DB000CA80DFE802F0674A351FAB78002BCDD020
:102DC0002378022BC0D0012BCED102232370AB7805
:102DD000002B67D0674B5A7852B99A7842B9DA78A3
:102DE00032B91A7922B95A7912B99B79002B59D084
:102DF0000223C3E7634BE8691A79296AADF8180022
:102E0000ADF81A10002A00F0A1802A7822B15E4A9B
:102E10001178002900F0BE805C4B04221A7022E079
:102E2000584B68691A792969ADF81A00ADF818107D
:102E3000002A00F090802A781AB1534A11780029AC
:102E400070D0524B03221A700DE04A494F48AA68CD
:102E50006B6803910224012104708DF80810ADF80D
:102E60001A20ADF8183002A8FFF780FE00287FF482
:102E700056AF414B1B6813B1444A10789847002065
:102E800009B030BD3B4B41490393012200230A7036
:102E90008DF80820ADF81A30ADF81830E3E7022BB2
:102EA0007FF462AF2A7B03232370002A7FF466AF8E
:102EB0002B7E042222700BBB344A00231370237034
:102EC00063E76A78002A80D02A4A517800297FF483
:102ED00055AF917800297FF451AFD17800297FF464
:102EE0004DAF117900297FF449AF517900297FF462
:102EF00045AF9279002A3FF468AF3FE71E4B1A684E
:102F0000002A3FF442AF2B78002B3FF43EAF1E4B1C
:102F10001B78002B7FF439AF194B01210720197062
:102F2000904735E71A4A0593042502231046D570C9
:102F30008DF81030FFF73EFB00287FF4F0AE134B06
:102F4000217805221A70002993D08CE71A7B002A79
:102F50007FF45BAF60E71A7B002A7FF46CAF70E709
:102F600006490A70FBE600BFE0300020E130002097
:102F7000443000203C30002014300020BB300020C2
:102F8000BC3000208C30002037300020F43000208E
:102F9000D02F00200A4A0593042502231046D5703D
:102FA0008DF81030FFF706FB00287FF4B8AE054B14
:102FB000217806221A7000293FF45BAF53E700BF67
:102FC000D02F0020F430002010B50388112B17D02B
:102FD000192B09D0102B00D010BD037D012BFBD184
:102FE000214B82881A8010BD8379002BF4D11F4BAE
:102FF0001B78013B032BEFD8DFE803F02F292016C5
:10300000194B82881B881A4900209A420870E3D124
:103010000120FFF771FE0028DED0164B1B68002B45
:10302000DAD0BDE810401847134B144A1B68002043
:103030001070002BD0D0BDE8104018470F4B032272
:1030400004201A70FFF758FE0028E6D1C4E70320D9
:10305000FFF752FE0028E0D1BEE70220FFF74CFE4A
:103060000028DAD1B8E700BF7A280020E03000203D
:10307000373000203830002014300020F430002099
:103080000238012818D830B5904C237889B00BB994
:1030900009B030BD08A8002540F81C5D2570FDF77B
:1030A000B5FE082809D0002840F08580019B2BB18F
:1030B0000123237009B030BD70470195844C8548C9
:1030C00000210722FCF710FA6378002B32D0824DE2
:1030D0002B78012B00F0EF80A278002A00F02681E7
:1030E000022B00F0E880227B0AB9032B4CD0227E11
:1030F00012B9042B00F01581784A126812B1033B13
:10310000012B4BD9764B00221A700021182202A8FD
:10311000FCF7EAF9297800234A1E8DF8083003935A
:103120008DF810300593032A00F2F780DFE802F0F3
:103130009A8B7653A378684D002B44D12B78012BC2
:1031400000F09D80022BCED1A378C3B1614B5A7899
:10315000002A40F0F2809A78002A40F0EE80DA7877
:10316000002A40F0EA801A79002A40F0E6805A7975
:10317000002A40F0E2809B79002B40F0DE80227B29
:1031800003232B70002AB7D1237E04222A70002B40
:1031900000F0C780514B1A68002AB3D02378002B67
:1031A000B0D0504B1B78002BACD14D4B01210720E8
:1031B00019709047A9E74C4B1B68002B3FF468AF90
:1031C000984709B030BD2B78022B74D0012B8AD1DF
:1031D00002232B70B8E7454BE0691A79216AADF8F4
:1031E0001800ADF81A100AB91A7B32B1227822B150
:1031F0003C4A1178002900F0A2803D4B04221A704D
:1032000002A8FFF7B3FC0028D5D1344B1B68002B74
:103210003FF43EAF364A1078984739E7334B606940
:103220001A792169ADF81A00ADF818100AB91A7B9D
:103230002AB122781AB12B4A117800295CD02C4B84
:1032400003221A70DCE723492948A26863680391C6
:103250000224012104708DF80810ADF81A20ADF891
:103260001830CDE71B4B22490393012200230A703B
:103270008DF80820ADF81A30ADF81830C0E7627844
:10328000002AA5D0134A517800297FF435AF9178F0
:1032900000297FF431AFD17800297FF42DAF117967
:1032A00000297FF429AF517900297FF425AF927965
:1032B000002A8DD020E7094A1268002A3AD00D4B27
:1032C000012108201970904738E700BFE130002045
:1032D000443000203C300020E0300020143000203A
:1032E000BC30002037300020383000208C300020E7
:1032F000F4300020BB3000201B4A05930424022335
:103300001046D4708DF81030FFF754F900287FF480
:1033100052AF164B297805221A7000293FF475AF79
:103320006EE7124A002313702B70EBE6022B7FF43A
:10333000DAAE24E70E490A7001E70223DCE60A4A06
:103340000593042402231046D4708DF81030FFF743
:1033500031F900287FF42FAF044B297806221A7028
:1033600000293FF452AF4BE7D02F0020F43000206B
:10337000BB30002075DF704776DF70477ADF70471B
:103380007BDF7047184B18884FF6FF7398422AD09E
:1033900010B5164A164C1378217B0133DBB29942E3
:1033A00082B013700CD2237C002111708BB9636939
:1033B00023B102A8002200F8042D984702B010BDE6
:1033C0000C49FFF7D7FF0028F8D0A369002BF4D1F0
:1033D000F4E73B21FFF7D0FF0028E8D0A369002BDA
:1033E000E5D09847E3E77047243100200031002002
:1033F000043100202831002070B51E4B1E4A5B8826
:103400001188994282B00FD852889A420CD31B4B34
:103410005B6923B102A8012200F8042D9847184CDB
:103420000023237002B070BD154C227862B1134B9B
:103430005B69002BF4D002A8002200F8042D984705
:103440000023237002B070BD0C4D0E4BA8681E788F
:1034500069680D4B002E18BF01461868FCF7A4FEE2
:103460000028DDD0AB69002BDAD098470023237009
:1034700002B070BDF8300020283100200431002057
:10348000F53000200031002020310020F8B505463D
:103490000FCD144C144F0FC4064695E807000023C7
:1034A00084E807003B70B6B13068104B716803C305
:1034B000A3F10800FFF762FF90B90D4D0D4C0E48C7
:1034C0000E4A00234FF6FF762E8023701946BDE882
:1034D000F840FCF73BBE0548FFF752FF0028ECD050
:1034E000F8BD00BF04310020F53000202831002055
:1034F00024310020003100202031002085330200DB
:1035000070B50288112A034626D012D9122A07D094
:10351000502A47D1244CC188E289914230D070BDF5
:1035200053F8060F214A596803C2BDE87040FFF7FF
:1035300063BF102A35D102461B4C52F8160F1C4EA1
:1035400051689B88194A1B4DE4893380002303C2CC
:103550002B70002CE9D070BD174A1549154B106827
:103560004FF6FF7400220C801A70FCF795FE0028BD
:10357000D5D00D4B9B69002BD1D0BDE870401847CA
:10358000C28B022ACBD190F82030DB07CDD40A4B76
:103590001868FCF781FE0028C1D0A369002BECD18C
:1035A000BDE770BD70BD00BF04310020F8300020C1
:1035B000243100200031002020310020454B1B78B1
:1035C000062B18D0444AD2F8883043F47003C2F86E
:1035D0008830BFF34F8FBFF36F8F4FF01023D3F8B6
:1035E0000022002A45DBD3F80032002B41DB3B4BA5
:1035F0003B4A1A6070473B4B1B681A07E2D13A4BB3
:103600001B6803F0F003302B28D0374B1B6803F006
:10361000F003302B11D0344B1B6803F0F003302B38
:10362000D0D1324B1B6813F0F003CBD14FF0804266
:10363000C2F80C31C2F81031C4E72C4B1B6813F0F0
:10364000F00FE8D1234B2A4A1B780321062B116087
:10365000B8D1244B1B681B07B4D1DCE7234B1B6894
:1036600013F0F00FD1D1234AD36823F08073D360D5
:10367000CBE7214B0122C3F80425D3F80024002A0C
:10368000FBD04FF0102315221B49C3F80022D1F8BC
:103690000034002BFBD04FF0102315221649C3F83D
:1036A0000422D1F80024144B002AFAD00022C3F8D7
:1036B0000425D3F80024002AFBD0BFF34F8F06491E
:1036C0000E4BCA6802F4E0621343CB60BFF34F8F26
:1036D000FEE700BFE00F00F000ED00E07C280020D6
:1036E0000090D003E40F00F0E80F00F0EC0F00F0C2
:1036F000A0050040F0ED00E000E001400400FA0504
:103700002EDF704751DF704710DF704761DF704771
:1037100008B508461146FEF789F908BD2DE9F043C2
:10372000DFF8C0802D4FDFF8C0902D4ED8F8005044
:103730003C68B5FA85F5B4FA84F483B06D09640980
:103740004DB13CB303B0BDE8F083D8F80030019828
:1037500098476CB1012401A8FFF7D4FF05282AD0AF
:1037600000210A460028F0D0FBF7B8FF002CF1D169
:103770003468B9F80030ADF80430204601A9FFF7ED
:10378000C5FF0528E6D090B100210A46FBF7A6FF49
:103790000024D5E73468B9F80030ADF8043020468D
:1037A00001A9FFF7B3FF0528CCD00028ECD12046B3
:1037B0003B689847ECE7002CC4D13468B9F8003076
:1037C000ADF80430204601A9FFF7A0FF05284FF00F
:1037D0000105D8D103B0BDE8F08300BF3C31002023
:1037E000343100203831002032310020F8B50C4649
:1037F00009B1A10701D00720F8BD094F094E0A4DB4
:103800000A493C6032802B60FFF77EFF0028F3D12D
:10381000074B01221A701620BDE8F840FFF770BF71
:1038200034310020323100204031002011370200B5
:1038300030310020034618B1024A0020136070475F
:103840000E2070473C310020034618B1024A002088
:10385000136070470E2070473831002008B50A4BBE
:103860001B6843B1984700B908BD00210A46BDE86E
:103870000840FBF733BF054B1B78002BF4D0BDE8A5
:103880000840FFF74BBF00BF40310020303100201F
:103890000649074A074B9B1A03DD043BC858D05022
:1038A000FBDC0548804705480047000084390200DA
:1038B0000028002080280020BD35020001F401000E
:1038C000FEE7FEE7FEE7FEE7FEE7FEE7FEE7FEE7D0
:1038D000FEE7C04610B50A44441E914208D014F8D1
:1038E000013F0878834201D0181A10BD0131F4E776
:1038F000002010BD10B5431E0A44914204D011F8B7
:10390000014B03F8014FF8E710BD034613F8012BF4
:10391000002AFBD1181A013870470000F8B500BF23
:10392000F8BC08BC9E467047F8B500BFF8BC08BCA0
:103930009E46704743000000002800200D00030051
:103940004D0E02000E0003004D0E02000F0003009A
:103950004D0E0200100003004D0E02004E6F726407
:1039600069635F426C696E6B7900000023D1BCEA29
:0C3970005F782315DEEF1212000000004B
:08397C0084BAFF7F0100000086
:103984000000000000000000000000000000000033
:103994000000000000000000000000000000000023
:1039A40034390200000000000000000000000000A4
:1039B4000000000000000000000000000000000003
:1039C40000000000000000000000000000000000F3
:1039D40000000000000000000000000000000000E3
:1039E400A02C00200C2D0020242D0020000000001D
:1039F4000000000000000000FFFFFFFF0090D00364
:040000032000389110
:00000001FF
